:100000000C942A000C9447000C9447000C94470071
:100010000C9447000C9447000C9447000C94470044
:100020000C9447000C9447000C9447000C94470034
:100030000C9447000C9447000C9447000C94470024
:100040000C9447000C9447000C9447000C94470014
:100050000C94470011241FBECFE5D8E0DEBFCDBF12
:1000600010E0A0E6B0E0E4E7FDE102C005900D92EB
:10007000A039B107D9F710E0A0E9B0E001C01D92A6
:10008000A239B107E1F70E94CC0D0C94B80E0C9484
:100090000000EF92FF920F931F937B018C0120E0F1
:1000A00030E040E05FE40E94490388238CF0C801FF
:1000B000B70120E030E040E05FE40E94C1010E940F
:1000C000A9039B01AC01205030404040504806C07D
:1000D000C801B7010E94A9039B01AC01B901CA0183
:1000E0001F910F91FF90EF900895A0E0B0E0EBE733
:1000F000F0E00C94810EDC012B01FA019C9192300E
:1001000008F439C1EB018881823008F433C194309E
:1001100069F4843009F02FC111969C91119789815F
:10012000981709F428C1A0E6B0E025C1843009F48D
:1001300021C18230A9F4923009F01DC19A01AD01AC
:1001400088E0EA010990AE01E90109929E0181501F
:10015000C1F7E201898111969C918923818308C1AD
:10016000923009F407C112962D903C901397EB0141
:100170008A819B811496AD90BD90CD90DC901797AD
:10018000EC80FD800E811F819101281B390BB90184
:1001900037FF04C066277727621B730B6032710537
:1001A0000CF061C0121613066CF537014801062EDB
:1001B00004C096948794779467940A94D2F721E0C8
:1001C00030E040E050E004C0220F331F441F551FB1
:1001D0006A95D2F721503040404050402E213F21B7
:1001E00040235123211531054105510521F021E01E
:1001F00030E040E050E079018A01E628F72808293C
:1002000019293CC0232BD1F1260E371E350146019A
:10021000062E04C096948794779467940A94D2F734
:1002200021E030E040E050E004C0220F331F441FC3
:10023000551F6A95D2F721503040404050402A2146
:100240003B214C215D21211531054105510521F04E
:1002500021E030E040E050E059016A01A628B728CB
:10026000C828D9280BC0821593052CF01C01AA249C
:10027000BB24650103C0EE24FF24870111969C91E5
:10028000D20111968C91981709F445C0992339F041
:10029000A80197012A193B094C095D0906C0A6016E
:1002A00095012E193F09400B510B57FD08C01182D3
:1002B0003382228224833583468357831DC081E0A5
:1002C00081833382228288279927DC01821B930B4A
:1002D000A40BB50B84839583A683B7830DC0220F2F
:1002E000331F441F551F24833583468357838281E0
:1002F000938101979383828324813581468157813D
:10030000DA01C9010197A109B1098F5F9F4FAF4F72
:10031000BF4328F30BC0918333822282EA0CFB1C7B
:100320000C1D1D1DE482F5820683178383E0808304
:10033000248135814681578157FF1AC0C901AA27F8
:1003400097FDA095BA2F81709070A070B0705695EF
:10035000479537952795822B932BA42BB52B848318
:100360009583A683B7838281938101969383828349
:10037000DF0101C0D201CD01CDB7DEB7E2E10C94BF
:100380009D0EA0E2B0E0E7ECF1E00C948D0E6983E5
:100390007A838B839C832D833E834F835887E9E048
:1003A000EE2EF12CEC0EFD1ECE010196B7010E943F
:1003B000D2048E010F5E1F4FCE010596B8010E9438
:1003C000D2048A8991E089278A8BC701B801AE01DE
:1003D000475E5F4F0E9475000E94FD03A096E6E015
:1003E0000C94A90EA0E2B0E0E8EFF1E00C948D0EC1
:1003F00069837A838B839C832D833E834F835887C5
:10040000F9E0EF2EF12CEC0EFD1ECE010196B701A6
:100410000E94D2048E010F5E1F4FCE010596B801D7
:100420000E94D204C701B801AE01475E5F4F0E942F
:1004300075000E94FD03A096E6E00C94A90EA0E2D0
:10044000B0E0E5E2F2E00C94810E69837A838B835D
:100450009C832D833E834F835887CE010196BE0136
:10046000675F7F4F0E94D204CE010596BE016F5E8A
:100470007F4F0E94D2049985923088F0898982301A
:10048000C8F0943019F4823051F404C0843029F457
:10049000923081F480E690E0C6C0923049F420E0CA
:1004A0009A858A89981321E02A87CE010996BBC0D4
:1004B000823049F420E09A858A89981321E02A8BBA
:1004C000CE014196B0C02D843E844F8458886D88FB
:1004D0007E888F88988CEE24FF248701AA24BB2471
:1004E000650140E050E060E070E0E0E0F0E0C10174
:1004F00081709070892BE9F0E60CF71C081D191D1E
:100500009A01AB012A0D3B1D4C1D5D1D80E090E062
:10051000A0E0B0E0E614F7040805190520F481E036
:1005200090E0A0E0B0E0BA01A901480F591F6A1F8E
:100530007B1FAA0CBB1CCC1CDD1C97FE08C081E0F5
:1005400090E0A0E0B0E0A82AB92ACA2ADB2A3196B6
:10055000E032F10549F0660C771C881C991C569412
:10056000479437942794C3CFFA85EA892B893C892D
:100570008B859C85280F391F2E5F3F4F17C0CA01FE
:1005800081709070892B61F016950795F794E79428
:1005900080E090E0A0E0B0E8E82AF92A0A2B1B2BC3
:1005A00076956795579547952F5F3F4F77FDE7CF36
:1005B0000CC0440F551F661F771F17FD4160EE0CDE
:1005C000FF1C001F111F21503040403090E05907A0
:1005D00090E0690790E4790760F32B8F3C8FDB0193
:1005E000CA018F779070A070B07080349105A1051A
:1005F000B10561F447FD0AC0E114F10401051105DC
:1006000029F0405C5F4F6F4F7F4F40781A8EFE1786
:1006100011F081E08A8F4D8F5E8F6F8F78A383E01A
:10062000898FCE0149960E94FD03A096E2E10C94C9
:100630009D0EA8E1B0E0EFE1F3E00C948D0E69832C
:100640007A838B839C832D833E834F83588789E0F5
:10065000E82EF12CEC0EFD1ECE010196B7010E9492
:10066000D2048E010F5E1F4FCE010596B8010E9485
:10067000D2048985823040F08989823028F0C70110
:10068000B8010E944A0501C08FEF6896E6E00C941D
:10069000A90EA8E1B0E0EFE4F3E00C948D0E6983BD
:1006A0007A838B839C832D833E834F83588789E095
:1006B000E82EF12CEC0EFD1ECE010196B7010E9432
:1006C000D2048E010F5E1F4FCE010596B8010E9425
:1006D000D2048985823040F08989823028F0C701B0
:1006E000B8010E944A0501C08FEF6896E6E00C94BD
:1006F000A90EA8E1B0E0EFE7F3E00C948D0E69835A
:100700007A838B839C832D833E834F83588789E034
:10071000E82EF12CEC0EFD1ECE010196B7010E94D1
:10072000D2048E010F5E1F4FCE010596B8010E94C4
:10073000D2048985823040F08989823028F0C7014F
:10074000B8010E944A0501C081E06896E6E00C9479
:10075000A90EACE0B0E0EFEAF3E00C94910E6983EF
:100760007A838B839C83CE010196BE016B5F7F4FA2
:100770000E94D2048D81823061F1823050F1843048
:1007800021F48E81882351F12EC02F81388537FDC9
:1007900020C06E812F3131051CF06623F9F023C093
:1007A0008EE190E0821B930B29853A854B855C8511
:1007B00004C056954795379527958A95D2F76623B5
:1007C000B1F050954095309521953F4F4F4F5F4F79
:1007D0000EC020E030E040E050E009C02FEF3FEFD6
:1007E0004FEF5FE704C020E030E040E050E8B9019F
:1007F000CA012C96E2E00C94AD0EDF92EF92FF92CC
:100800000F931F93FC01E480F58006811781D1804E
:100810008081823048F480E090E0A0E1B0E0E82AF6
:10082000F92A0A2B1B2BA5C0843009F49FC0823003
:1008300021F4EE24FF24870105C0E114F104010531
:10084000110519F4E0E0F0E096C0628173819FEF3A
:10085000623879070CF05BC022E83FEF261B370BAC
:100860002A3131052CF020E030E040E050E02AC091
:10087000B801A701022E04C0769567955795479554
:100880000A94D2F781E090E0A0E0B0E004C0880FC5
:10089000991FAA1FBB1F2A95D2F70197A109B10979
:1008A0008E219F21A023B1230097A105B10521F03E
:1008B00081E090E0A0E0B0E09A01AB01282B392B59
:1008C0004A2B5B2BDA01C9018F779070A070B07052
:1008D00080349105A105B10539F427FF09C0205CDA
:1008E0003F4F4F4F5F4F04C0215C3F4F4F4F5F4F13
:1008F000E0E0F0E02030A0E03A07A0E04A07A0E402
:100900005A0710F0E1E0F0E079018A0127C0603871
:10091000710564F5FB01E158FF4FD801C7018F77DE
:100920009070A070B07080349105A105B10539F4C4
:10093000E7FE0DC080E490E0A0E0B0E004C08FE3EB
:1009400090E0A0E0B0E0E80EF91E0A1F1B1F17FFA1
:1009500005C016950795F794E794319687E01695AC
:100960000795F794E7948A95D1F705C0EE24FF2404
:100970008701EFEFF0E06E2F679566276795902F60
:100980009F77D794DD24D7948E2F8695492F462BB9
:10099000582F5D29B701CA011F910F91FF90EF9069
:1009A000DF900895FC01DB01408151812281622F9B
:1009B0006F7770E0221F2227221F9381892F880FD3
:1009C000822B282F30E0991F9927991F11969C930D
:1009D000119721153105A9F54115510561057105DD
:1009E00011F482E037C082E89FEF13969C938E93B8
:1009F00012979A01AB0167E0220F331F441F551F66
:100A00006A95D1F783E08C930DC0220F331F441FEA
:100A1000551F12968D919C911397019713969C9355
:100A20008E931297203080E0380780E0480780E4FA
:100A3000580758F314962D933D934D935C93179755
:100A400008952F3F310579F4411551056105710570
:100A500019F484E08C93089564FF03C081E08C93C3
:100A600012C01C9210C02F57304013963C932E9307
:100A7000129783E08C9387E0440F551F661F771F02
:100A80008A95D1F7706414964D935D936D937C9322
:100A9000179708951F93DC01FB019C91923008F495
:100AA00047C08081823008F443C0943051F41196DD
:100AB0001C91843099F58181682F70E0611B710968
:100AC0003FC0843021F0923031F48230B9F181811D
:100AD000882389F12DC011961C9111978230F1F075
:100AE00081811817D9F412962D913C911397828128
:100AF00093818217930794F028173907BCF0149656
:100B00008D919D910D90BC91A02D248135814681C0
:100B10005781281739074A075B0718F4112341F05A
:100B20000AC082179307A407B50740F4112319F0F0
:100B300061E070E005C06FEF7FEF02C060E070E041
:100B4000CB011F910895DF93CF9300D000D00F9277
:100B5000CDB7DEB79B838A8319828A819B810097F8
:100B600019F481E08983B9C2EA81FB81808186958D
:100B7000869586958770282F30E03D832C838C8165
:100B80009D818330910509F41CC12C813D81243065
:100B900031058CF48C819D818130910509F473C0FD
:100BA0002C813D81223031050CF0BCC08C819D81AF
:100BB0000097D1F090C22C813D812530310509F498
:100BC0009EC18C819D81853091050CF449C12C8199
:100BD0003D812630310509F4E1C18C819D8187304A
:100BE000910509F42AC277C2EA81FB818081807471
:100BF000882309F1EA81FB8180818770882F90E04A
:100C0000880F991FFC01E859FF4FA081B181EA814B
:100C1000FB8180818770882F90E0880F991FFC01ED
:100C2000E859FF4F0190F081E02D81818E7F119670
:100C30008C93119752C2EA81FB8180818074882352
:100C400009F04BC2EA81FB8180818770882F90E098
:100C5000880F991FFC01E859FF4FA081B181EA81FB
:100C6000FB8180818770882F90E0880F991FFC019D
:100C7000E859FF4F0190F081E02D8181816011964C
:100C80008C9311972AC2EA81FB818081807488232A
:100C900009F1EA81FB8180818770882F90E0880FBD
:100CA000991FFC01E859FF4FA081B181EA81FB81C6
:100CB00080818770882F90E0880F991FFC01E85988
:100CC000FF4F0190F081E02D81818D7F11968C93F3
:100CD000119703C2EA81FB8180818074882309F027
:100CE000FCC1EA81FB8180818770882F90E0880FAA
:100CF000991FFC01E859FF4FA081B181EA81FB8176
:100D000080818770882F90E0880F991FFC01E85937
:100D1000FF4F0190F081E02D8181826011968C93CC
:100D20001197DBC1EA81FB8180818074882309F1FE
:100D3000EA81FB8180818770882F90E0880F991F5E
:100D4000FC01E859FF4FA081B181EA81FB818081DC
:100D50008770882F90E0880F991FFC01E859FF4F9A
:100D60000190F081E02D81818B7F11968C931197FA
:100D7000B4C1EA81FB8180818074882309F0ADC110
:100D8000EA81FB8180818770882F90E0880F991F0E
:100D9000FC01E859FF4FA081B181EA81FB8180818C
:100DA0008770882F90E0880F991FFC01E859FF4F4A
:100DB0000190F081E02D8181846011968C931197D0
:100DC0008CC1EA81FB8180818074882309F1EA81EA
:100DD000FB8180818770882F90E0880F991FFC012C
:100DE000E859FF4FA081B181EA81FB818081877042
:100DF000882F90E0880F991FFC01E859FF4F019060
:100E0000F081E02D8181877F11968C93119765C1C8
:100E1000EA81FB8180818074882309F05EC1EA81C8
:100E2000FB8180818770882F90E0880F991FFC01DB
:100E3000E859FF4FA081B181EA81FB8180818770F1
:100E4000882F90E0880F991FFC01E859FF4F01900F
:100E5000F081E02D8181886011968C9311973DC1BE
:100E6000EA81FB8180818074882309F1EA81FB811A
:100E700080818770882F90E0880F991FFC01E859C6
:100E8000FF4FA081B181EA81FB8180818770882F2B
:100E900090E0880F991FFC01E859FF4F0190F08105
:100EA000E02D81818F7E11968C93119716C1EA8176
:100EB000FB8180818074882309F00FC1EA81FB8166
:100EC00080818770882F90E0880F991FFC01E85976
:100ED000FF4FA081B181EA81FB8180818770882FDB
:100EE00090E0880F991FFC01E859FF4F0190F081B5
:100EF000E02D8181806111968C931197EEC0EA817B
:100F0000FB8180818074882309F1EA81FB818081E3
:100F10008770882F90E0880F991FFC01E859FF4FD8
:100F2000A081B181EA81FB8180818770882F90E068
:100F3000880F991FFC01E859FF4F0190F081E02DC7
:100F400081818F7D11968C931197C7C0EA81FB81B7
:100F500080818074882309F0C0C0EA81FB81808190
:100F60008770882F90E0880F991FFC01E859FF4F88
:100F7000A081B181EA81FB8180818770882F90E018
:100F8000880F991FFC01E859FF4F0190F081E02D77
:100F90008181806211968C9311979FC0EA81FB81B9
:100FA00080818074882309F1EA81FB8180818770C8
:100FB000882F90E0880F991FFC01E859FF4FA0810E
:100FC000B181EA81FB8180818770882F90E0880F52
:100FD000991FFC01E859FF4F0190F081E02D8181BC
:100FE0008F7B11968C93119778C0EA81FB81808169
:100FF0008074882309F071C0EA81FB818081877049
:10100000882F90E0880F991FFC01E859FF4FA081BD
:10101000B181EA81FB8180818770882F90E0880F01
:10102000991FFC01E859FF4F0190F081E02D81816B
:10103000806411968C93119750C0EA81FB81808166
:101040008074882309F1EA81FB8180818770882F71
:1010500090E0880F991FFC01E859FF4FA081B181F2
:10106000EA81FB8180818770882F90E0880F991F2B
:10107000FC01E859FF4F0190F081E02D81818F77CD
:1010800011968C93119729C0EA81FB81808180742D
:10109000882319F5EA81FB8180818770882F90E091
:1010A000880F991FFC01E859FF4FA081B181EA81A7
:1010B000FB8180818770882F90E0880F991FFC0149
:1010C000E859FF4F0190F081E02D818180681196F1
:1010D0008C93119702C081E0898389810F900F90D2
:1010E0000F900F900F90CF91DF910895DF93CF93E2
:1010F00000D000D000D0CDB7DEB79B838A836C834D
:1011000019828A819B81009719F481E0898389C2C1
:10111000EA81FB8180818695869586958770282F48
:1011200030E03E832D838D819E818330910509F4CB
:101130000AC12D813E81243031058CF48D819E8140
:101140008130910509F46DC02D813E812230310539
:101150000CF0B0C08D819E810097D1F060C22D81CE
:101160003E812530310509F480C18D819E81853015
:1011700091050CF431C12D813E812630310509F4F1
:10118000BDC18D819E818730910509F400C247C29F
:101190008C81813009F5EA81FB8180818770882FFD
:1011A00090E0880F991FFC01E859FF4FA081B181A1
:1011B000EA81FB8180818770882F90E0880F991FDA
:1011C000FC01E859FF4F0190F081E02D82818160A0
:1011D00012968C93129725C28C81882309F021C224
:1011E000EA81FB8180818770882F90E0880F991FAA
:1011F000FC01E859FF4FA081B181EA81FB81808128
:101200008770882F90E0880F991FFC01E859FF4FE5
:101210000190F081E02D82818E7F12968C9312973F
:1012200000C28C81813009F5EA81FB818081877061
:10123000882F90E0880F991FFC01E859FF4FA0818B
:10124000B181EA81FB8180818770882F90E0880FCF
:10125000991FFC01E859FF4F0190F081E02D828138
:10126000816012968C931297DCC18C81882309F0DF
:10127000D8C1EA81FB8180818770882F90E0880F38
:10128000991FFC01E859FF4FA081B181EA81FB81E0
:1012900080818770882F90E0880F991FFC01E859A2
:1012A000FF4F0190F081E02D82818E7F12968C930A
:1012B0001297B7C18C81813009F5EA81FB81808169
:1012C0008770882F90E0880F991FFC01E859FF4F25
:1012D000A081B181EA81FB8180818770882F90E0B5
:1012E000880F991FFC01E859FF4F0190F081E02D14
:1012F0008281816012968C93129793C18C8188238E
:1013000009F08FC1EA81FB8180818770882F90E08E
:10131000880F991FFC01E859FF4FA081B181EA8134
:10132000FB8180818770882F90E0880F991FFC01D6
:10133000E859FF4F0190F081E02D82818E7F129657
:101340008C9312976EC18C81813009F5EA81FB8103
:1013500080818770882F90E0880F991FFC01E859E1
:10136000FF4FA081B181EA81FB8180818770882F46
:1013700090E0880F991FFC01E859FF4F0190F08120
:10138000E02D8281816012968C9312974AC18C81E4
:10139000882309F046C1EA81FB8180818770882F0C
:1013A00090E0880F991FFC01E859FF4FA081B1819F
:1013B000EA81FB8180818770882F90E0880F991FD8
:1013C000FC01E859FF4F0190F081E02D82818E7F72
:1013D00012968C93129725C18C81813009F5EA8190
:1013E000FB8180818770882F90E0880F991FFC0116
:1013F000E859FF4FA081B181EA81FB81808187702C
:10140000882F90E0880F991FFC01E859FF4F019049
:10141000F081E02D8281816012968C93129701C138
:101420008C81882309F0FDC0EA81FB81808187706F
:10143000882F90E0880F991FFC01E859FF4FA08189
:10144000B181EA81FB8180818770882F90E0880FCD
:10145000991FFC01E859FF4F0190F081E02D828136
:101460008E7F12968C931297DCC08C81813009F5A7
:10147000EA81FB8180818770882F90E0880F991F17
:10148000FC01E859FF4FA081B181EA81FB81808195
:101490008770882F90E0880F991FFC01E859FF4F53
:1014A0000190F081E02D8281816012968C931297D9
:1014B000B8C08C81882309F0B4C0EA81FB818081A7
:1014C0008770882F90E0880F991FFC01E859FF4F23
:1014D000A081B181EA81FB8180818770882F90E0B3
:1014E000880F991FFC01E859FF4F0190F081E02D12
:1014F00082818E7F12968C93129793C08C8181305B
:1015000009F5EA81FB8180818770882F90E0880F40
:10151000991FFC01E859FF4FA081B181EA81FB814D
:1015200080818770882F90E0880F991FFC01E8590F
:10153000FF4F0190F081E02D8281816012968C93A3
:1015400012976FC08C81882309F06BC0EA81FB8100
:1015500080818770882F90E0880F991FFC01E859DF
:10156000FF4FA081B181EA81FB8180818770882F44
:1015700090E0880F991FFC01E859FF4F0190F0811E
:10158000E02D82818E7F12968C9312974AC08C81B7
:10159000813009F5EA81FB8180818770882F90E096
:1015A000880F991FFC01E859FF4FA081B181EA81A2
:1015B000FB8180818770882F90E0880F991FFC0144
:1015C000E859FF4F0190F081E02D828181601296F1
:1015D0008C93129726C08C81882319F5EA81FB81B0
:1015E00080818770882F90E0880F991FFC01E8594F
:1015F000FF4FA081B181EA81FB8180818770882FB4
:1016000090E0880F991FFC01E859FF4F0190F0818D
:10161000E02D82818E7F12968C93129702C081E01A
:101620008983898126960FB6F894DEBF0FBECDBFA1
:10163000CF91DF910895DF93CF93CDB7DEB7279792
:101640000FB6F894DEBF0FBECDBF9B838A837D8328
:101650006C8319828A819B81009721F08C819D8106
:10166000009719F481E08983EFC0EA81FB818081D2
:101670008695869586958770282F30E03F832E8348
:101680008E819F818330910509F46DC02E813F8149
:101690002430310584F48E819F8181309105C1F120
:1016A0002E813F81223031050CF047C08E819F8111
:1016B0000097D1F0C9C02E813F812530310509F452
:1016C0007FC08E819F81853091050CF463C02E818F
:1016D0003F812630310509F48AC08E819F81873091
:1016E000910509F49CC0B0C0EA81FB8180818770BC
:1016F000882F90E0880F991FFC01E859FF4F019057
:10170000F081E02D80818170EC81FD8180839CC01F
:10171000EA81FB8180818770882F90E0880F991F74
:10172000FC01E859FF4F0190F081E02D8081869502
:101730008170EC81FD81808387C0EA81FB8180819B
:101740008770882F90E0880F991FFC01E859FF4FA0
:101750000190F081E02D8081869586958170EC81E5
:10176000FD81808371C0EA81FB8180818770882F31
:1017700090E0880F991FFC01E859FF4F0190F0811C
:10178000E02D80818695869586958170EC81FD811E
:1017900080835AC0EA81FB8180818770882F90E026
:1017A000880F991FFC01E859FF4F0190F081E02D4F
:1017B000808182958F708170EC81FD81808344C02F
:1017C000EA81FB8180818770882F90E0880F991FC4
:1017D000FC01E859FF4F0190F081E02D8081829556
:1017E000869587708170EC81FD8180832DC0EA81B0
:1017F000FB8180818770882F90E0880F991FFC0102
:10180000E859FF4F0190F081E02D80818295869507
:10181000869583708170EC81FD81808315C0EA819B
:10182000FB8180818770882F90E0880F991FFC01D1
:10183000E859FF4F0190F081E02D8081881F8827B3
:10184000881FEC81FD818083898127960FB6F894EB
:10185000DEBF0FBECDBFCF91DF910895DF93CF9351
:1018600000D00F92CDB7DEB78A836B8319828A814D
:10187000882F90E0880F991FFC01E859FF4F0190D5
:10188000F081E02D8B81818389810F900F900F90E3
:10189000CF91DF910895DF93CF9300D00F92CDB712
:1018A000DEB78A836B8319828A81882F90E0880F44
:1018B000991FFC01E859FF4F0190F081E02D8B81C9
:1018C000828389810F900F900F90CF91DF910895BF
:1018D000DF93CF9300D000D0CDB7DEB78A837C836F
:1018E0006B8319828B819C81009719F481E0898335
:1018F0000FC08A81882F90E0880F991FFC01E8595A
:10190000FF4F0190F081E02D8081EB81FC8180838D
:1019100089810F900F900F900F90CF91DF910895D4
:10192000DF93CF9300D00F92CDB7DEB79B838A832E
:1019300019828A819B81009719F481E0898317C0FD
:101940008A819B810E94A30589838A819B8101965C
:101950000E94A30589838A819B8102960E94A30528
:1019600089838A819B8103960E94A305898389814B
:101970000F900F900F90CF91DF910895DF93CF9349
:1019800000D000D0CDB7DEB79B838A836C831982E9
:101990008A819B81009719F08C818A3018F081E050
:1019A000898337C02A813B818C81482F4170C901CE
:1019B000642F0E94760889838A819B819C012F5F16
:1019C0003F4F8C818695482F4170C901642F0E943A
:1019D000760889838A819B819C012E5F3F4F8C8191
:1019E00086958695482F4170C901642F0E9476081C
:1019F00089838A819B819C012D5F3F4F8C818695D5
:101A000086958695482F4170C901642F0E947608FB
:101A1000898389810F900F900F900F90CF91DF9164
:101A20000895DF93CF9300D000D00F92CDB7DEB7EB
:101A30009D838C831B821A8219828C819D810097E1
:101A400019F481E08B8324C01A820DC02C813D8162
:101A50008A81882F90E0820F931F0E94A3058B83B9
:101A60008A818F5F8A838A81843080F319820DC0D6
:101A70002C813D818981882F90E0820F931F0E94E5
:101A8000A3058B8389818F5F89838981843080F36B
:101A90008B810F900F900F900F900F90CF91DF914F
:101AA0000895DF93CF93CDB7DEB729970FB6F8949B
:101AB000DEBF0FBECDBF9F838E83798768871C8270
:101AC0001B821A8219821D828E819F81009719F4D0
:101AD00081E08C8357C01B8251C019820EC02E81B9
:101AE0003F818981882F90E0820F931F60E00E94E0
:101AF00076088C8389818F5F89838981843078F32C
:101B00002E813F818B81882F90E0820F931F61E0AF
:101B10000E9476088C831A822BC08E819F819C0143
:101B20002C5F3F4F8A81882F90E0820F931F9E0188
:101B30002B5F3F4FB9010E941B0B8C838D8181303D
:101B4000A1F48B81482F50E08A81282F30E0CA0110
:101B5000880F991F880F991F820F931FFC01E1586E
:101B6000FF4F8081E885F98580838A818F5F8A8332
:101B70008A81843090F28B818F5F8B838B8184305C
:101B800008F4ABCF8C8129960FB6F894DEBF0FBE58
:101B9000CDBFCF91DF910895DF93CF93CDB7DEB75F
:101BA0002E970FB6F894DEBF0FBECDBF8DE790E045
:101BB0000E94A305809390008EE790E00E94A30509
:101BC000809390008DE790E061E00E94760880931A
:101BD00090008EE790E061E00E947608809390008C
:101BE00080E790E00E94900C8093900085E790E061
:101BF0000E94110D8093900085E790E021E930E08C
:101C0000B9010E94510D8093900080E090E0A0E225
:101C1000B1E48B879C87AD87BE876B857C858D857E
:101C20009E8520E030E04AE755E40E941F02DC0177
:101C3000CB018F839887A987BA876F81788589853B
:101C40009A8520E030E040E85FE30E947903882332
:101C50002CF481E090E09E838D833FC06F81788576
:101C600089859A8520E03FEF4FE757E40E941903EA
:101C700018164CF56B857C858D859E8520E030E0BF
:101C800040E251E40E941F02DC01CB01BC01CD0106
:101C90000E944900DC01CB019E838D830FC080E947
:101CA00091E09C838B838B819C810197F1F79C83CE
:101CB0008B838D819E8101979E838D838D819E81F3
:101CC000009769F714C06F81788589859A850E948D
:101CD0004900DC01CB019E838D838D819E819A8397
:101CE000898389819A810197F1F79A838983209169
:101CF000910080E790E0622F0E94BE0C80939000DC
:101D00007BCF2F923F924F925F926F927F928F92F2
:101D10009F92AF92BF92CF92DF92EF92FF920F937A
:101D20001F93CF93DF93CDB7DEB7CA1BDB0B0FB684
:101D3000F894DEBF0FBECDBF09942A883988488841
:101D40005F846E847D848C849B84AA84B984C884D7
:101D5000DF80EE80FD800C811B81AA81B981CE0FCE
:101D6000D11D0FB6F894DEBF0FBECDBFED010895B3
:041D7000F894FFCF15
:101D7400000000000000000039003600330030008D
:101D8400C1C9D1E1006A625A523B332B1BD8D0013E
:101D940002030405060708090A0B0C0D0E0F1000B8
:00000001FF
