:100000000C942A000C9447000C9447000C94470071
:100010000C9447000C9447000C9447000C94470044
:100020000C9447000C9447000C9447000C94470034
:100030000C9447000C9447000C9447000C94470024
:100040000C9447000C9447000C9447000C94470014
:100050000C94470011241FBECFE5D8E0DEBFCDBF12
:1000600010E0A0E6B0E0EEE9F7E102C005900D92E5
:10007000A039B107D9F710E0A0E9B0E001C01D92A6
:10008000A239B107E1F70E94E10A0C94CD0B0C9460
:100090000000EF92FF920F931F937B018C0120E0F1
:1000A00030E040E05FE40E94490388238CF0C801FF
:1000B000B70120E030E040E05FE40E94C1010E940F
:1000C000A9039B01AC01205030404040504806C07D
:1000D000C801B7010E94A9039B01AC01B901CA0183
:1000E0001F910F91FF90EF900895A0E0B0E0EBE733
:1000F000F0E00C94960BDC012B01FA019C919230FC
:1001000008F439C1EB018881823008F433C194309E
:1001100069F4843009F02FC111969C91119789815F
:10012000981709F428C1A0E6B0E025C1843009F48D
:1001300021C18230A9F4923009F01DC19A01AD01AC
:1001400088E0EA010990AE01E90109929E0181501F
:10015000C1F7E201898111969C918923818308C1AD
:10016000923009F407C112962D903C901397EB0141
:100170008A819B811496AD90BD90CD90DC901797AD
:10018000EC80FD800E811F819101281B390BB90184
:1001900037FF04C066277727621B730B6032710537
:1001A0000CF061C0121613066CF537014801062EDB
:1001B00004C096948794779467940A94D2F721E0C8
:1001C00030E040E050E004C0220F331F441F551FB1
:1001D0006A95D2F721503040404050402E213F21B7
:1001E00040235123211531054105510521F021E01E
:1001F00030E040E050E079018A01E628F72808293C
:1002000019293CC0232BD1F1260E371E350146019A
:10021000062E04C096948794779467940A94D2F734
:1002200021E030E040E050E004C0220F331F441FC3
:10023000551F6A95D2F721503040404050402A2146
:100240003B214C215D21211531054105510521F04E
:1002500021E030E040E050E059016A01A628B728CB
:10026000C828D9280BC0821593052CF01C01AA249C
:10027000BB24650103C0EE24FF24870111969C91E5
:10028000D20111968C91981709F445C0992339F041
:10029000A80197012A193B094C095D0906C0A6016E
:1002A00095012E193F09400B510B57FD08C01182D3
:1002B0003382228224833583468357831DC081E0A5
:1002C00081833382228288279927DC01821B930B4A
:1002D000A40BB50B84839583A683B7830DC0220F2F
:1002E000331F441F551F24833583468357838281E0
:1002F000938101979383828324813581468157813D
:10030000DA01C9010197A109B1098F5F9F4FAF4F72
:10031000BF4328F30BC0918333822282EA0CFB1C7B
:100320000C1D1D1DE482F5820683178383E0808304
:10033000248135814681578157FF1AC0C901AA27F8
:1003400097FDA095BA2F81709070A070B0705695EF
:10035000479537952795822B932BA42BB52B848318
:100360009583A683B7838281938101969383828349
:10037000DF0101C0D201CD01CDB7DEB7E2E10C94BF
:10038000B20BA0E2B0E0E7ECF1E00C94A20B6983C1
:100390007A838B839C832D833E834F835887E9E048
:1003A000EE2EF12CEC0EFD1ECE010196B7010E943F
:1003B000D2048E010F5E1F4FCE010596B8010E9438
:1003C000D2048A8991E089278A8BC701B801AE01DE
:1003D000475E5F4F0E9475000E94FD03A096E6E015
:1003E0000C94BE0BA0E2B0E0E8EFF1E00C94A20B9D
:1003F00069837A838B839C832D833E834F835887C5
:10040000F9E0EF2EF12CEC0EFD1ECE010196B701A6
:100410000E94D2048E010F5E1F4FCE010596B801D7
:100420000E94D204C701B801AE01475E5F4F0E942F
:1004300075000E94FD03A096E6E00C94BE0BA0E2BE
:10044000B0E0E5E2F2E00C94960B69837A838B834B
:100450009C832D833E834F835887CE010196BE0136
:10046000675F7F4F0E94D204CE010596BE016F5E8A
:100470007F4F0E94D2049985923088F0898982301A
:10048000C8F0943019F4823051F404C0843029F457
:10049000923081F480E690E0C6C0923049F420E0CA
:1004A0009A858A89981321E02A87CE010996BBC0D4
:1004B000823049F420E09A858A89981321E02A8BBA
:1004C000CE014196B0C02D843E844F8458886D88FB
:1004D0007E888F88988CEE24FF248701AA24BB2471
:1004E000650140E050E060E070E0E0E0F0E0C10174
:1004F00081709070892BE9F0E60CF71C081D191D1E
:100500009A01AB012A0D3B1D4C1D5D1D80E090E062
:10051000A0E0B0E0E614F7040805190520F481E036
:1005200090E0A0E0B0E0BA01A901480F591F6A1F8E
:100530007B1FAA0CBB1CCC1CDD1C97FE08C081E0F5
:1005400090E0A0E0B0E0A82AB92ACA2ADB2A3196B6
:10055000E032F10549F0660C771C881C991C569412
:10056000479437942794C3CFFA85EA892B893C892D
:100570008B859C85280F391F2E5F3F4F17C0CA01FE
:1005800081709070892B61F016950795F794E79428
:1005900080E090E0A0E0B0E8E82AF92A0A2B1B2BC3
:1005A00076956795579547952F5F3F4F77FDE7CF36
:1005B0000CC0440F551F661F771F17FD4160EE0CDE
:1005C000FF1C001F111F21503040403090E05907A0
:1005D00090E0690790E4790760F32B8F3C8FDB0193
:1005E000CA018F779070A070B07080349105A1051A
:1005F000B10561F447FD0AC0E114F10401051105DC
:1006000029F0405C5F4F6F4F7F4F40781A8EFE1786
:1006100011F081E08A8F4D8F5E8F6F8F78A383E01A
:10062000898FCE0149960E94FD03A096E2E10C94C9
:10063000B20BA8E1B0E0EFE1F3E00C94A20B698308
:100640007A838B839C832D833E834F83588789E0F5
:10065000E82EF12CEC0EFD1ECE010196B7010E9492
:10066000D2048E010F5E1F4FCE010596B8010E9485
:10067000D2048985823040F08989823028F0C70110
:10068000B8010E944A0501C08FEF6896E6E00C941D
:10069000BE0BA8E1B0E0EFE4F3E00C94A20B698399
:1006A0007A838B839C832D833E834F83588789E095
:1006B000E82EF12CEC0EFD1ECE010196B7010E9432
:1006C000D2048E010F5E1F4FCE010596B8010E9425
:1006D000D2048985823040F08989823028F0C701B0
:1006E000B8010E944A0501C08FEF6896E6E00C94BD
:1006F000BE0BA8E1B0E0EFE7F3E00C94A20B698336
:100700007A838B839C832D833E834F83588789E034
:10071000E82EF12CEC0EFD1ECE010196B7010E94D1
:10072000D2048E010F5E1F4FCE010596B8010E94C4
:10073000D2048985823040F08989823028F0C7014F
:10074000B8010E944A0501C081E06896E6E00C9479
:10075000BE0BACE0B0E0EFEAF3E00C94A60B6983CB
:100760007A838B839C83CE010196BE016B5F7F4FA2
:100770000E94D2048D81823061F1823050F1843048
:1007800021F48E81882351F12EC02F81388537FDC9
:1007900020C06E812F3131051CF06623F9F023C093
:1007A0008EE190E0821B930B29853A854B855C8511
:1007B00004C056954795379527958A95D2F76623B5
:1007C000B1F050954095309521953F4F4F4F5F4F79
:1007D0000EC020E030E040E050E009C02FEF3FEFD6
:1007E0004FEF5FE704C020E030E040E050E8B9019F
:1007F000CA012C96E2E00C94C20BDF92EF92FF92BA
:100800000F931F93FC01E480F58006811781D1804E
:100810008081823048F480E090E0A0E1B0E0E82AF6
:10082000F92A0A2B1B2BA5C0843009F49FC0823003
:1008300021F4EE24FF24870105C0E114F104010531
:10084000110519F4E0E0F0E096C0628173819FEF3A
:10085000623879070CF05BC022E83FEF261B370BAC
:100860002A3131052CF020E030E040E050E02AC091
:10087000B801A701022E04C0769567955795479554
:100880000A94D2F781E090E0A0E0B0E004C0880FC5
:10089000991FAA1FBB1F2A95D2F70197A109B10979
:1008A0008E219F21A023B1230097A105B10521F03E
:1008B00081E090E0A0E0B0E09A01AB01282B392B59
:1008C0004A2B5B2BDA01C9018F779070A070B07052
:1008D00080349105A105B10539F427FF09C0205CDA
:1008E0003F4F4F4F5F4F04C0215C3F4F4F4F5F4F13
:1008F000E0E0F0E02030A0E03A07A0E04A07A0E402
:100900005A0710F0E1E0F0E079018A0127C0603871
:10091000710564F5FB01E158FF4FD801C7018F77DE
:100920009070A070B07080349105A105B10539F4C4
:10093000E7FE0DC080E490E0A0E0B0E004C08FE3EB
:1009400090E0A0E0B0E0E80EF91E0A1F1B1F17FFA1
:1009500005C016950795F794E794319687E01695AC
:100960000795F794E7948A95D1F705C0EE24FF2404
:100970008701EFEFF0E06E2F679566276795902F60
:100980009F77D794DD24D7948E2F8695492F462BB9
:10099000582F5D29B701CA011F910F91FF90EF9069
:1009A000DF900895FC01DB01408151812281622F9B
:1009B0006F7770E0221F2227221F9381892F880FD3
:1009C000822B282F30E0991F9927991F11969C930D
:1009D000119721153105A9F54115510561057105DD
:1009E00011F482E037C082E89FEF13969C938E93B8
:1009F00012979A01AB0167E0220F331F441F551F66
:100A00006A95D1F783E08C930DC0220F331F441FEA
:100A1000551F12968D919C911397019713969C9355
:100A20008E931297203080E0380780E0480780E4FA
:100A3000580758F314962D933D934D935C93179755
:100A400008952F3F310579F4411551056105710570
:100A500019F484E08C93089564FF03C081E08C93C3
:100A600012C01C9210C02F57304013963C932E9307
:100A7000129783E08C9387E0440F551F661F771F02
:100A80008A95D1F7706414964D935D936D937C9322
:100A9000179708951F93DC01FB019C91923008F495
:100AA00047C08081823008F443C0943051F41196DD
:100AB0001C91843099F58181682F70E0611B710968
:100AC0003FC0843021F0923031F48230B9F181811D
:100AD000882389F12DC011961C9111978230F1F075
:100AE00081811817D9F412962D913C911397828128
:100AF00093818217930794F028173907BCF0149656
:100B00008D919D910D90BC91A02D248135814681C0
:100B10005781281739074A075B0718F4112341F05A
:100B20000AC082179307A407B50740F4112319F0F0
:100B300061E070E005C06FEF7FEF02C060E070E041
:100B4000CB011F910895DF93CF9300D000D00F9277
:100B5000CDB7DEB79B838A8319828A819B810097F8
:100B600019F481E0898350C1EA81FB8180818695F7
:100B7000869586958770282F30E03D832C838C8165
:100B80009D818330910509F492C02C813D812430F0
:100B900031058CF48C819D818130910509F444C02C
:100BA0002C813D81223031050CF05FC08C819D810C
:100BB0000097D1F029C12C813D812530310509F400
:100BC000BBC08C819D81853091050CF493C02C8134
:100BD0003D812630310509F4D2C08C819D8187305A
:100BE000910509F4F0C010C1EA81FB818081877012
:100BF000882F90E0880F991FFC01E859FF4FA081D2
:100C0000B181EA81FB81808182958695869583708A
:100C10008170982F917011968C9111978E7F892BEE
:100C200011968C931197F0C0EA81FB8180818770C7
:100C3000882F90E0880F991FFC01E859FF4FA08191
:100C4000B181EA81FB81808182958695869583704A
:100C500081708170982F990F11968C9111978D7FCB
:100C6000892B11968C931197CFC0EA81FB818081EB
:100C70008770882F90E0880F991FFC01E859FF4F7B
:100C8000A081B181EA81FB818081829586958695DC
:100C9000837081708170982F990F990F11968C91A4
:100CA00011978B7F892B11968C931197ADC0EA8198
:100CB000FB8180818770882F90E0880F991FFC014D
:100CC000E859FF4FA081B181EA81FB818081829543
:100CD00086958695837081708170982F990F990FF2
:100CE000990F11968C911197877F892B11968C9370
:100CF00011978AC0EA81FB8180818770882F90E0FC
:100D0000880F991FFC01E859FF4FA081B181EA814A
:100D1000FB81808182958695869583708170817034
:100D2000982F9295907F11968C9111978F7E892B99
:100D300011968C93119768C0EA81FB81808187703E
:100D4000882F90E0880F991FFC01E859FF4FA08180
:100D5000B181EA81FB818081829586958695837039
:100D600081708170982F9295990F907E11968C9139
:100D700011978F7D892B11968C93119745C0EA812D
:100D8000FB8180818770882F90E0880F991FFC017C
:100D9000E859FF4FA081B181EA81FB818081829572
:100DA00086958695837081708170982F9295990FA2
:100DB000990F907C11968C9111978F7B892B1196AE
:100DC0008C93119721C0EA81FB8180818770882FE5
:100DD00090E0880F991FFC01E859FF4FA081B18175
:100DE000EA81FB81808182958695869583708170EA
:100DF000982F97959927979511968C9111978F77A2
:100E0000892B11968C93119789810F900F900F90D9
:100E10000F900F90CF91DF910895DF93CF9300D083
:100E200000D000D0CDB7DEB79B838A836C83198254
:100E30008A819B81009719F481E0898307C1EA8147
:100E4000FB8180818695869586958770282F30E076
:100E50003E832D838D819E818330910509F476C078
:100E60002D813E812430310584F48D819E81813035
:100E70009105D9F12D813E81223031050CF04DC014
:100E80008D819E810097D1F0E1C02D813E8125307A
:100E9000310509F48EC08D819E81853091050CF459
:100EA0006FC02D813E812630310509F49CC08D81B3
:100EB0009E818730910509F4B1C0C8C0EA81FB81E9
:100EC00080818770882F90E0880F991FFC01E85976
:100ED000FF4F0190F081E02D8C818170982F9170EF
:100EE00082818E7F892B8283B1C0EA81FB818081E0
:100EF0008770882F90E0880F991FFC01E859FF4FF9
:100F00000190F081E02D8C8181708170982F990F74
:100F100082818D7F892B828399C0EA81FB818081C8
:100F20008770882F90E0880F991FFC01E859FF4FC8
:100F30000190F081E02D8C8181708170982F990F44
:100F4000990F82818B7F892B828380C0EA81FB810C
:100F500080818770882F90E0880F991FFC01E859E5
:100F6000FF4F0190F081E02D8C8181708170982F6E
:100F7000990F990F990F8281877F892B828366C091
:100F8000EA81FB8180818770882F90E0880F991F0C
:100F9000FC01E859FF4F0190F081E02D8C818170B8
:100FA0008170982F9295907F82818F7E892B82838A
:100FB0004DC0EA81FB8180818770882F90E0880F87
:100FC000991FFC01E859FF4F0190F081E02D8C81C1
:100FD00081708170982F9295990F907E82818F7D7C
:100FE000892B828333C0EA81FB8180818770882FBF
:100FF00090E0880F991FFC01E859FF4F0190F081A4
:10100000E02D8C8181708170982F9295990F990FA6
:10101000907C82818F7B892B828318C0EA81FB813F
:1010200080818770882F90E0880F991FFC01E85914
:10103000FF4F0190F081E02D8C818170982F979562
:101040009927979582818F77892B8283898126962C
:101050000FB6F894DEBF0FBECDBFCF91DF910895DC
:10106000DF93CF93CDB7DEB727970FB6F894DEBFE7
:101070000FBECDBF9B838A837D836C8319828A8157
:101080009B81009721F08C819D81009719F481E06C
:101090008983EFC0EA81FB8180818695869586955C
:1010A0008770282F30E03F832E838E819F8183308D
:1010B000910509F46DC02E813F812430310584F4FF
:1010C0008E819F8181309105C1F12E813F81223037
:1010D00031050CF047C08E819F810097D1F0C9C0C7
:1010E0002E813F812530310509F47FC08E819F819B
:1010F000853091050CF463C02E813F812630310587
:1011000009F48AC08E819F818730910509F49CC0C3
:10111000B0C0EA81FB8180818770882F90E0880FC2
:10112000991FFC01E859FF4F0190F081E02D80816B
:101130008170EC81FD8180839CC0EA81FB8180818C
:101140008770882F90E0880F991FFC01E859FF4FA6
:101150000190F081E02D808186958170EC81FD8188
:10116000808387C0EA81FB8180818770882F90E02F
:10117000880F991FFC01E859FF4F0190F081E02D85
:101180008081869586958170EC81FD81808371C018
:10119000EA81FB8180818770882F90E0880F991FFA
:1011A000FC01E859FF4F0190F081E02D8081869588
:1011B000869586958170EC81FD8180835AC0EA8195
:1011C000FB8180818770882F90E0880F991FFC0138
:1011D000E859FF4F0190F081E02D808182958F705A
:1011E0008170EC81FD81808344C0EA81FB81808134
:1011F0008770882F90E0880F991FFC01E859FF4FF6
:101200000190F081E02D80818295869587708170B4
:10121000EC81FD8180832DC0EA81FB818081877014
:10122000882F90E0880F991FFC01E859FF4F01902B
:10123000F081E02D808182958695869583708170FE
:10124000EC81FD81808315C0EA81FB8180818770FC
:10125000882F90E0880F991FFC01E859FF4F0190FB
:10126000F081E02D8081881F8827881FEC81FD8117
:101270008083898127960FB6F894DEBF0FBECDBF5D
:10128000CF91DF910895DF93CF9300D00F92CDB728
:10129000DEB78A836B8319828A81882F90E0880F5A
:1012A000991FFC01E859FF4F0190F081E02D8B81DF
:1012B000818389810F900F900F90CF91DF910895D6
:1012C000DF93CF9300D00F92CDB7DEB78A836B83C5
:1012D00019828A81882F90E0880F991FFC01E859B4
:1012E000FF4F0190F081E02D8B81828389810F90E7
:1012F0000F900F90CF91DF910895DF93CF9300D09F
:1013000000D0CDB7DEB78A837C836B8319828B8153
:101310009C81009719F481E089830FC08A81882F0E
:1013200090E0880F991FFC01E859FF4F0190F08170
:10133000E02D8081EB81FC81808389810F900F906B
:101340000F900F90CF91DF910895DF93CF9300D04E
:101350000F92CDB7DEB79B838A8319828A819B81E6
:10136000009719F481E0898317C08A819B810E94CC
:10137000A30589838A819B8101960E94A3058983A5
:101380008A819B8102960E94A30589838A819B8121
:1013900003960E94A305898389810F900F900F9077
:1013A000CF91DF910895DF93CF9300D000D0CDB7D8
:1013B000DEB79B838A836C8319828A819B81009725
:1013C00019F08C818A3018F081E0898337C02A8136
:1013D0003B818C81482F4170C901642F0E940D0709
:1013E00089838A819B819C012F5F3F4F8C818695E9
:1013F000482F4170C901642F0E940D0789838A819B
:101400009B819C012E5F3F4F8C8186958695482F4E
:101410004170C901642F0E940D0789838A819B81D5
:101420009C012D5F3F4F8C81869586958695482F30
:101430004170C901642F0E940D07898389810F9033
:101440000F900F900F90CF91DF910895DF93CF937E
:1014500000D000D00F92CDB7DEB79D838C831B8266
:101460001A8219828C819D81009719F481E08B8307
:1014700024C01A820DC02C813D818A81882F90E082
:10148000820F931F0E94A3058B838A818F5F8A83BB
:101490008A81843080F319820DC02C813D8189813D
:1014A000882F90E0820F931F0E94A3058B83898170
:1014B0008F5F89838981843080F38B810F900F90B7
:1014C0000F900F900F90CF91DF910895DF93CF93FE
:1014D000CDB7DEB729970FB6F894DEBF0FBECDBFEC
:1014E0009F838E83798768871C821B821A82198268
:1014F0001D828E819F81009719F481E08C8357C0F3
:101500001B8251C019820EC02E813F818981882F94
:1015100090E0820F931F60E00E940D078C83898109
:101520008F5F89838981843078F32E813F818B811D
:10153000882F90E0820F931F61E00E940D078C833B
:101540001A822BC08E819F819C012C5F3F4F8A8124
:10155000882F90E0820F931F9E012B5F3F4FB901B0
:101560000E9430088C838D818130A1F48B81482FBB
:1015700050E08A81282F30E0CA01880F991F880F18
:10158000991F820F931FFC01E158FF4F8081E8856E
:10159000F98580838A818F5F8A838A81843090F283
:1015A0008B818F5F8B838B81843008F4ABCF8C81F0
:1015B00029960FB6F894DEBF0FBECDBFCF91DF9155
:1015C0000895DF93CF93CDB7DEB72E970FB6F8947B
:1015D000DEBF0FBECDBF8DE790E00E94A3058093D4
:1015E00090008EE790E00E94A305809390008DE725
:1015F00090E061E00E940D07809390008EE790E0FC
:1016000061E00E940D078093900080E790E00E94C7
:10161000A5098093900085E790E00E94260A8093B8
:10162000900085E790E021E930E0B9010E94660A68
:101630008093900080E090E0A0E2B1E48B879C87EB
:10164000AD87BE876B857C858D859E8520E030E0EB
:101650004AE755E40E941F02DC01CB018F83988783
:10166000A987BA876F81788589859A8520E030E0DF
:1016700040E85FE30E94790388232CF481E090E046
:101680009E838D833FC06F81788589859A8520E010
:101690003FEF4FE757E40E94190318164CF56B858E
:1016A0007C858D859E8520E030E040E251E40E94FB
:1016B0001F02DC01CB01BC01CD010E944900DC010D
:1016C000CB019E838D830FC080E991E09C838B8347
:1016D0008B819C810197F1F79C838B838D819E8107
:1016E00001979E838D838D819E81009769F714C039
:1016F0006F81788589859A850E944900DC01CB013C
:101700009E838D838D819E819A83898389819A812D
:101710000197F1F79A8389832091910080E790E007
:10172000622F0E94D309809390007BCF2F923F922B
:101730004F925F926F927F928F929F92AF92BF92E1
:10174000CF92DF92EF92FF920F931F93CF93DF938D
:10175000CDB7DEB7CA1BDB0B0FB6F894DEBF0FBEEA
:10176000CDBF09942A88398848885F846E847D8437
:101770008C849B84AA84B984C884DF80EE80FD8039
:101780000C811B81AA81B981CE0FD11D0FB6F894AF
:0E179000DEBF0FBECDBFED010895F894FFCF70
:10179E000000000000000000390036003300300069
:1017AE00C1C9D1E1006A625A523B332B1BD8D0011A
:1017BE0002030405060708090A0B0C0D0E0F100094
:00000001FF
