:100000000C942A000C94D80F0C9410100C944810E7
:100010000C9447000C9447000C94F70A0C94BF0A08
:100020000C94870A0C944F0A0C94870E0C944F0E74
:100030000C942E120C9447000C9447000C9447002B
:100040000C9447000C9447000C9447000C94470014
:100050000C94470011241FBECFE5D8E0DEBFCDBF12
:1000600012E0A0E6B0E0EAE2F8E702C005900D92E7
:10007000A639B107D9F712E0A6E9B2E001C01D9296
:10008000A33CB107E1F70E94D53A0C94133C0C94C1
:100090000000EF92FF920F931F937B018C0120E0F1
:1000A00030E040E05FE40E94F50388238CF0C80153
:1000B000B70120E030E040E05FE40E94C1010E940F
:1000C00055049B01AC01205030404040504806C0D0
:1000D000C801B7010E9455049B01AC01B901CA01D6
:1000E0001F910F91FF90EF900895A0E0B0E0EBE733
:1000F000F0E00C94AB3BDC012B01FA019C919230B7
:1001000008F439C1EB018881823008F433C194309E
:1001100069F4843009F02FC111969C91119789815F
:10012000981709F428C1A0E6B0E025C1843009F48D
:1001300021C18230A9F4923009F01DC19A01AD01AC
:1001400088E0EA010990AE01E90109929E0181501F
:10015000C1F7E201898111969C918923818308C1AD
:10016000923009F407C112962D903C901397EB0141
:100170008A819B811496AD90BD90CD90DC901797AD
:10018000EC80FD800E811F819101281B390BB90184
:1001900037FF04C066277727621B730B6032710537
:1001A0000CF061C0121613066CF537014801062EDB
:1001B00004C096948794779467940A94D2F721E0C8
:1001C00030E040E050E004C0220F331F441F551FB1
:1001D0006A95D2F721503040404050402E213F21B7
:1001E00040235123211531054105510521F021E01E
:1001F00030E040E050E079018A01E628F72808293C
:1002000019293CC0232BD1F1260E371E350146019A
:10021000062E04C096948794779467940A94D2F734
:1002200021E030E040E050E004C0220F331F441FC3
:10023000551F6A95D2F721503040404050402A2146
:100240003B214C215D21211531054105510521F04E
:1002500021E030E040E050E059016A01A628B728CB
:10026000C828D9280BC0821593052CF01C01AA249C
:10027000BB24650103C0EE24FF24870111969C91E5
:10028000D20111968C91981709F445C0992339F041
:10029000A80197012A193B094C095D0906C0A6016E
:1002A00095012E193F09400B510B57FD08C01182D3
:1002B0003382228224833583468357831DC081E0A5
:1002C00081833382228288279927DC01821B930B4A
:1002D000A40BB50B84839583A683B7830DC0220F2F
:1002E000331F441F551F24833583468357838281E0
:1002F000938101979383828324813581468157813D
:10030000DA01C9010197A109B1098F5F9F4FAF4F72
:10031000BF4328F30BC0918333822282EA0CFB1C7B
:100320000C1D1D1DE482F5820683178383E0808304
:10033000248135814681578157FF1AC0C901AA27F8
:1003400097FDA095BA2F81709070A070B0705695EF
:10035000479537952795822B932BA42BB52B848318
:100360009583A683B7838281938101969383828349
:10037000DF0101C0D201CD01CDB7DEB7E2E10C94BF
:10038000C73BA0E2B0E0E7ECF1E00C94B73B698337
:100390007A838B839C832D833E834F835887E9E048
:1003A000EE2EF12CEC0EFD1ECE010196B7010E943F
:1003B00046068E010F5E1F4FCE010596B8010E94C2
:1003C00046068A8991E089278A8BC701B801AE0168
:1003D000475E5F4F0E9475000E947105A096E6E09F
:1003E0000C94D33BA0E2B0E0E8EFF1E00C94B73B13
:1003F00069837A838B839C832D833E834F835887C5
:10040000F9E0EF2EF12CEC0EFD1ECE010196B701A6
:100410000E9446068E010F5E1F4FCE010596B80161
:100420000E944606C701B801AE01475E5F4F0E94B9
:1004300075000E947105A096E6E00C94D33BA0E203
:10044000B0E0E5E2F2E00C94AB3B69837A838B8306
:100450009C832D833E834F835887CE010196BE0136
:10046000675F7F4F0E944606CE010596BE016F5E14
:100470007F4F0E9446069985923088F089898230A4
:10048000C8F0943019F4823051F404C0843029F457
:10049000923081F480E690E0C6C0923049F420E0CA
:1004A0009A858A89981321E02A87CE010996BBC0D4
:1004B000823049F420E09A858A89981321E02A8BBA
:1004C000CE014196B0C02D843E844F8458886D88FB
:1004D0007E888F88988CEE24FF248701AA24BB2471
:1004E000650140E050E060E070E0E0E0F0E0C10174
:1004F00081709070892BE9F0E60CF71C081D191D1E
:100500009A01AB012A0D3B1D4C1D5D1D80E090E062
:10051000A0E0B0E0E614F7040805190520F481E036
:1005200090E0A0E0B0E0BA01A901480F591F6A1F8E
:100530007B1FAA0CBB1CCC1CDD1C97FE08C081E0F5
:1005400090E0A0E0B0E0A82AB92ACA2ADB2A3196B6
:10055000E032F10549F0660C771C881C991C569412
:10056000479437942794C3CFFA85EA892B893C892D
:100570008B859C85280F391F2E5F3F4F17C0CA01FE
:1005800081709070892B61F016950795F794E79428
:1005900080E090E0A0E0B0E8E82AF92A0A2B1B2BC3
:1005A00076956795579547952F5F3F4F77FDE7CF36
:1005B0000CC0440F551F661F771F17FD4160EE0CDE
:1005C000FF1C001F111F21503040403090E05907A0
:1005D00090E0690790E4790760F32B8F3C8FDB0193
:1005E000CA018F779070A070B07080349105A1051A
:1005F000B10561F447FD0AC0E114F10401051105DC
:1006000029F0405C5F4F6F4F7F4F40781A8EFE1786
:1006100011F081E08A8F4D8F5E8F6F8F78A383E01A
:10062000898FCE0149960E947105A096E2E10C9453
:10063000C73BA8E1B0E0EFE1F3E00C94B33B698382
:100640007A838B839C832D833E834F835887B9E0C5
:10065000EB2EF12CEC0EFD1ECE010196B7010E948F
:1006600046068E010F5E1F4FCE010596B8010E940F
:1006700046062985223008F47EC03989323010F4CC
:10068000B8017CC08A859A8989278A87243011F02D
:10069000223031F4231709F06EC060E670E06EC0BE
:1006A000343039F41D861E861F86188A1C861B86E8
:1006B00004C0323021F484E08987B7015FC02B8504
:1006C0003C858B899C89281B390B3C872B87ED84C3
:1006D000FE840F851889AD88BE88CF88D88CEA142F
:1006E000FB040C051D0540F4EE0CFF1C001F111F40
:1006F000215030403C872B8720E030E040E050E044
:1007000080E090E0A0E0B0E460E070E0EA14FB0478
:100710000C051D0540F0282B392B4A2B5B2BEA18C2
:10072000FB080C091D09B695A79597958795EE0CC2
:10073000FF1C001F111F6F5F7F4F6F31710531F775
:10074000DA01C9018F779070A070B0708034910584
:10075000A105B10561F427FD0AC0E114F10401050A
:10076000110529F0205C3F4F4F4F5F4F20782D87B8
:100770003E874F87588BBE01675F7F4FCB010E943A
:1007800071056896EAE00C94CF3BA8E1B0E0EBEC91
:10079000F3E00C94B73B69837A838B839C832D832E
:1007A0003E834F83588789E0E82EF12CEC0EFD1E26
:1007B000CE010196B7010E9446068E010F5E1F4FC3
:1007C000CE010596B8010E9446068985823040F028
:1007D0008989823028F0C701B8010E94BE0601C095
:1007E0008FEF6896E6E00C94D33BA8E1B0E0EBEF26
:1007F000F3E00C94B73B69837A838B839C832D83CE
:100800003E834F83588789E0E82EF12CEC0EFD1EC5
:10081000CE010196B7010E9446068E010F5E1F4F62
:10082000CE010596B8010E9446068985823040F0C7
:100830008989823028F0C701B8010E94BE0601C034
:100840008FEF6896E6E00C94D33BA8E1B0E0EBE2D2
:10085000F4E00C94B73B69837A838B839C832D836C
:100860003E834F83588789E0E82EF12CEC0EFD1E65
:10087000CE010196B7010E9446068E010F5E1F4F02
:10088000CE010596B8010E9446068985823040F067
:100890008989823028F0C701B8010E94BE0601C0D4
:1008A00081E06896E6E00C94D33BACE0B0E0EBE589
:1008B000F4E00C94BB3B69837A838B839C83CE01E9
:1008C0000196BE016B5F7F4F0E9446068D8182308C
:1008D00061F1823050F1843021F48E81882351F10E
:1008E0002EC02F81388537FD20C06E812F31310514
:1008F0001CF06623F9F023C08EE190E0821B930B7D
:1009000029853A854B855C8504C056954795379572
:1009100027958A95D2F76623B1F05095409530958A
:1009200021953F4F4F4F5F4F0EC020E030E040E039
:1009300050E009C02FEF3FEF4FEF5FE704C020E02A
:1009400030E040E050E8B901CA012C96E2E00C9496
:10095000D73BA8E0B0E0EFEAF4E00C94B33B7B01B6
:100960008C01611571058105910519F482E0898377
:1009700060C083E089838EE1C82ED12CDC82CB82DB
:10098000ED82FE820F831887C801B7010E942205FD
:10099000FC013197F7FF3BC0222733272E1B3F0B6B
:1009A00057016801022E04C0D694C794B794A79447
:1009B0000A94D2F740E050E060E070E081E090E01F
:1009C000A0E0B0E004C0880F991FAA1FBB1F2A95A2
:1009D000D2F70197A109B1098E219F21A023B1234C
:1009E0000097A105B10521F041E050E060E070E022
:1009F0004A295B296C297D294D835E836F83788723
:100A00008EE190E08E1B9F0B9C838B8312C03097EE
:100A100081F00E2E04C0EE0CFF1C001F111F0A9463
:100A2000D2F7ED82FE820F831887CE1ADF0ADC82AE
:100A3000CB821A82CE0101960E9471052896EAE0C7
:100A40000C94CF3BEF92FF920F931F937B018C018D
:100A500080E0E81680E0F80681E0080780E01807EB
:100A600088F48FEFE816F1040105110531F028F044
:100A700088E090E0A0E0B0E017C080E090E0A0E067
:100A8000B0E012C080E0E81680E0F80680E00807D9
:100A900081E0180728F088E190E0A0E0B0E004C011
:100AA00080E190E0A0E0B0E020E230E040E050E003
:100AB000281B390B4A0B5B0B04C016950795F7945E
:100AC000E7948A95D2F7F701E859FF4F8081281BF8
:100AD000310941095109C9011F910F91FF90EF9010
:100AE0000895DF92EF92FF920F931F93FC01E48031
:100AF000F58006811781D1808081823048F480E0C2
:100B000090E0A0E1B0E0E82AF92A0A2B1B2BA5C04F
:100B1000843009F49FC0823021F4EE24FF24870141
:100B200005C0E114F1040105110519F4E0E0F0E05D
:100B300096C0628173819FEF623879070CF05BC0C9
:100B400022E83FEF261B370B2A3131052CF020E03D
:100B500030E040E050E02AC0B801A701022E04C0F6
:100B600076956795579547950A94D2F781E090E07E
:100B7000A0E0B0E004C0880F991FAA1FBB1F2A95F0
:100B8000D2F70197A109B1098E219F21A023B1239A
:100B90000097A105B10521F081E090E0A0E0B0E070
:100BA0009A01AB01282B392B4A2B5B2BDA01C901A7
:100BB0008F779070A070B07080349105A105B10559
:100BC00039F427FF09C0205C3F4F4F4F5F4F04C0EF
:100BD000215C3F4F4F4F5F4FE0E0F0E02030A0E05E
:100BE0003A07A0E04A07A0E45A0710F0E1E0F0E07D
:100BF00079018A0127C06038710564F5FB01E1586D
:100C0000FF4FD801C7018F779070A070B07080340B
:100C10009105A105B10539F4E7FE0DC080E490E02F
:100C2000A0E0B0E004C08FE390E0A0E0B0E0E80E08
:100C3000F91E0A1F1B1F17FF05C016950795F7948D
:100C4000E794319687E016950795F794E7948A958F
:100C5000D1F705C0EE24FF248701EFEFF0E06E2FFF
:100C6000679566276795902F9F77D794DD24D79453
:100C70008E2F8695492F462B582F5D29B701CA0123
:100C80001F910F91FF90EF90DF900895FC01DB0121
:100C9000408151812281622F6F7770E0221F2227CD
:100CA000221F9381892F880F822B282F30E0991FD4
:100CB0009927991F11969C93119721153105A9F534
:100CC000411551056105710511F482E037C082E8D4
:100CD0009FEF13969C938E9312979A01AB0167E056
:100CE000220F331F441F551F6A95D1F783E08C9361
:100CF0000DC0220F331F441F551F12968D919C91DA
:100D00001397019713969C938E931297203080E04F
:100D1000380780E0480780E4580758F314962D936D
:100D20003D934D935C93179708952F3F310579F4C8
:100D3000411551056105710519F484E08C930895FE
:100D400064FF03C081E08C9312C01C9210C02F5727
:100D5000304013963C932E93129783E08C9387E058
:100D6000440F551F661F771F8A95D1F7706414963C
:100D70004D935D936D937C93179708951F93DC01BA
:100D8000FB019C91923008F447C08081823008F4C6
:100D900043C0943051F411961C91843099F58181AF
:100DA000682F70E0611B71093FC0843021F09230E0
:100DB00031F48230B9F18181882389F12DC01196F7
:100DC0001C9111978230F1F081811817D9F4129695
:100DD0002D913C911397828193818217930794F010
:100DE00028173907BCF014968D919D910D90BC91F8
:100DF000A02D2481358146815781281739074A075C
:100E00005B0718F4112341F00AC082179307A40767
:100E1000B50740F4112319F061E070E005C06FEFF1
:100E20007FEF02C060E070E0CB011F910895DF9377
:100E3000CF9300D000D00F92CDB7DEB79B838A83CB
:100E400019828A819B81009719F481E08983AEC061
:100E5000A6E4B0E0EA81FB8180858F7081708170AB
:100E60008170982F917019968C9119978E7F892B8C
:100E700019968C93A6E4B0E0EA81FB8180858F709F
:100E8000882F90E095958795817081708170817031
:100E9000982F990F19968C9119978D7F892B1996F8
:100EA0008C93A6E4B0E0EA81FB8180858F70882F67
:100EB00090E0959587959595879581708170817063
:100EC0008170982F990F990F990F18968C911897F8
:100ED000877F892B18968C93A6E4B0E0EA81FB818A
:100EE00080858F70882F90E095958795959587954B
:100EF000959587958170817081708170982F9295FA
:100F0000907F18968C9118978F7E892B18968C93CA
:100F1000A6E4B0E0EA81FB818085982F991F99278C
:100F2000991F81858170880F892B982F9295990F31
:100F3000990F907C19968C9119978F73892B19961C
:100F40008C93A6E4B0E0EA81FB818185869583706D
:100F50008370982F9295907F19968C9119978F7C1A
:100F6000892B19968C931997EA81FB818185869547
:100F7000869586958170282F30E03D832C838C8167
:100F80009D81009759F02C813D812130310561F41C
:100F9000E6E4F0E080858064808708C0E6E4F0E065
:100FA00080858F7B808702C082E0898389810F9052
:100FB0000F900F900F900F90CF91DF910895DF93D6
:100FC000CF9300D00F92CDB7DEB79B838A8319826F
:100FD0008A819B81009719F481E0898335C08A81D9
:100FE0009B81009799F4A6E4B0E0EA81FB818085BB
:100FF00082958F708770982F977018968C9118979C
:10100000887F892B18968C9318971EC0A6E4B0E0B1
:10101000EA81FB81808582958F708770982F977009
:1010200018968C911897887F892B18968C9318970F
:10103000E6E4F0E01482E6E4F0E01582E6E4F0E0B5
:101040001282E6E4F0E0138289810F900F900F90F6
:10105000CF91DF910895DF93CF9300D00F92CDB75A
:10106000DEB79B838A8319828A819B81009719F45A
:1010700081E0898305C0E6E4F0E08085887F808791
:1010800089810F900F900F90CF91DF910895DF939A
:10109000CF9300D00F92CDB7DEB79B838A8319829E
:1010A0008A819B81009719F481E0898308C0E6E476
:1010B000F0E086819781EA81FB8191838083898139
:1010C0000F900F900F90CF91DF910895DF93CF9302
:1010D00000D000D0CDB7DEB79B838A836C831982A2
:1010E0008A819B81009711F481E0898389810F9027
:1010F0000F900F900F90CF91DF910895DF93CF93D2
:101100000F92CDB7DEB71982E6E4F0E08389846000
:10111000838B89810F90CF91DF910895DF93CF93D7
:101120000F92CDB7DEB71982E6E4F0E083898061E3
:10113000838B89810F90CF91DF910895DF93CF93B7
:101140000F92CDB7DEB71982E6E4F0E083898860BC
:10115000838B89810F90CF91DF910895DF93CF9397
:101160000F92CDB7DEB71982E6E4F0E083898062A2
:10117000838B89810F90CF91DF910895DF93CF9377
:101180000F92CDB7DEB71982E6E4F0E083898B7F5A
:10119000838B89810F90CF91DF910895DF93CF9357
:1011A0000F92CDB7DEB71982E6E4F0E083898F7E37
:1011B000838B89810F90CF91DF910895DF93CF9337
:1011C0000F92CDB7DEB71982E6E4F0E08389877F1E
:1011D000838B89810F90CF91DF910895DF93CF9317
:1011E0000F92CDB7DEB71982E6E4F0E083898F7DF8
:1011F000838B89810F90CF91DF910895DF93CF93F7
:1012000000D00F92CDB7DEB79B838A8319828A8183
:101210009B81009719F481E0898308C0EA81FB81F2
:1012200080819181909397028093960289810F909B
:101230000F900F90CF91DF910895DF93CF9300D05F
:101240000F92CDB7DEB79B838A8319828A819B81F7
:10125000009719F481E0898308C0EA81FB818281CB
:10126000938190939B0280939A0289810F900F90B3
:101270000F90CF91DF910895DF93CF9300D00F921D
:10128000CDB7DEB79B838A8319828A819B810097C1
:1012900019F481E0898308C0EA81FB81848195810A
:1012A000909399028093980289810F900F900F90EC
:1012B000CF91DF910895DF93CF9300D00F92CDB7F8
:1012C000DEB79B838A8319828A819B81009719F4F8
:1012D00081E0898308C0EA81FB81868197819093B0
:1012E0009D0280939C0289810F900F900F90CF9167
:1012F000DF910895DF93CF9300D000D00F92CDB748
:10130000DEB79B838A836C834D8319828A819B819C
:10131000009711F481E0898389810F900F900F90DD
:101320000F900F90CF91DF910895DF93CF9300D06E
:1013300000D00F92CDB7DEB79B838A836C834D8339
:1013400019828A819B81009711F481E089838981C8
:101350000F900F900F900F900F90CF91DF91089505
:10136000DF93CF9300D000D0CDB7DEB78A83198248
:101370008A81282F30E03C832B838B819C810097CE
:1013800059F02B813C812130310561F4E6E4F0E035
:1013900080858064808708C0E6E4F0E080858F7BEC
:1013A000808702C082E0898389810F900F900F901F
:1013B0000F90CF91DF910895DF93CF9300D00F92DC
:1013C000CDB7DEB79B838A8319828A819B81009780
:1013D00019F481E0898308C0E6E4F0E0808191811E
:1013E000EA81FB819183808389810F900F900F9018
:1013F000CF91DF910895DF93CF9300D000D00F926B
:10140000CDB7DEB789838981282F30E03D832C83D7
:101410008C819D818330910529F12C813D8124307F
:1014200031055CF48C819D818130910589F02C819E
:101430003D812230310589F024C08C819D8184302A
:101440009105A9F02C813D8125303105A9F019C005
:1014500081E090E09B838A8318C028E030E03B83E2
:101460002A8313C080E490E09B838A830EC020E02F
:1014700031E03B832A8309C080E094E09B838A8328
:1014800004C021E030E03B832A838A819B810F9056
:101490000F900F900F900F90CF91DF9108951F92B2
:1014A0000F920FB60F9211242F933F934F935F9398
:1014B0006F937F938F939F93AF93BF93EF93FF931C
:1014C000DF93CF93CDB7DEB7E6E4F0E082898B7F80
:1014D000828B8091960290919702009729F0E0917B
:1014E0009602F09197020995CF91DF91FF91EF91CC
:1014F000BF91AF919F918F917F916F915F914F912C
:101500003F912F910F900FBE0F901F9018951F9233
:101510000F920FB60F9211242F933F934F935F9327
:101520006F937F938F939F93AF93BF93EF93FF93AB
:10153000DF93CF93CDB7DEB7E6E4F0E08289877F13
:10154000828B8091980290919902009729F0E09106
:101550009802F09199020995CF91DF91FF91EF9157
:10156000BF91AF919F918F917F916F915F914F91BB
:101570003F912F910F900FBE0F901F9018951F92C3
:101580000F920FB60F9211242F933F934F935F93B7
:101590006F937F938F939F93AF93BF93EF93FF933B
:1015A000DF93CF93CDB7DEB7E6E4F0E082898F7E9C
:1015B000828B80919A0290919B02009729F0E09192
:1015C0009A02F0919B020995CF91DF91FF91EF91E3
:1015D000BF91AF919F918F917F916F915F914F914B
:1015E0003F912F910F900FBE0F901F9018951F9253
:1015F0000F920FB60F9211242F933F934F935F9347
:101600006F937F938F939F93AF93BF93EF93FF93CA
:10161000DF93CF93CDB7DEB7E6E4F0E082898F7D2C
:10162000828B80919C0290919D02009729F0E0911D
:101630009C02F0919D020995CF91DF91FF91EF916E
:10164000BF91AF919F918F917F916F915F914F91DA
:101650003F912F910F900FBE0F901F901895DF9321
:10166000CF9300D00F92CDB7DEB79B838A831982C8
:101670008A819B81009719F481E089834AC0A2E5A1
:10168000B0E0EA81FB81848186958695869583709A
:101690008170817081708170982F9295990F990F48
:1016A000907C11968C9111978F7B892B11968C933E
:1016B000A2E5B0E0EA81FB818481869586958695D6
:1016C0008370882F90E095958795817081708170E7
:1016D0008170982F990F990F990F11968C911197EE
:1016E000877F892B11968C93A2E5B0E0EA81FB817C
:1016F000848182958695877083708370982F9295E8
:10170000907F11968C9111978F7C892B11968C93D9
:10171000119789810F900F900F90CF91DF910895CD
:10172000DF93CF9300D00F92CDB7DEB79B838A8330
:1017300019828A819B81009719F481E089832EC0E8
:10174000EA81FB8184818871882389F4A2E5B0E075
:10175000EA81FB8184818770982F977011968C9114
:101760001197887F892B11968C93119717C0A2E54A
:10177000B0E0EA81FB8184818770982F9770119681
:101780008C911197887F892B11968C9381E063E06F
:1017900041E00E945A13E2E5F0E0128689810F9041
:1017A0000F900F90CF91DF910895DF93CF9300D0EA
:1017B0000F92CDB7DEB79B838A8319828A819B8182
:1017C000009719F481E0898305C0E2E5F0E08181AA
:1017D000887F818389810F900F900F90CF91DF9147
:1017E0000895DF93CF9300D000D00F92CDB7DEB72E
:1017F0009B838A837D836C8319828A819B81009776
:1018000021F08C819D81009719F481E0898306C0C5
:10181000E2E5F0E08081EC81FD81808389810F9099
:101820000F900F900F900F90CF91DF910895DF935D
:10183000CF93CDB7DEB72E970FB6F894DEBF0FBEAD
:10184000CDBF9F838E8368875A8749873C872B87C4
:101850001D8219821A821B821C828E819F810097B1
:1018600019F481E08D83D0C0EE81FF81848188717D
:10187000882309F0C9C0EE81FF8184818770282FF9
:1018800030E03E872D878D859E858330910509F454
:101890004DC02D853E85243031055CF48D859E85B7
:1018A0008130910599F02D853E852230310511F169
:1018B0008EC08D859E858430910509F453C02D8599
:1018C0003E852530310509F465C081C08885882FA3
:1018D00090E0A0E0B0E020E030EA4CEA59EBBC0137
:1018E000CD010E94373BDC01CB0189839A83AB8316
:1018F000BC836FC08885882F90E0A0E0B0E020E036
:1019000030EA4CEA59EBBC01CD010E94373BDC01C7
:10191000CB01689412F8B695A7959795879516947C
:10192000D1F789839A83AB83BC8353C08885882F82
:1019300090E0A0E0B0E020E030EA4CEA59EBBC01D6
:10194000CD010E94373BDC01CB01689415F8B695B8
:10195000A795979587951694D1F789839A83AB833A
:10196000BC8337C08885882F90E0A0E0B0E020E0FD
:1019700030EA4CEA59EBBC01CD010E94373BDC0157
:10198000CB01892F9A2FAB2FBB2789839A83AB83F7
:10199000BC831FC08885882F90E0A0E0B0E020E0E5
:1019A00030EA4CEA59EBBC01CD010E94373BDC0127
:1019B000CB01072E7AE0B695A795979587957A95EE
:1019C000D1F7702D89839A83AB83BC8302C082E0F8
:1019D0008D8389819A81AB81BC81892F9A2FAB2F0E
:1019E000BB27E985FA8580839183A283B3838981AC
:1019F0009A81AB81BC819070A070B070EB85FC8542
:101A000080839183A283B3838D812E960FB6F89441
:101A1000DEBF0FBECDBFCF91DF910895DF93CF938F
:101A200000D00F92CDB7DEB789838981282F30E0AF
:101A30003B832A838A819B81009731F02A813B81F5
:101A40002130310539F00BC0E2E5F0E0878181609B
:101A5000878305C0E2E5F0E087818260878380E0CC
:101A60000F900F900F90CF91DF910895DF93CF9358
:101A700000D00F92CDB7DEB789838981282F30E05F
:101A80003B832A838A819B818230910531F02A81B0
:101A90003B812330310539F00BC0E2E5F0E087816E
:101AA0008E7F878305C0E2E5F0E087818D7F8783A5
:101AB00080E00F900F900F90CF91DF910895DF930A
:101AC000CF9300D00F92CDB7DEB79B838A83198264
:101AD0008A819B81009719F481E0898310C0EA8193
:101AE000FB818081918190939F0280939E02EA8185
:101AF000FB81828193819093A1028093A0028981CE
:101B00000F900F900F90CF91DF910895DF93CF93B7
:101B100000D000D00F92CDB7DEB79B838A836C8351
:101B20004D8319828A819B81009719F481E0898312
:101B300049C0EA81FB8184818871883109F042C003
:101B4000EA81FB81848180768034D9F4E2E5F0E09B
:101B50008D81482F50E0CA019C01220F331FC9011B
:101B60009695982F882797958795821B930B840FBE
:101B7000951F24E630E0B9010E94623BCB018287C9
:101B800021C0EA81FB81848180768036D9F4E2E548
:101B9000F0E08D81482F50E0CA019C01220F331FD5
:101BA000C9019695982F882797958795821B930B47
:101BB000840F951F24E630E0B9010E94623BCB01FF
:101BC0008095828789810F900F900F900F900F90D2
:101BD000CF91DF910895DF93CF9300D000D00F9283
:101BE000CDB7DEB79B838A836C834D8319828A814C
:101BF0009B81009719F481E0898348C0EA81FB81C9
:101C000084818871883009F041C0EA81FB81848138
:101C100080768034C9F4E2E5F0E08D81482F50E011
:101C2000CA019C01220F331FC9019695982F88275E
:101C300097958795821B930B840F951F98EC692FBE
:101C40000E94563B828722C0EA81FB818481807694
:101C50008036E1F4E2E5F0E08D81482F50E0CA01E2
:101C60009C01220F331FC9019695982F88279795BD
:101C70008795821B930B840F951F24E630E0B901F2
:101C80000E94623BCB0186958095828789810F9067
:101C90000F900F900F900F90CF91DF9108951F92AA
:101CA0000F920FB60F9211242F933F934F935F9390
:101CB0006F937F938F939F93AF93BF93EF93FF9314
:101CC000DF93CF93CDB7DEB7E2E5F0E086818E7F7C
:101CD000868380919E0290919F02009729F0E09167
:101CE0009E02F0919F020995CF91DF91FF91EF91B4
:101CF000BF91AF919F918F917F916F915F914F9124
:101D00003F912F910F900FBE0F901F9018951F922B
:101D10000F920FB60F9211242F933F934F935F931F
:101D20006F937F938F939F93AF93BF93EF93FF93A3
:101D3000DF93CF93CDB7DEB7E2E5F0E086818D7F0C
:101D400086838091A0029091A102009729F0E091F2
:101D5000A002F091A1020995CF91DF91FF91EF913F
:101D6000BF91AF919F918F917F916F915F914F91B3
:101D70003F912F910F900FBE0F901F901895DF93FA
:101D8000CF9300D000D00F92CDB7DEB79B838A836C
:101D900019828A819B81009719F481E0898369C047
:101DA000EFE5F0E0808180688083EA81FB818281B9
:101DB0008370282F30E03D832C838C819D8181307E
:101DC000910511F12C813D8122303105B9F18C81D1
:101DD0009D81009709F04BC0E4E5F0E087818064C5
:101DE0008783A4E5B0E0EA81FB81828186958695B0
:101DF0008370982F937011968C9111978C7F892BFB
:101E000011968C93119735C0E4E5F0E087818068E6
:101E10008783A4E5B0E0EA81FB818281869586957F
:101E200083708370982F990F990F11968C91119749
:101E3000837F892B11968C9311971BC0E4E5F0E00A
:101E4000878180628783A4E5B0E0EA81FB8182819B
:101E500086958695837081708170982F9295990FE1
:101E6000990F907C8C918F7B892B8C9302C082E0A0
:101E7000898389810F900F900F900F900F90CF91D1
:101E8000DF910895DF93CF9300D000D00F92CDB7AC
:101E9000DEB79B838A8319828A819B81009719F41C
:101EA00081E089832FC0EFE5F0E080818F77808328
:101EB000EA81FB8182818370282F30E03D832C836F
:101EC0008C819D818130910579F02C813D8122307A
:101ED000310581F08C819D81009791F4E4E5F0E07B
:101EE00087818F7B87830EC0E4E5F0E087818F7761
:101EF000878308C0E4E5F0E087818F7D878302C097
:101F000082E0898389810F900F900F900F900F903E
:101F1000CF91DF910895DF93CF9300D000D00F923F
:101F2000CDB7DEB79B838A8319828A819B81009714
:101F300019F481E0898333C0EA81FB818281837057
:101F4000282F30E03D832C838C819D818130910549
:101F500091F02C813D8122303105B1F08C819D8141
:101F60000097D9F4EA81FB81808191819093A3024B
:101F70008093A20214C0EA81FB81808191819093B9
:101F8000A5028093A4020BC0EA81FB81808191812C
:101F90009093A7028093A60202C082E08983898180
:101FA0000F900F900F900F900F90CF91DF910895A9
:101FB0001F920F920FB60F9211242F933F934F93BE
:101FC0005F936F937F938F939F93AF93BF93EF93A1
:101FD000FF93DF93CF93CDB7DEB7E4E5F0E08681E2
:101FE0008F7B86838091A2029091A302009729F0B3
:101FF000E091A202F091A3020995CF91DF91FF91A8
:10200000EF91BF91AF919F918F917F916F915F9170
:102010004F913F912F910F900FBE0F901F901895E9
:102020001F920F920FB60F9211242F933F934F934D
:102030005F936F937F938F939F93AF93BF93EF9330
:10204000FF93DF93CF93CDB7DEB7E4E5F0E0868171
:102050008F7786838091A4029091A502009729F042
:10206000E091A402F091A5020995CF91DF91FF9133
:10207000EF91BF91AF919F918F917F916F915F9100
:102080004F913F912F910F900FBE0F901F90189579
:102090001F920F920FB60F9211242F933F934F93DD
:1020A0005F936F937F938F939F93AF93BF93EF93C0
:1020B000FF93DF93CF93CDB7DEB7E4E5F0E0868101
:1020C000806286838091A6029091A702009729F0F2
:1020D000E091A602F091A7020995CF91DF91FF91BF
:1020E000EF91BF91AF919F918F917F916F915F9190
:1020F0004F913F912F910F900FBE0F901F90189509
:10210000DF93CF93CDB7DEB7E1E4F0E08081886064
:102110008083CF91DF910895DF93CF93CDB7DEB762
:10212000A1E4B0E0E1E4F0E0808188618C93E1E437
:10213000F0E01082CF91DF910895DF93CF930F925B
:10214000CDB7DEB789830E948010E1E4F0E0898199
:102150008770982F97708081887F892B80830F905C
:10216000CF91DF910895DF93CF93CDB7DEB7A895D8
:10217000CF91DF910895DF93CF93CDB7DEB72B9743
:102180000FB6F894DEBF0FBECDBF688779878A8708
:102190009B871F8288859985AA85BB85880F991F93
:1021A000AA1FBB1F880F991FAA1FBB1F880F991F4B
:1021B000AA1FBB1F880F991FAA1FBB1F9C01AD013F
:1021C00080E094E2A4EFB0E0BC01CD010E94753B39
:1021D000DA01C9010197A109B1098B839C83AD8301
:1021E000BE83E9E2F0E08B819C81AD81BE81892FC5
:1021F0009A2FAB2FBB27878BE9E2F0E08B8180839E
:1022000088E18A83E9E2F0E08A8181838EE889832C
:10221000E9E2F0E08981878B8F812B960FB6F894E5
:10222000DEBF0FBECDBFCF91DF910895DF93CF9377
:1022300000D0CDB7DEB78A831982E9E2F0E082816F
:10224000882F90E0807290700097B9F3E9E2F0E097
:102250008A81838389810F900F90CF91DF910895B8
:10226000DF93CF9300D00F92CDB7DEB79B838A83E5
:102270001982E9E2F0E082818823DCF7E9E2F0E00C
:102280008381EA81FB81808389810F900F900F9079
:10229000CF91DF910895DF93CF9300D00F92CDB708
:1022A000DEB79B838A8319828A819B81009771F4B0
:1022B00081E0898310C0EA81FB8180810E94161130
:1022C00089838A819B8101969B838A83EA81FB8132
:1022D0008081882381F789810F900F900F90CF9193
:1022E000DF910895DF93CF9300D00F92CDB7DEB783
:1022F0009B838A8319828A819B81009719F481E0EC
:10230000898322C0EA81FB818281882379F481E07C
:1023100065E041E00E945A1381E067E041E00E94DD
:102320005A13EDE2F0E081E580830EC0EA81FB8183
:102330008281813049F481E066E041E00E945A13D5
:10234000EDE2F0E080E4808389810F900F900F90A0
:10235000CF91DF910895DF93CF9300D000D0CDB718
:10236000DEB78A837C836B8319828B819C81009783
:1023700019F481E089830FC0EDE2F0E08A81828365
:10238000EDE2F0E081818823DCF7EDE2F0E082818C
:10239000EB81FC81808389810F900F900F900F90CB
:1023A000CF91DF910895DF93CF9300D000D0CDB7C8
:1023B000DEB79B838A836C8319828A819B81009715
:1023C00019F481E0898316C0ADE2B0E0EDE2F0E0FF
:1023D000808180688C938A819B819093AA028093EC
:1023E000A902EDE2F0E08C818283EDE2F0E08181F0
:1023F0008823DCF789810F900F900F900F90CF9179
:10240000DF910895DF93CF9300D000D0CDB7DEB732
:102410009C838B8319828B819C81009791F481E04E
:10242000898314C0EB81FC8180819E012E5F3F4F28
:10243000B9010E94AB1189838B819C8101969C8399
:102440008B83EB81FC818081882361F789810F90E8
:102450000F900F900F90CF91DF9108951F920F92E0
:102460000FB60F9211242F933F934F935F936F9367
:102470007F938F939F93AF93BF93EF93FF93DF93DC
:10248000CF93CDB7DEB7EDE2F0E082818093A80272
:102490008091A9029091AA02009729F0E091A902E7
:1024A000F091AA020995CF91DF91FF91EF91BF9131
:1024B000AF919F918F917F916F915F914F913F91DC
:1024C0002F910F900FBE0F901F901895DF93CF9311
:1024D00000D000D00F92CDB7DEB79B838A831982DC
:1024E0008A819B81009719F481E089832FC0A0E243
:1024F000B0E0E0E2F0E081818E7F11968C93A0E263
:10250000B0E0E0E2F0E081818D7F11968C9311972D
:10251000EA81FB818181282F30E03D832C838C81EF
:102520009D81009731F02C813D812130310531F0C2
:1025300009C0E0E2F0E088E4808304C0E0E2F0E07B
:102540008CE08083E0E2F0E081E486AB89810F904B
:102550000F900F900F900F90CF91DF910895DF9320
:10256000CF9300D0CDB7DEB78A8381E08983E0E2E4
:10257000F0E08A818383E0E2F0E084E886ABE0E289
:10258000F0E086A98823DCF789810F900F90CF9126
:10259000DF910895DF93CF930F92CDB7DEB781E03F
:1025A0008983E0E2F0E084EA86ABE0E2F0E086A92D
:1025B0008823DCF789810F90CF91DF910895DF9315
:1025C000CF930F92CDB7DEB781E08983E0E2F0E0F0
:1025D00084E986AB89810F90CF91DF910895DF93D5
:1025E000CF9300D00F92CDB7DEB79B838A8381E073
:1025F00089838A819B81009719F481E089830FC0C8
:10260000E0E2F0E084EC86ABE0E2F0E086A988232B
:10261000DCF7E0E2F0E08381EA81FB81808389815D
:102620000F900F900F90CF91DF910895DF93CF938C
:1026300000D00F92CDB7DEB79B838A8319828A813F
:102640009B81009719F481E089830FC0E0E2F0E0FC
:1026500084E886ABE0E2F0E086A98823DCF7E0E2DC
:10266000F0E08381EA81FB81808389810F900F9064
:102670000F90CF91DF910895DF93CF9300D00F9209
:10268000CDB7DEB79B838A8319828A819B810097AD
:1026900019F481E0898307C0E0E2F0E08181887F5E
:1026A000EA81FB81808389810F900F900F90CF91F9
:1026B000DF910895DF93CF9300D000D00F92CDB774
:1026C000DEB789836A834B838981843008F061C0D7
:1026D0008A81883008F05DC08B81282F30E03D83EF
:1026E0002C838C819D81009769F12C813D81213063
:1026F000310509F04EC08981882F90E0880F991F1D
:10270000FC01E859FE4FA081B1818981882F90E0BA
:10271000880F991FFC01E859FE4F0190F081E02DD0
:102720008181482F8A81282F30E081E090E0022EBD
:1027300002C0880F991F0A94E2F7842B11968C939C
:10274000119727C08981882F90E0880F991FFC017D
:10275000E859FE4FA081B1818981882F90E0880FD0
:10276000991FFC01E859FE4F0190F081E02D818115
:10277000482F8A81282F30E081E090E0022E02C0AD
:10278000880F991F0A94E2F78095842311968C9301
:1027900011970F900F900F900F900F90CF91DF91A6
:1027A0000895DF93CF9300D000D00F92CDB7DEB75E
:1027B00089836A834B838981843008F061C08A8170
:1027C000883008F05DC08B81282F30E03D832C835A
:1027D0008C819D81009769F12C813D8121303105EB
:1027E00009F04EC08981882F90E0880F991FFC0165
:1027F000E859FE4FA081B1818981882F90E0880F30
:10280000991FFC01E859FE4F0190F081E02D828173
:10281000482F8A81282F30E081E090E0022E02C00C
:10282000880F991F0A94E2F7842B12968C931297C3
:1028300027C08981882F90E0880F991FFC01E859F3
:10284000FE4FA081B1818981882F90E0880F991F68
:10285000FC01E859FE4F0190F081E02D8281482F64
:102860008A81282F30E081E090E0022E02C0880F9C
:10287000991F0A94E2F78095842312968C931297FD
:102880000F900F900F900F900F90CF91DF910895C0
:10289000DF93CF9300D0CDB7DEB789836A83898178
:1028A000843048F58A81883030F58981882F90E01E
:1028B000880F991FFC01E859FE4FA081B1818981E1
:1028C000882F90E0880F991FFC01E859FE4F019076
:1028D000F081E02D8281482F8A81282F30E081E02D
:1028E00090E0022E02C0880F991F0A94E2F7842715
:1028F00012968C9312970F900F90CF91DF910895BD
:10290000DF93CF9300D00F92CDB7DEB78A836B836E
:1029100019828A818430E8F48B818830D0F48A81EE
:10292000882F90E0880F991FFC01E859FE4F019015
:10293000F081E02D8081282F30E08B81882F90E07E
:10294000A90102C0559547958A95E2F7CA018170A1
:10295000898389810F900F900F90CF91DF91089517
:10296000DF93CF9300D0CDB7DEB789836A838981A7
:10297000843068F48981882F90E0880F991FFC01CA
:10298000E859FE4F0190F081E02D8A8181830F90FC
:102990000F90CF91DF910895DF93CF9300D0CDB703
:1029A000DEB789836A838981843068F48981882FBE
:1029B00090E0880F991FFC01E859FE4F0190F081CB
:1029C000E02D8A8182830F900F90CF91DF9108953F
:1029D000DF93CF9300D0CDB7DEB78A8319828A8187
:1029E000843068F48A81882F90E0880F991FFC0159
:1029F000E859FE4F0190F081E02D80818983898123
:102A00000F900F90CF91DF910895DF93CF9300D077
:102A1000CDB7DEB79A83898389819A81009709F4BB
:102A20005FC0E4E2F0E082818F778283A4E2B0E0CD
:102A3000E981FA8180818695869586958370982FA5
:102A40009295990F990F907C13968C9113978F7391
:102A5000892B13968C93A4E2B0E0E981FA818081FE
:102A6000829586958695837081708770982F977070
:102A700012968C911297887F892B12968C93E4E2A0
:102A8000F0E0828180628283A4E2B0E0E981FA8191
:102A900080818770982F9295990F907E9C968C914B
:102AA0009C978F71892B9C968C93A4E2B0E0E9816E
:102AB000FA81808182958695877081708170982FC8
:102AC0009295990F907E13968C9113978F7D892BF9
:102AD00013968C931397E4E2F0E0828180688283FE
:102AE0000F900F90CF91DF910895DF93CF93CDB7E3
:102AF000DEB7A1970FB6F894DEBF0FBECDBF9E8F95
:102B00008D8F6F8F59A348A3E4E2F0E08F8D8F7112
:102B1000982F9F718381807E892B8383E4E2F0E08C
:102B200082818068828380E090E0A0E8BFE3898FA3
:102B30009A8FAB8FBC8F698D7A8D8B8D9C8D20E0A9
:102B400030E04AE755E40E941F02DC01CB018D8B87
:102B50009E8BAF8BB88F6D897E898F89988D20E091
:102B600030E040E85FE30E94250488232CF481E0F4
:102B700090E09C8B8B8B3FC06D897E898F89988D6F
:102B800020E03FEF4FE757E40E94C50318164CF5CD
:102B9000698D7A8D8B8D9C8D20E030E040E251E490
:102BA0000E941F02DC01CB01BC01CD010E94490043
:102BB000DC01CB019C8B8B8B0FC080E991E09A8B61
:102BC000898B89899A890197F1F79A8B898B8B89EF
:102BD0009C8901979C8B8B8B8B899C89009769F7CB
:102BE00014C06D897E898F89988D0E944900DC010F
:102BF000CB019C8B8B8B8B899C89988B8F878F8546
:102C000098890197F1F7988B8F87E4E2F0E0828151
:102C100080648283E4E2F0E0828180718823D1F3D2
:102C2000E4E2F0E082818F7E828380E090E0A0E8A1
:102C3000BFE38B879C87AD87BE876B857C858D8541
:102C40009E8520E030E04AE755E40E941F02DC0147
:102C5000CB018F839887A987BA876F81788589850B
:102C60009A8520E030E040E85FE30E942504882355
:102C70002CF481E090E09E838D833FC06F81788546
:102C800089859A8520E03FEF4FE757E40E94C5030E
:102C900018164CF56B857C858D859E8520E030E08F
:102CA00040E251E40E941F02DC01CB01BC01CD01D6
:102CB0000E944900DC01CB019E838D830FC080E917
:102CC00091E09C838B838B819C810197F1F79C839E
:102CD0008B838D819E8101979E838D838D819E81C3
:102CE000009769F714C06F81788589859A850E945D
:102CF0004900DC01CB019E838D838D819E819A8367
:102D0000898389819A810197F1F79A838983ED8D6F
:102D1000FE8D80818072882349F4E4E2F0E08081B6
:102D20009181E8A1F9A1918380830EC0ED8DFE8D84
:102D300080818072882341F0E4E2F0E0808191811B
:102D4000E8A1F9A191838083A1960FB6F894DEBF24
:102D50000FBECDBFCF91DF910895DF93CF93CDB755
:102D6000DEB7AA970FB6F894DEBF0FBECDBF80E0E6
:102D700063E041E00E945A1380E062E041E00E947B
:102D80005A1381E060E041E00E945A1381E061E063
:102D900041E00E945A1381E062E041E00E945A1330
:102DA00081E064E041E00E945A1380E090E0A0EAF4
:102DB000B1E48FA398A7A9A7BAA76FA178A589A501
:102DC0009AA520E030E04AE755E40E941F02DC01AA
:102DD000CB018BA39CA3ADA3BEA36BA17CA18DA1B2
:102DE0009EA120E030E040E85FE30E9425048823B4
:102DF0002CF481E090E09AA389A33FC06BA17CA151
:102E00008DA19EA120E03FEF4FE757E40E94C5034C
:102E100018164CF56FA178A589A59AA520E030E099
:102E200040E251E40E941F02DC01CB01BC01CD0154
:102E30000E944900DC01CB019AA389A30FC080E95D
:102E400091E098A38F8F8F8D98A10197F1F798A3A8
:102E50008F8F89A19AA101979AA389A389A19AA189
:102E6000009769F714C06BA17CA18DA19EA10E945F
:102E70004900DC01CB019AA389A389A19AA19E8F65
:102E80008D8F8D8D9E8D0197F1F79E8F8D8F88E3AD
:102E90000E944F1880E090E0A0EAB0E4898F9A8FFA
:102EA000AB8FBC8F698D7A8D8B8D9C8D20E030E04F
:102EB0004AE755E40E941F02DC01CB018D8B9E8BFB
:102EC000AF8BB88F6D897E898F89988D20E030E037
:102ED00040E85FE30E94250488232CF481E090E021
:102EE0009C8B8B8B3FC06D897E898F89988D20E06C
:102EF0003FEF4FE757E40E94C50318164CF5698D64
:102F00007A8D8B8D9C8D20E030E040E251E40E9470
:102F10001F02DC01CB01BC01CD010E944900DC0194
:102F2000CB019C8B8B8B0FC080E991E09A8B898BB6
:102F300089899A890197F1F79A8B898B8B899C896A
:102F400001979C8B8B8B8B899C89009769F714C0A8
:102F50006D897E898F89988D0E944900DC01CB01A3
:102F60009C8B8B8B8B899C89988B8F878F8598897D
:102F70000197F1F7988B8F8788E30E944F1880E0C4
:102F800090E0A6E1B3E48B879C87AD87BE876B8515
:102F90007C858D859E8520E030E04AE755E40E94DF
:102FA0001F02DC01CB018F839887A987BA876F81C5
:102FB000788589859A8520E030E040E85FE30E94CB
:102FC000250488232CF481E090E09E838D833FC00C
:102FD0006F81788589859A8520E03FEF4FE757E438
:102FE0000E94C50318164CF56B857C858D859E85E2
:102FF00020E030E040E251E40E941F02DC01CB01FE
:10300000BC01CD010E944900DC01CB019E838D8370
:103010000FC080E991E09C838B838B819C81019719
:10302000F1F79C838B838D819E8101979E838D8395
:103030008D819E81009769F714C06F81788589859D
:103040009A850E944900DC01CB019E838D838D818E
:103050009E819A83898389819A810197F1F79A8366
:10306000898388E30E944F1881E00E944F1882E014
:103070000E944F1886E00E944F188CE00E944F1863
:1030800088E20E944F1880E80E944F18AA960FB657
:10309000F894DEBF0FBECDBFCF91DF910895DF93CF
:1030A000CF93CDB7DEB76D970FB6F894DEBF0FBEE6
:1030B000CDBF8D8F80E063E040E00E94D1138D8D05
:1030C00082958F70982F917081E060E0492F0E9467
:1030D000D1138D8D829586958770982F917081E0A0
:1030E00061E0492F0E94D1138D8D8295869586953A
:1030F0008370982F917081E062E0492F0E94D11374
:103100008D8D982F991F9927991F81E064E0492F91
:103110000E94D11380E062E041E00E94D11380E080
:1031200090E0A0EAB0E4898F9A8FAB8FBC8F698D55
:103130007A8D8B8D9C8D20E030E04AE755E40E942B
:103140001F02DC01CB018D8B9E8BAF8BB88F6D89FD
:103150007E898F89988D20E030E040E85FE30E940F
:10316000250488232CF481E090E09C8B8B8B3FC05E
:103170006D897E898F89988D20E03FEF4FE757E476
:103180000E94C50318164CF5698D7A8D8B8D9C8D28
:1031900020E030E040E251E40E941F02DC01CB015C
:1031A000BC01CD010E944900DC01CB019C8B8B8BC3
:1031B0000FC080E991E09A8B898B89899A89019760
:1031C000F1F79A8B898B8B899C8901979C8B8B8BD0
:1031D0008B899C89009769F714C06D897E898F89D6
:1031E000988D0E944900DC01CB019C8B8B8B8B89D5
:1031F0009C89988B8F878F8598890197F1F7988B99
:103200008F8780E062E040E00E94D1138D8D982F7F
:10321000917081E060E0492F0E94D1138D8D8695D9
:10322000982F917081E061E0492F0E94D1138D8D1C
:1032300086958695982F917081E062E0492F0E94D3
:10324000D1138D8D869586958695982F917081E006
:1032500064E0492F0E94D11380E062E041E00E94C7
:10326000D11380E090E0A0EAB0E48B879C87AD8723
:10327000BE876B857C858D859E8520E030E04AE7A2
:1032800055E40E941F02DC01CB018F839887A98738
:10329000BA876F81788589859A8520E030E040E89B
:1032A0005FE30E94250488232CF481E090E09E8354
:1032B0008D833FC06F81788589859A8520E03FEFB7
:1032C0004FE757E40E94C50318164CF56B857C85C3
:1032D0008D859E8520E030E040E251E40E941F028F
:1032E000DC01CB01BC01CD010E944900DC01CB0116
:1032F0009E838D830FC080E991E09C838B838B81BB
:103300009C810197F1F79C838B838D819E8101972E
:103310009E838D838D819E81009769F714C06F8194
:10332000788589859A850E944900DC01CB019E83BE
:103330008D838D819E819A83898389819A8101976A
:10334000F1F79A83898380E062E040E00E94D11324
:103350006D960FB6F894DEBF0FBECDBFCF91DF9153
:103360000895DF93CF93CDB7DEB76D970FB6F8947E
:10337000DEBF0FBECDBF8D8F80E063E041E00E94D5
:10338000D1138D8D82958F70982F917081E060E0C0
:10339000492F0E94D1138D8D829586958770982F25
:1033A000917081E061E0492F0E94D1138D8D82954B
:1033B000869586958370982F917081E062E0492F01
:1033C0000E94D1138D8D982F991F9927991F81E005
:1033D00064E0492F0E94D11380E062E041E00E9446
:1033E000D11380E090E0A0EAB0E4898F9A8FAB8F90
:1033F000BC8F698D7A8D8B8D9C8D20E030E04AE703
:1034000055E40E941F02DC01CB018D8B9E8BAF8B9C
:10341000B88F6D897E898F89988D20E030E040E8F3
:103420005FE30E94250488232CF481E090E09C8BCC
:103430008B8B3FC06D897E898F89988D20E03FEF0F
:103440004FE757E40E94C50318164CF5698D7A8D35
:103450008B8D9C8D20E030E040E251E40E941F0201
:10346000DC01CB01BC01CD010E944900DC01CB0194
:103470009C8B8B8B0FC080E991E09A8B898B89891B
:103480009A890197F1F79A8B898B8B899C8901978F
:103490009C8B8B8B8B899C89009769F714C06D89F5
:1034A0007E898F89988D0E944900DC01CB019C8B1D
:1034B0008B8B8B899C89988B8F878F8598890197B7
:1034C000F1F7988B8F8780E062E040E00E94D11393
:1034D0008D8D982F917081E060E0492F0E94D1136B
:1034E0008D8D8695982F917081E061E0492F0E9423
:1034F000D1138D8D86958695982F917081E062E02D
:10350000492F0E94D1138D8D869586958695982F8B
:10351000917081E064E0492F0E94D11380E062E065
:1035200041E00E94D11380E090E0A0EAB0E48B87F4
:103530009C87AD87BE876B857C858D859E8520E0C9
:1035400030E04AE755E40E941F02DC01CB018F8383
:103550009887A987BA876F81788589859A8520E0C1
:1035600030E040E85FE30E94250488232CF481E0EA
:1035700090E09E838D833FC06F81788589859A8591
:1035800020E03FEF4FE757E40E94C50318164CF5C3
:103590006B857C858D859E8520E030E040E251E49E
:1035A0000E941F02DC01CB01BC01CD010E94490039
:1035B000DC01CB019E838D830FC080E991E09C8369
:1035C0008B838B819C810197F1F79C838B838D8109
:1035D0009E8101979E838D838D819E81009769F7DF
:1035E00014C06F81788589859A850E944900DC0125
:1035F000CB019E838D838D819E819A83898389816E
:103600009A810197F1F79A83898380E062E040E034
:103610000E94D1136D960FB6F894DEBF0FBECDBFDA
:10362000CF91DF910895DF93CF9300D0CDB7DEB770
:103630009A83898389819A81009789F00BC0E981F7
:10364000FA81208189819A8101969A838983822FC8
:103650000E94B119E981FA818081882381F70F9056
:103660000F90CF91DF910895DF93CF9300D000D0DA
:10367000CDB7DEB789836A838A8181508A83898145
:10368000282F30E03C832B838B819C8182309105F5
:10369000D9F02B813C812330310534F48B819C811E
:1036A0008130910561F01EC02B813C8123303105B2
:1036B00081F08B819C818430910581F013C08A81D7
:1036C00080580E944F180EC08A8180540E944F1863
:1036D00009C08A818C560E944F1804C08A818C527E
:1036E0000E944F180F900F900F900F90CF91DF9185
:1036F0000895DF93CF93CDB7DEB72F970FB6F89429
:10370000DEBF0FBECDBF6C877D878E879F878C8580
:103710009D859E012F5F3F4FB9014AE050E00E9416
:10372000E23BCE0101960E94131B2F960FB6F89430
:10373000DEBF0FBECDBFCF91DF910895DF93CF9352
:10374000CDB7DEB781E00E944F18CF91DF91089589
:10375000DF93CF9300D000D0CDB7DEB79B838A83B1
:103760006C8319828A819B810097B1F080E40E946A
:103770004F1819820EC08981282F30E08A819B81E1
:10378000FC01E20FF31F80810E94B11989818F5FD4
:1037900089838981883078F30F900F900F900F9074
:1037A000CF91DF910895DF93CF930F92CDB7DEB71E
:1037B000898389810E94B1190F90CF91DF9108957B
:1037C000DF93CF93CDB7DEB78091AB029091AC027F
:1037D000A091AD02B091AE020196A11DB11D8093E2
:1037E000AB029093AC02A093AD02B093AE02CF9126
:1037F000DF910895DF93CF930F92CDB7DEB7198293
:103800008091B302882391F484EB92E00E94DC095A
:10381000898380E00E94B00989831092AB021092E4
:10382000AC021092AD021092AE021FC08091B302A2
:103830008130D9F488EB92E00E94DC098983809181
:10384000AB029091AC02A091AD02B091AE02809318
:10385000AF029093B002A093B102B093B2020E9463
:10386000BE0889830E94EE0889838091B3028F5F2E
:103870008093B3020F90CF91DF910895DF93CF93A0
:10388000CDB7DEB764970FB6F894DEBF0FBECDBFDD
:103890008C876D874E872F8719828C856D8541E0D7
:1038A0000E945A138E856F8540E00E945A13CE0104
:1038B0000296998B888BE7E9F1E0FB8BEA8BFAE0C3
:1038C000FC8BEA89FB8900808A899B8901969B8B06
:1038D0008A8BE889F9890082888999890196998B70
:1038E000888B9C8991509C8BEC89EE2351F7CE01FB
:1038F00002960E94170789830E947E0889830E948E
:10390000AE088983EFE5F0E0808180688083CE0196
:1039100002960E94FE088983CE0102960E945B09EE
:103920008983CE0102960E94DF07898364960FB6D1
:10393000F894DEBF0FBECDBFCF91DF910895DF9326
:10394000CF93CDB7DEB76A970FB6F894DEBF0FBE40
:10395000CDBF898F6A8F898D6A8D41E00E94D11316
:1039600080E090E0A0E2B1E48D8B9E8BAF8BB88FAE
:103970006D897E898F89988D2BEA3AEA4AEA50E46C
:103980000E941F02DC01CB01898B9A8BAB8BBC8B15
:1039900069897A898B899C8920E030E040E85FE37F
:1039A0000E94250488231CF481E0888B91C06989DA
:1039B0007A898B899C8920E030E04FE753E40E94AC
:1039C000C50318160CF07BC06D897E898F89988D90
:1039D00020E030E04AE754E40E941903DC01CB0107
:1039E0008C879D87AE87BF876C857D858E859F85FB
:1039F00020E030E04AE755E40E941F02DC01CB01E1
:103A000088879987AA87BB87688579858A859B85FA
:103A100020E030E040E85FE30E94250488232CF496
:103A200081E090E09F838E833FC0688579858A8599
:103A30009B8520E03FEF4FE757E40E94C50318162F
:103A40004CF56C857D858E859F8520E030E040E2D9
:103A500051E40E941F02DC01CB01BC01CD010E9498
:103A60004900DC01CB019F838E830FC080E991E088
:103A70009D838C838C819D810197F1F79D838C833D
:103A80008E819F8101979F838E838E819F81009776
:103A900069F724C0688579858A859B850E944900DD
:103AA000DC01CB019F838E838E819F819B838A83E0
:103AB0008A819B810197F1F79B838A830FC0698973
:103AC0007A898B899C890E944900DC01CB01888B13
:103AD0008889898389818A95F1F78983898D6A8D9F
:103AE00040E00E94D1136A960FB6F894DEBF0FBE75
:103AF000CDBFCF91DF910895EF92FF920F931F9367
:103B0000DF93CF93CDB7DEB765970FB6F894DEBFDE
:103B10000FBECDBF9D8B8C8B188A198A1A8A1B8A7F
:103B20001F868091B302823009F0E6C01092B30282
:103B30008091AF029091B002A091B102B091B20217
:103B40002FEF3FEF40E050E0BC01CD010E94373B3A
:103B50009B01AC018091B8029091B902A091BA0288
:103B6000B091BB02280F391F4A1F5B1F8091B4021E
:103B70009091B502A091B602B091B70279018A0185
:103B8000E81AF90A0A0B1B0BD801C701888B998B1D
:103B9000AA8BBB8B688979898A899B890E94A90431
:103BA000DC01CB01BC01CD012AE037ED4BEE50E446
:103BB0000E941903DC01CB01BC01CD010E94490028
:103BC000DC01CB01EC89FD899183808380E090E06A
:103BD000A6E9B3E48B879C87AD87BE876B857C8520
:103BE0008D859E8520E030E04AE755E40E941F0263
:103BF000DC01CB018F839887A987BA876F8178858D
:103C000089859A8520E030E040E85FE30E94250442
:103C100088232CF481E090E09E838D833FC06F81E8
:103C2000788589859A8520E03FEF4FE757E40E9429
:103C3000C50318164CF56B857C858D859E8520E027
:103C400030E040E251E40E941F02DC01CB01BC01E4
:103C5000CD010E944900DC01CB019E838D830FC002
:103C600080E991E09C838B838B819C810197F1F7A4
:103C70009C838B838D819E8101979E838D838D8113
:103C80009E81009769F714C06F81788589859A8530
:103C90000E944900DC01CB019E838D838D819E8132
:103CA0009A83898389819A810197F1F79A8389831D
:103CB0001092AF021092B0021092B1021092B202B2
:103CC0001092AB021092AC021092AD021092AE02B2
:103CD00081E00E94B0098F87E6E4F0E082898F7D61
:103CE000828BE6E4F0E082898B7F828B0E94AE08B3
:103CF0008F870E947E088F8765960FB6F894DEBF87
:103D00000FBECDBFCF91DF911F910F91FF90EF902C
:103D10000895DF93CF93CDB7DEB781E060E041E057
:103D20000E945A1381E061E041E00E945A1381E051
:103D300062E041E00E945A1381E064E041E00E94A9
:103D40005A13CF91DF910895DF93CF930F92CDB7A0
:103D5000DEB789838981982F917081E060E0492FD7
:103D60000E94D11389818695982F917081E061E03E
:103D7000492F0E94D113898186958695982F91703D
:103D800081E062E0492F0E94D11389818695869552
:103D90008695982F917081E064E0492F0E94D1139D
:103DA0000F90CF91DF910895DF93CF9300D000D093
:103DB0000F92CDB7DEB78D8319821A828D818B83E6
:103DC0001C82CE0102960E94661289830F900F908A
:103DD0000F900F900F90CF91DF910895DF93CF93C5
:103DE00000D000D000D0CDB7DEB79E838D831C827B
:103DF000ED81FE8182810E9406208B83ED81FE8110
:103E000081810E9406208A83ED81FE8180810E944B
:103E1000062089830E94CA128C8380ED0E94AF1213
:103E20008C8380E00E94AF128C838B810E94AF1242
:103E30008C838A810E94AF128C8389810E94AF1289
:103E40008C830E94DF128C8326960FB6F894DEBF17
:103E50000FBECDBFCF91DF910895DF93CF9300D0F8
:103E60000F92CDB7DEB79B838A8319820E94CA1254
:103E7000898380ED0E94AF12898380E00E94AF1297
:103E800089830E94CA12898381ED0E94AF128983BF
:103E90008A819B8102960E94EF1289838A819B818D
:103EA00001960E94EF1289838A819B810E941613DA
:103EB00089830E94DF128983EA81FB8182810E94CB
:103EC0002A20EA81FB818283EA81FB8181810E9431
:103ED0002A20EA81FB818183EA81FB8180810E9423
:103EE0002A20EA81FB8180830F900F900F90CF9161
:103EF000DF910895DF93CF9300D000D000D0CDB7ED
:103F0000DEB79E838D831C82ED81FE8182810E94BB
:103F100006208B83ED81FE8181810E9406208A83A9
:103F2000ED81FE8180810E94062089830E94CA1251
:103F30008C8380ED0E94AF128C8384E00E94AF12CC
:103F40008C838B810E94AF128C838A810E94AF1276
:103F50008C8389810E94AF128C830E94DF128C8334
:103F600026960FB6F894DEBF0FBECDBFCF91DF917E
:103F70000895DF93CF9300D00F92CDB7DEB79B8328
:103F80008A8319820E94CA12898380ED0E94AF122F
:103F9000898384E00E94AF1289830E94CA128983B8
:103FA00081ED0E94AF1289838A819B8102960E94D3
:103FB000EF1289838A819B8101960E94EF12898387
:103FC0008A819B810E94161389830E94DF12898354
:103FD000EA81FB8182810E942A20EA81FB8182831F
:103FE000EA81FB8181810E942A20EA81FB81818311
:103FF000EA81FB8180810E942A20EA81FB81808303
:104000000F900F900F90CF91DF910895DF93CF9392
:1040100000D000D00F92CDB7DEB78C838C819AE0B0
:10402000692F0E94563B892F8B838C819AE0692FE0
:104030000E94563B8A838A81982F9295907F8B812C
:10404000890F89830F900F900F900F900F90CF9151
:10405000DF910895DF93CF9300D000D0CDB7DEB7C6
:104060008C838C818F708B838C8182958F70882F4D
:1040700090E09C01220F331FC901880F991F880F00
:10408000991F820F931F8A839A818B81890F89835D
:1040900089810F900F900F900F90CF91DF9108952D
:1040A000DF93CF930F92CDB7DEB719828981877ED8
:1040B00088608983CE0101960E9405150F90CF91EB
:1040C000DF910895DF93CF9300D000D000D0CDB71B
:1040D000DEB78C837E836D831A8219821B828B816B
:1040E000877E88608B83CE0103966C819E012F5F53
:1040F0003F4FA9010E94751589819A81CC01A0E0EA
:10410000B0E0BC01CD010E94A904DC01CB01BC01DF
:10411000CD0126EF38E24CE950E40E941F02DC0199
:10412000CB01ED81FE8180839183A283B383ED81F6
:10413000FE8180819181A281B381BC01CD0120E00B
:1041400030E040E251E40E941903DC01CB01ED8133
:10415000FE8180839183A283B38326960FB6F89461
:10416000DEBF0FBECDBFCF91DF910895DF93CF9318
:1041700000D0CDB7DEB789836A8389816A8141E047
:104180000E945A130F900F90CF91DF910895DF9303
:10419000CF9300D0CDB7DEB789836A8389816A81E6
:1041A00041E00E94D1130F900F90CF91DF910895BD
:1041B000DF93CF9300D0CDB7DEB789836A8389813F
:1041C0006A8140E00E94D1130F900F90CF91DF9150
:1041D0000895DF93CF9300D0CDB7DEB789836A838C
:1041E00089816A810E9448140F900F90CF91DF91CE
:1041F0000895DF93CF93CDB7DEB782E065E041E06D
:104200000E945A1382E064E041E00E945A1382E067
:1042100063E041E00E945A1382E062E041E00E94C4
:104220005A1383E065E040E00E945A1383E064E0A3
:1042300040E00E945A1383E063E040E00E945A137A
:1042400083E062E040E00E945A13CF91DF9108952D
:10425000DF93CF93CDB7DEB764970FB6F894DEBF88
:104260000FBECDBF9C8B8B8B1A8A198A188A81E06E
:104270008F871A8AD5C0188A16C08889882F90E03F
:10428000FC01E858FE4F20818889882F90E0FC01CE
:10429000E059FE4F9081822F692F41E00E94D11397
:1042A00088898F5F888B8889843038F38A89882F42
:1042B00090E0FC01E858FE4F20818A89882F90E029
:1042C000FC01E059FE4F9081822F692F40E00E944F
:1042D000D11380E090E0A0E2B1E48B879C87AD87AA
:1042E000BE876B857C858D859E8520E030E04AE722
:1042F00055E40E941F02DC01CB018F839887A987B8
:10430000BA876F81788589859A8520E030E040E81A
:104310005FE30E94250488232CF481E090E09E83D3
:104320008D833FC06F81788589859A8520E03FEF36
:104330004FE757E40E94C50318164CF56B857C8542
:104340008D859E8520E030E040E251E40E941F020E
:10435000DC01CB01BC01CD010E944900DC01CB0195
:104360009E838D830FC080E991E09C838B838B813A
:104370009C810197F1F79C838B838D819E810197AE
:104380009E838D838D819E81009769F714C06F8114
:10439000788589859A850E944900DC01CB019E833E
:1043A0008D838D819E819A83898389819A810197EA
:1043B000F1F79A838983198A2DC08989882F90E023
:1043C000FC01E458FE4F20818989882F90E0FC0190
:1043D000EC58FE4F9081822F692F0E9480148F87A6
:1043E0008F858823A1F48A89482F50E08989282F56
:1043F00030E0CA01880F991F880F991F820F931F01
:10440000FC01EF55FE4F8081EB89FC89808389890F
:104410008F5F898B8989843080F28A898F5F8A8B4C
:104420008A89843008F427CF64960FB6F894DEBFEB
:104430000FBECDBFCF91DF910895DF93CF9300D012
:104440000F92CDB7DEB79B838A8319828A819B81C5
:104450000097F1F0EA81FB811086198216C08981EC
:10446000282F30E08A819B81FC01E20FF31F10822C
:104470008981282F30E08A819B81820F931FFC0164
:104480003496108289818F5F89838981843038F3E3
:104490000F900F900F90CF91DF910895DF93CF93FE
:1044A000CDB7DEB764970FB6F894DEBF0FBECDBFB1
:1044B0009C8B8B8B1A8A198A188A81E08F871A8ABB
:1044C0001FC1188A16C08889882F90E0FC01E8581F
:1044D000FE4F20818889882F90E0FC01E059FE4F33
:1044E0009081822F692F41E00E94D11388898F5FCC
:1044F000888B8889843038F38A89882F90E0FC0182
:10450000E858FE4F20818A89882F90E0FC01E0590D
:10451000FE4F9081822F692F40E00E94D11380E0EE
:1045200090E0A0EAB1E48B879C87AD87BE876B855E
:104530007C858D859E8520E030E04AE755E40E9429
:104540001F02DC01CB018F839887A987BA876F810F
:10455000788589859A8520E030E040E85FE30E9415
:10456000250488232CF481E090E09E838D833FC056
:104570006F81788589859A8520E03FEF4FE757E482
:104580000E94C50318164CF56B857C858D859E852C
:1045900020E030E040E251E40E941F02DC01CB0148
:1045A000BC01CD010E944900DC01CB019E838D83BB
:1045B0000FC080E991E09C838B838B819C81019764
:1045C000F1F79C838B838D819E8101979E838D83E0
:1045D0008D819E81009769F714C06F8178858985E8
:1045E0009A850E944900DC01CB019E838D838D81D9
:1045F0009E819A83898389819A810197F1F79A83B1
:104600008983198A76C08989882F90E0FC01E45853
:10461000FE4F20818989882F90E0FC01EC58FE4FE5
:104620009081822F692F0E9480148F878F85882325
:1046300009F05CC0EB89FC898085833008F040C0BC
:10464000EB89FC898085682F70E08A89482F50E0CB
:104650008989282F30E0CA01880F991F880F991F78
:10466000820F931FFC01EF54FE4F20818B899C89A0
:10467000FC01E60FF71F2083EB89FC898085682FFA
:1046800070E08A89482F50E08989282F30E0CA01DC
:10469000880F991F880F991F820F931FFC01EF53FA
:1046A000FE4F20818B899C89860F971FFC013496D1
:1046B0002083EB89FC8980858F5FEB89FC8980876B
:1046C0008A89482F50E08989282F30E0CA01880F55
:1046D000991F880F991F820F931FFC01EF54FE4F03
:1046E00080818D3219F4EB89FC89108689898F5F6E
:1046F000898B8989843008F486CF8A898F5F8A8B79
:104700008A89843008F4DDCE64960FB6F894DEBF53
:104710000FBECDBFCF91DF910895DF93CF93CDB77B
:10472000DEB7AB970FB6F894DEBF0FBECDBF1C82CD
:1047300081E08B831D82CE0106969BA38AA3EDEDBB
:10474000F1E0FDA3ECA3F0E1FEA3ECA1FDA100804C
:104750008CA19DA101969DA38CA3EAA1FBA100823F
:104760008AA19BA101969BA38AA39EA191509EA37F
:10477000EEA1EE2351F7CE01469698A78FA3E1ED67
:10478000F1E0FAA7E9A7FCE0FBA7E9A5FAA50080FC
:1047900089A59AA501969AA789A7EFA1F8A50082F5
:1047A0008FA198A5019698A78FA39BA591509BA731
:1047B000EBA5EE2351F71A820FC08A81282F30E033
:1047C000CE010696FC01E20FF31F80810E941611B4
:1047D0008C838A818F5F8A838A81803170F319820A
:1047E00016C0CE0105960E9430118C838981282F36
:1047F00030E0CE014696FC01E20FF31F90818D81DF
:10480000981711F01B8206C089818F5F8983898187
:104810008C3038F38B81AB960FB6F894DEBF0FBEA9
:10482000CDBFCF91DF910895DF93CF93CDB7DEB7A2
:10483000AB970FB6F894DEBF0FBECDBF1C8281E0F0
:104840008B831D82CE0106969BA38AA3E9EFF1E03C
:10485000FDA3ECA3F0E1FEA3ECA1FDA100808CA1DF
:104860009DA101969DA38CA3EAA1FBA100828AA130
:104870009BA101969BA38AA39EA191509EA3EEA10A
:10488000EE2351F7CE01469698A78FA3EDEEF1E007
:10489000FAA7E9A7FCE0FBA7E9A5FAA5008089A58E
:1048A0009AA501969AA789A7EFA1F8A500828FA1E2
:1048B00098A5019698A78FA39BA591509BA7EBA5C0
:1048C000EE2351F71A820FC08A81282F30E0CE01E3
:1048D0000696FC01E20FF31F80810E9416118C8363
:1048E0008A818F5F8A838A81803170F3198216C032
:1048F000CE0105960E9430118C838981282F30E0EB
:10490000CE014696FC01E20FF31F90818D8198172E
:1049100011F01B8206C089818F5F898389818C3069
:1049200038F38B81AB960FB6F894DEBF0FBECDBFC8
:10493000CF91DF910895DF93CF93CDB7DEB7AB97DB
:104940000FB6F894DEBF0FBECDBF1C8281E08B8313
:104950001D82CE0106969BA38AA3E5E1F2E0FDA3AA
:10496000ECA3F0E1FEA3ECA1FDA100808CA19DA130
:1049700001969DA38CA3EAA1FBA100828AA19BA121
:1049800001969BA38AA39EA191509EA3EEA1EE2324
:1049900051F7CE01469698A78FA3E9E0F2E0FAA777
:1049A000E9A7FCE0FBA7E9A5FAA5008089A59AA5DF
:1049B00001969AA789A7EFA1F8A500828FA198A5D3
:1049C000019698A78FA39BA591509BA7EBA5EE23DB
:1049D00051F71A820FC08A81282F30E0CE01069647
:1049E000FC01E20FF31F80810E9416118C838A81E3
:1049F0008F5F8A838A81803170F3198216C0CE015D
:104A000005960E9430118C838981282F30E0CE01D9
:104A10004696FC01E20FF31F90818D81981711F0EB
:104A20001B8206C089818F5F898389818C3038F32E
:104A30008B81AB960FB6F894DEBF0FBECDBFCF9182
:104A4000DF910895DF93CF93CDB7DEB7E6970FB62A
:104A5000F894DEBF0FBECDBF1B8A81E08A8B1C8A13
:104A6000198ACE0145969EA78DA7E1E3F2E0F8AB47
:104A7000EFA7FCE0F9ABEFA5F8A900808FA598A9F6
:104A8000019698AB8FA7EDA5FEA500828DA59EA5EA
:104A900001969EA78DA799A9915099ABE9A9EE23FC
:104AA00051F7CE0181969BAB8AABE5E2F2E0FDAB1C
:104AB000ECABFCE0FEABECA9FDA900808CA99DA9A4
:104AC00001969DAB8CABEAA9FBA900828AA99BA9A0
:104AD00001969BAB8AAB9EA991509EABEEA9EE23AB
:104AE00051F760E071EE80E090E00E94BB108B8B8C
:104AF000188A0FC08889282F30E0CE014596FC0126
:104B0000E20FF31F80810E9416118B8B88898F5FC3
:104B1000888B88898C3070F31F861AC0CE0144962A
:104B20000E9430118B8B8F85282F30E0CE0181962B
:104B3000FC01E20FF31F90818C89981739F4898961
:104B40008F5F898B8F858F5F8F8702C01A8A03C022
:104B50008F858C3018F389898C3009F075C00E94DC
:104B60008D238A8B80E090E0A8E4B3E48B879C8758
:104B7000AD87BE876B857C858D859E8520E030E086
:104B80004AE755E40E941F02DC01CB018F8398871E
:104B9000A987BA876F81788589859A8520E030E07A
:104BA00040E85FE30E94250488232CF481E090E034
:104BB0009E838D833FC06F81788589859A8520E0AB
:104BC0003FEF4FE757E40E94C50318164CF56B857D
:104BD0007C858D859E8520E030E040E251E40E9496
:104BE0001F02DC01CB01BC01CD010E944900DC01A8
:104BF000CB019E838D830FC080E991E09C838B83E2
:104C00008B819C810197F1F79C838B838D819E81A1
:104C100001979E838D838D819E81009769F714C0D3
:104C20006F81788589859A850E944900DC01CB01D6
:104C30009E838D838D819E819A83898389819A81C8
:104C40000197F1F79A8389838A89E6960FB6F894DB
:104C5000DEBF0FBECDBFCF91DF910895DF93CF931D
:104C6000CDB7DEB7C454D0400FB6F894DEBF0FBE48
:104C7000CDBF19A281E088A31AA21F8ECE01839610
:104C80009CAF8BAFE9E4F2E0FEAFEDAFFCE0FFAF2D
:104C9000EDADFEAD00808DAD9EAD01969EAF8DAFAA
:104CA000EBADFCAD00828BAD9CAD01969CAF8BAFA4
:104CB0009FAD91509FAFEFADEE2351F7CE018F9690
:104CC00022969FAF8EAF2297EDE3F2E02496FFAFDE
:104CD000EEAF2497FCE02596FFAF25972496EEAD26
:104CE000FFAD2497008024968EAD9FAD249701964A
:104CF00024969FAF8EAF24972296EEADFFAD2297FC
:104D0000008222968EAD9FAD2297019622969FAF8C
:104D10008EAF229725969FAD2597915025969FAFF0
:104D200025972596EFAD2597EE23C1F61E8E0FC071
:104D30008E8D282F30E0CE018396FC01E20FF31F09
:104D400080810E94161189A38E8D8F5F8E8F8E8D2C
:104D50008C3070F31D8E17C0CE0182960E943011E8
:104D600089A38D8D282F30E0CE018F96FC01E20FB4
:104D7000F31F90818AA1981719F48F8D8F5F8F8F01
:104D80008D8D8F5F8D8F8D8D8C3030F38F8D8C302E
:104D900009F076C00E94142488A380E090E0A8E483
:104DA000B3E4898F9A8FAB8FBC8F698D7A8D8B8D91
:104DB0009C8D20E030E04AE755E40E941F02DC01B0
:104DC000CB018D8B9E8BAF8BB88F6D897E898F8940
:104DD000988D20E030E040E85FE30E9425048823BE
:104DE0002CF481E090E09C8B8B8B3FC06D897E8999
:104DF0008F89988D20E03FEF4FE757E40E94C5036D
:104E000018164CF5698D7A8D8B8D9C8D20E030E0E5
:104E100040E251E40E941F02DC01CB01BC01CD0144
:104E20000E944900DC01CB019C8B8B8B0FC080E979
:104E300091E09A8B898B89899A890197F1F79A8BEE
:104E4000898B8B899C8901979C8B8B8B8B899C8907
:104E5000009769F78BC06D897E898F89988D0E9434
:104E60004900DC01CB019C8B8B8B8B899C89988BB7
:104E70008F878F8598890197F1F7988B8F8776C0F8
:104E80000E949B2488A380E090E0A8E4B3E48B8791
:104E90009C87AD87BE876B857C858D859E8520E050
:104EA00030E04AE755E40E941F02DC01CB018F830A
:104EB0009887A987BA876F81788589859A8520E048
:104EC00030E040E85FE30E94250488232CF481E071
:104ED00090E09E838D833FC06F81788589859A8518
:104EE00020E03FEF4FE757E40E94C50318164CF54A
:104EF0006B857C858D859E8520E030E040E251E425
:104F00000E941F02DC01CB01BC01CD010E944900BF
:104F1000DC01CB019E838D830FC080E991E09C83EF
:104F20008B838B819C810197F1F79C838B838D818F
:104F30009E8101979E838D838D819E81009769F765
:104F400014C06F81788589859A850E944900DC01AB
:104F5000CB019E838D838D819E819A8389838981F4
:104F60009A810197F1F79A83898318A20E948D2371
:104F7000982F88A1892388A388A1CC5BDF4F0FB627
:104F8000F894DEBF0FBECDBFCF91DF910895DF93C0
:104F9000CF93CDB7DEB7CE56D0400FB6F894DEBF74
:104FA0000FBECDBFFE01E959FF4F80831FAE81E0E8
:104FB0008EAFFE01E05CFF4F10821DAEFE01EF5B85
:104FC000FF4F8FEE8083FE01EE5BFF4F81E0808319
:104FD000FE01ED5BFF4F8FEF8083FE01EC5BFF4F27
:104FE0008FEF8083FE01EB5BFF4F8FEF8083FE012D
:104FF000EA5BFF4F8FEF8083FE01E95BFF4F81E0AB
:105000008083FE01E85BFF4F1082FE01E75BFF4FEC
:1050100084E08083FE01E65BFF4F82E08083DE0157
:10502000A55BBF4FFE01E959FF4F80818C93FE01C4
:10503000E45BFF4F1082FE01E35BFF4F88E080835B
:10504000FE01E25BFF4F8FEE8083FE01E25BFF4FCC
:1050500081E08183FE01E25BFF4F8FEF8283FE01DF
:10506000E25BFF4F8FEF8383FE01E25BFF4F8FEF29
:105070008483FE01E25BFF4F8FEF8583FE01E25BDD
:10508000FF4F81E08683FE01E25BFF4F1782FE0146
:10509000E25BFF4F84E08087FE01E25BFF4F82E02E
:1050A0008187DE01A25BBF4FFE01E959FF4F80817E
:1050B0001A968C931A97FE01E25BFF4F1386FE014E
:1050C000E25BFF4F89E08487CE01855A9F4FAC9603
:1050D0009FAF8EAFAC9725E532E0AE963FAF2EAFD7
:1050E000AE973CE0AF963FAFAF97AE96EEADFFAD5B
:1050F000AE970080AE962EAD3FADAE972F5F3F4F7F
:10510000AE963FAF2EAFAE97AC96EEADFFADAC977F
:105110000082AC962EAD3FADAC972F5F3F4FAC9663
:105120003FAF2EAFAC97AF963FADAF973150AF9634
:105130003FAFAF97AF968FADAF978823B1F6FE0123
:10514000E959FF4F8081E82FF0E0AA96FFAFEEAF5C
:10515000AA97AA962EAD3FADAA972130310549F006
:10516000AA968EAD9FADAA978230910509F42DC104
:1051700057C21CAE10C08CAD282F30E0CE018F5B23
:105180009F4FFC01E20FF31F80810E9416118FAF29
:105190008CAD8F5F8CAF8CAD8D3068F31BAE1CC0B7
:1051A000CE01805C9F4F0E9430118FAF8BAD282FB6
:1051B00030E0CE01855A9F4FFC01E20FF31F908132
:1051C000FE01E05CFF4F8081981719F48DAD8F5F71
:1051D0008DAF8BAD8F5F8BAF8BAD8C3008F38DAD0A
:1051E0008C3009F076C00E9414248EAF80E090E0ED
:1051F000A8E4B3E48DAB9EABAFABB8AF6DA97EA90D
:105200008FA998AD20E030E04AE755E40E941F02E4
:10521000DC01CB0189AB9AABABABBCAB69A97AA97A
:105220008BA99CA920E030E040E85FE30E942504C0
:1052300088232CF481E090E098AB8FA73FC069A948
:105240007AA98BA99CA920E03FEF4FE757E40E9481
:10525000C50318164CF56DA97EA98FA998AD20E05D
:1052600030E040E251E40E941F02DC01CB01BC01AE
:10527000CD010E944900DC01CB0198AB8FA70FC084
:1052800080E991E09EA78DA78DA59EA50197F1F7D6
:105290009EA78DA78FA598A9019798AB8FA78FA5DB
:1052A00098A9009769F78BC069A97AA98BA99CA9CD
:1052B0000E944900DC01CB0198AB8FA78FA598A96C
:1052C0009CA78BA78BA59CA50197F1F79CA78BA703
:1052D00076C00E949B248EAF80E090E0A8E4B3E407
:1052E0008FA398A7A9A7BAA76FA178A589A59AA502
:1052F00020E030E04AE755E40E941F02DC01CB01C8
:105300008BA39CA3ADA3BEA36BA17CA18DA19EA1E9
:1053100020E030E040E85FE30E94250488232CF47D
:1053200081E090E09AA389A33FC06BA17CA18DA1ED
:105330009EA120E03FEF4FE757E40E94C5031816F7
:105340004CF56FA178A589A59AA520E030E040E250
:1053500051E40E941F02DC01CB01BC01CD010E947F
:105360004900DC01CB019AA389A30FC080E991E039
:1053700098A38F8F8F8D98A10197F1F798A38F8FA6
:1053800089A19AA101979AA389A389A19AA10097BB
:1053900069F714C06BA17CA18DA19EA10E94490058
:1053A000DC01CB019AA389A389A19AA19E8F8D8F3D
:1053B0008D8D9E8D0197F1F79E8F8D8F1EAE0E9471
:1053C0008D239EAD89238EAF2BC11AAE10C08AAD3E
:1053D000282F30E0CE01825B9F4FFC01E20FF31FCC
:1053E00080810E9416118FAF8AAD8F5F8AAF8AAD20
:1053F0008D3068F319AE1CC0CE01805C9F4F0E94B7
:1054000030118FAF89AD282F30E0CE01855A9F4FE4
:10541000FC01E20FF31F9081FE01E05CFF4F8081F1
:10542000981719F48DAD8F5F8DAF89AD8F5F89AF00
:1054300089AD8C3008F38DAD8C3009F076C00E94B8
:1054400014248EAF80E090E0A8E4B3E4898F9A8FB3
:10545000AB8FBC8F698D7A8D8B8D9C8D20E030E079
:105460004AE755E40E941F02DC01CB018D8B9E8B25
:10547000AF8BB88F6D897E898F89988D20E030E061
:1054800040E85FE30E94250488232CF481E090E04B
:105490009C8B8B8B3FC06D897E898F89988D20E096
:1054A0003FEF4FE757E40E94C50318164CF5698D8E
:1054B0007A8D8B8D9C8D20E030E040E251E40E949B
:1054C0001F02DC01CB01BC01CD010E944900DC01BF
:1054D000CB019C8B8B8B0FC080E991E09A8B898BE1
:1054E00089899A890197F1F79A8B898B8B899C8995
:1054F00001979C8B8B8B8B899C89009769F78BC05C
:105500006D897E898F89988D0E944900DC01CB01CD
:105510009C8B8B8B8B899C89988B8F878F859889A7
:105520000197F1F7988B8F8776C00E949B248EAFEE
:1055300080E090E0A8E4B3E48B879C87AD87BE87CA
:105540006B857C858D859E8520E030E04AE755E4BB
:105550000E941F02DC01CB018F839887A987BA873D
:105560006F81788589859A8520E030E040E85FE3A7
:105570000E94250488232CF481E090E09E838D8393
:105580003FC06F81788589859A8520E03FEF4FE79E
:1055900057E40E94C50318164CF56B857C858D85F4
:1055A0009E8520E030E040E251E40E941F02DC01D1
:1055B000CB01BC01CD010E944900DC01CB019E83DF
:1055C0008D830FC080E991E09C838B838B819C81CC
:1055D0000197F1F79C838B838D819E8101979E8338
:1055E0008D838D819E81009769F714C06F817885C6
:1055F00089859A850E944900DC01CB019E838D83B9
:105600008D819E819A83898389819A810197F1F79F
:105610009A8389831EAE0E948D239EAD89238EAF0F
:105620008EADC259DF4F0FB6F894DEBF0FBECDBFAF
:10563000CF91DF910895DF93CF93CDB7DEB7C454F8
:10564000D0400FB6F894DEBF0FBECDBF19A281E0E7
:1056500088A31AA21F8ECE0183969CAF8BAFEDE676
:10566000F2E0FEAFEDAFFCE0FFAFEDADFEAD0080D0
:105670008DAD9EAD01969EAF8DAFEBADFCAD0082C2
:105680008BAD9CAD01969CAF8BAF9FAD91509FAF02
:10569000EFADEE2351F7CE018F9622969FAF8EAFDE
:1056A0002297E1E6F2E02496FFAFEEAF2497FCE00C
:1056B0002596FFAF25972496EEADFFAD2497008089
:1056C00024968EAD9FAD2497019624969FAF8EAF02
:1056D00024972296EEADFFAD2297008222968EADE2
:1056E0009FAD2297019622969FAF8EAF2297259667
:1056F0009FAD2597915025969FAF25972596EFADA5
:105700002597EE23C1F61E8E0FC08E8D282F30E018
:10571000CE018396FC01E20FF31F80810E941611D7
:1057200089A38E8D8F5F8E8F8E8D8C3070F31D8E42
:1057300017C0CE0182960E94301189A38D8D282F2B
:1057400030E0CE018F96FC01E20FF31F90818AA119
:10575000981719F48F8D8F5F8F8F8D8D8F5F8D8F41
:105760008D8D8C3030F38F8D8C3009F076C00E9497
:10577000142488A380E090E0A8E4B3E4898F9A8F92
:10578000AB8FBC8F698D7A8D8B8D9C8D20E030E046
:105790004AE755E40E941F02DC01CB018D8B9E8BF2
:1057A000AF8BB88F6D897E898F89988D20E030E02E
:1057B00040E85FE30E94250488232CF481E090E018
:1057C0009C8B8B8B3FC06D897E898F89988D20E063
:1057D0003FEF4FE757E40E94C50318164CF5698D5B
:1057E0007A8D8B8D9C8D20E030E040E251E40E9468
:1057F0001F02DC01CB01BC01CD010E944900DC018C
:10580000CB019C8B8B8B0FC080E991E09A8B898BAD
:1058100089899A890197F1F79A8B898B8B899C8961
:1058200001979C8B8B8B8B899C89009769F78BC028
:105830006D897E898F89988D0E944900DC01CB019A
:105840009C8B8B8B8B899C89988B8F878F85988974
:105850000197F1F7988B8F8776C00E949B2488A3CD
:1058600080E090E0A8E4B3E48B879C87AD87BE8797
:105870006B857C858D859E8520E030E04AE755E488
:105880000E941F02DC01CB018F839887A987BA870A
:105890006F81788589859A8520E030E040E85FE374
:1058A0000E94250488232CF481E090E09E838D8360
:1058B0003FC06F81788589859A8520E03FEF4FE76B
:1058C00057E40E94C50318164CF56B857C858D85C1
:1058D0009E8520E030E040E251E40E941F02DC019E
:1058E000CB01BC01CD010E944900DC01CB019E83AC
:1058F0008D830FC080E991E09C838B838B819C8199
:105900000197F1F79C838B838D819E8101979E8304
:105910008D838D819E81009769F714C06F81788592
:1059200089859A850E944900DC01CB019E838D8385
:105930008D819E819A83898389819A810197F1F76C
:105940009A83898318A20E948D23982F88A1892386
:1059500088A388A1CC5BDF4F0FB6F894DEBF0FBEE3
:10596000CDBFCF91DF910895DF93CF93CDB7DEB751
:10597000C354D0400FB6F894DEBF0FBECDBF8EAF7C
:1059800019A281E088A31AA21F8E8EAD982F925F74
:105990008FEE8BA381E08CA38FEF8DA38FEF8EA36F
:1059A0008FEF8FA38FEF88A781E089A71AA686E0E3
:1059B0008BA786E08CA781E08DA71EA68EAD8FA752
:1059C00018AA99ABCE01C29621969FAF8EAF2197B0
:1059D000E9E7F2E02396FFAFEEAF2397FCE02496D1
:1059E000FFAF24972396EEADFFAD2397008023965B
:1059F0008EAD9FAD2397019623969FAF8EAF2397D1
:105A00002196EEADFFAD2197008221968EAD9FAD20
:105A10002197019621969FAF8EAF219724969FAD37
:105A20002497915024969FAF24972496EFAD249706
:105A3000EE23C1F61E8E0FC08E8D282F30E0CE01D2
:105A40008396FC01E20FF31F80810E94161189A347
:105A50008E8D8F5F8E8F8E8D8F3070F31D8E17C061
:105A6000CE0182960E94301189A38D8D282F30E0BF
:105A7000CE01C296FC01E20FF31F90818AA1981714
:105A800019F48F8D8F5F8F8F8D8D8F5F8D8F8D8DA3
:105A90008C3030F38F8D8C3009F076C00E94142446
:105AA00088A380E090E0A8E4B3E4898F9A8FAB8F5D
:105AB000BC8F698D7A8D8B8D9C8D20E030E04AE71C
:105AC00055E40E941F02DC01CB018D8B9E8BAF8BB6
:105AD000B88F6D897E898F89988D20E030E040E80D
