:100000000C942A000C946E0E0C94A60E0C94DE0E2A
:100010000C9447000C9447000C9451090C94190956
:100020000C94E1080C94A9080C941D0D0C94E50C9B
:100030000C9458100C9447000C9447000C94470003
:100040000C9447000C9447000C9447000C94470014
:100050000C94470011241FBECFE5D8E0DEBFCDBF12
:1000600010E0A0E6B0E0EEEDF8E402C005900D92DD
:10007000AE3EB107D9F711E0AEEEB0E001C01D927F
:10008000A037B107E1F70E94B71E0C946D240C94C1
:100090000000EF92FF920F931F937B018C0120E0F1
:1000A00030E040E05FE40E94490388238CF0C801FF
:1000B000B70120E030E040E05FE40E94C1010E940F
:1000C000A9039B01AC01205030404040504806C07D
:1000D000C801B7010E94A9039B01AC01B901CA0183
:1000E0001F910F91FF90EF900895A0E0B0E0EBE733
:1000F000F0E00C946421DC012B01FA019C91923018
:1001000008F439C1EB018881823008F433C194309E
:1001100069F4843009F02FC111969C91119789815F
:10012000981709F428C1A7E9B0E025C1843009F483
:1001300021C18230A9F4923009F01DC19A01AD01AC
:1001400088E0EA010990AE01E90109929E0181501F
:10015000C1F7E201898111969C918923818308C1AD
:10016000923009F407C112962D903C901397EB0141
:100170008A819B811496AD90BD90CD90DC901797AD
:10018000EC80FD800E811F819101281B390BB90184
:1001900037FF04C066277727621B730B6032710537
:1001A0000CF061C0121613066CF537014801062EDB
:1001B00004C096948794779467940A94D2F721E0C8
:1001C00030E040E050E004C0220F331F441F551FB1
:1001D0006A95D2F721503040404050402E213F21B7
:1001E00040235123211531054105510521F021E01E
:1001F00030E040E050E079018A01E628F72808293C
:1002000019293CC0232BD1F1260E371E350146019A
:10021000062E04C096948794779467940A94D2F734
:1002200021E030E040E050E004C0220F331F441FC3
:10023000551F6A95D2F721503040404050402A2146
:100240003B214C215D21211531054105510521F04E
:1002500021E030E040E050E059016A01A628B728CB
:10026000C828D9280BC0821593052CF01C01AA249C
:10027000BB24650103C0EE24FF24870111969C91E5
:10028000D20111968C91981709F445C0992339F041
:10029000A80197012A193B094C095D0906C0A6016E
:1002A00095012E193F09400B510B57FD08C01182D3
:1002B0003382228224833583468357831DC081E0A5
:1002C00081833382228288279927DC01821B930B4A
:1002D000A40BB50B84839583A683B7830DC0220F2F
:1002E000331F441F551F24833583468357838281E0
:1002F000938101979383828324813581468157813D
:10030000DA01C9010197A109B1098F5F9F4FAF4F72
:10031000BF4328F30BC0918333822282EA0CFB1C7B
:100320000C1D1D1DE482F5820683178383E0808304
:10033000248135814681578157FF1AC0C901AA27F8
:1003400097FDA095BA2F81709070A070B0705695EF
:10035000479537952795822B932BA42BB52B848318
:100360009583A683B7838281938101969383828349
:10037000DF0101C0D201CD01CDB7DEB7E2E10C94BF
:100380008021A0E2B0E0E7ECF1E00C9470216983F9
:100390007A838B839C832D833E834F835887E9E048
:1003A000EE2EF12CEC0EFD1ECE010196B7010E943F
:1003B000D2048E010F5E1F4FCE010596B8010E9438
:1003C000D2048A8991E089278A8BC701B801AE01DE
:1003D000475E5F4F0E9475000E94FD03A096E6E015
:1003E0000C948C21A0E2B0E0E8EFF1E00C947021D5
:1003F00069837A838B839C832D833E834F835887C5
:10040000F9E0EF2EF12CEC0EFD1ECE010196B701A6
:100410000E94D2048E010F5E1F4FCE010596B801D7
:100420000E94D204C701B801AE01475E5F4F0E942F
:1004300075000E94FD03A096E6E00C948C21A0E2DA
:10044000B0E0E5E2F2E00C94642169837A838B8367
:100450009C832D833E834F835887CE010196BE0136
:10046000675F7F4F0E94D204CE010596BE016F5E8A
:100470007F4F0E94D2049985923088F0898982301A
:10048000C8F0943019F4823051F404C0843029F457
:10049000923081F487E990E0C6C0923049F420E0C0
:1004A0009A858A89981321E02A87CE010996BBC0D4
:1004B000823049F420E09A858A89981321E02A8BBA
:1004C000CE014196B0C02D843E844F8458886D88FB
:1004D0007E888F88988CEE24FF248701AA24BB2471
:1004E000650140E050E060E070E0E0E0F0E0C10174
:1004F00081709070892BE9F0E60CF71C081D191D1E
:100500009A01AB012A0D3B1D4C1D5D1D80E090E062
:10051000A0E0B0E0E614F7040805190520F481E036
:1005200090E0A0E0B0E0BA01A901480F591F6A1F8E
:100530007B1FAA0CBB1CCC1CDD1C97FE08C081E0F5
:1005400090E0A0E0B0E0A82AB92ACA2ADB2A3196B6
:10055000E032F10549F0660C771C881C991C569412
:10056000479437942794C3CFFA85EA892B893C892D
:100570008B859C85280F391F2E5F3F4F17C0CA01FE
:1005800081709070892B61F016950795F794E79428
:1005900080E090E0A0E0B0E8E82AF92A0A2B1B2BC3
:1005A00076956795579547952F5F3F4F77FDE7CF36
:1005B0000CC0440F551F661F771F17FD4160EE0CDE
:1005C000FF1C001F111F21503040403090E05907A0
:1005D00090E0690790E4790760F32B8F3C8FDB0193
:1005E000CA018F779070A070B07080349105A1051A
:1005F000B10561F447FD0AC0E114F10401051105DC
:1006000029F0405C5F4F6F4F7F4F40781A8EFE1786
:1006100011F081E08A8F4D8F5E8F6F8F78A383E01A
:10062000898FCE0149960E94FD03A096E2E10C94C9
:100630008021A8E1B0E0EFE1F3E00C947021698340
:100640007A838B839C832D833E834F83588789E0F5
:10065000E82EF12CEC0EFD1ECE010196B7010E9492
:10066000D2048E010F5E1F4FCE010596B8010E9485
:10067000D2048985823040F08989823028F0C70110
:10068000B8010E944A0501C08FEF6896E6E00C941D
:100690008C21A8E1B0E0EFE4F3E00C9470216983D1
:1006A0007A838B839C832D833E834F83588789E095
:1006B000E82EF12CEC0EFD1ECE010196B7010E9432
:1006C000D2048E010F5E1F4FCE010596B8010E9425
:1006D000D2048985823040F08989823028F0C701B0
:1006E000B8010E944A0501C08FEF6896E6E00C94BD
:1006F0008C21A8E1B0E0EFE7F3E00C94702169836E
:100700007A838B839C832D833E834F83588789E034
:10071000E82EF12CEC0EFD1ECE010196B7010E94D1
:10072000D2048E010F5E1F4FCE010596B8010E94C4
:10073000D2048985823040F08989823028F0C7014F
:10074000B8010E944A0501C081E06896E6E00C9479
:100750008C21ACE0B0E0EFEAF3E00C947421698303
:100760007A838B839C83CE010196BE016B5F7F4FA2
:100770000E94D2048D81823061F1823050F1843048
:1007800021F48E81882351F12EC02F81388537FDC9
:1007900020C06E812F3131051CF06623F9F023C093
:1007A0008EE190E0821B930B29853A854B855C8511
:1007B00004C056954795379527958A95D2F76623B5
:1007C000B1F050954095309521953F4F4F4F5F4F79
:1007D0000EC020E030E040E050E009C02FEF3FEFD6
:1007E0004FEF5FE704C020E030E040E050E8B9019F
:1007F000CA012C96E2E00C949021DF92EF92FF92D6
:100800000F931F93FC01E480F58006811781D1804E
:100810008081823048F480E090E0A0E1B0E0E82AF6
:10082000F92A0A2B1B2BA5C0843009F49FC0823003
:1008300021F4EE24FF24870105C0E114F104010531
:10084000110519F4E0E0F0E096C0628173819FEF3A
:10085000623879070CF05BC022E83FEF261B370BAC
:100860002A3131052CF020E030E040E050E02AC091
:10087000B801A701022E04C0769567955795479554
:100880000A94D2F781E090E0A0E0B0E004C0880FC5
:10089000991FAA1FBB1F2A95D2F70197A109B10979
:1008A0008E219F21A023B1230097A105B10521F03E
:1008B00081E090E0A0E0B0E09A01AB01282B392B59
:1008C0004A2B5B2BDA01C9018F779070A070B07052
:1008D00080349105A105B10539F427FF09C0205CDA
:1008E0003F4F4F4F5F4F04C0215C3F4F4F4F5F4F13
:1008F000E0E0F0E02030A0E03A07A0E04A07A0E402
:100900005A0710F0E1E0F0E079018A0127C0603871
:10091000710564F5FB01E158FF4FD801C7018F77DE
:100920009070A070B07080349105A105B10539F4C4
:10093000E7FE0DC080E490E0A0E0B0E004C08FE3EB
:1009400090E0A0E0B0E0E80EF91E0A1F1B1F17FFA1
:1009500005C016950795F794E794319687E01695AC
:100960000795F794E7948A95D1F705C0EE24FF2404
:100970008701EFEFF0E06E2F679566276795902F60
:100980009F77D794DD24D7948E2F8695492F462BB9
:10099000582F5D29B701CA011F910F91FF90EF9069
:1009A000DF900895FC01DB01408151812281622F9B
:1009B0006F7770E0221F2227221F9381892F880FD3
:1009C000822B282F30E0991F9927991F11969C930D
:1009D000119721153105A9F54115510561057105DD
:1009E00011F482E037C082E89FEF13969C938E93B8
:1009F00012979A01AB0167E0220F331F441F551F66
:100A00006A95D1F783E08C930DC0220F331F441FEA
:100A1000551F12968D919C911397019713969C9355
:100A20008E931297203080E0380780E0480780E4FA
:100A3000580758F314962D933D934D935C93179755
:100A400008952F3F310579F4411551056105710570
:100A500019F484E08C93089564FF03C081E08C93C3
:100A600012C01C9210C02F57304013963C932E9307
:100A7000129783E08C9387E0440F551F661F771F02
:100A80008A95D1F7706414964D935D936D937C9322
:100A9000179708951F93DC01FB019C91923008F495
:100AA00047C08081823008F443C0943051F41196DD
:100AB0001C91843099F58181682F70E0611B710968
:100AC0003FC0843021F0923031F48230B9F181811D
:100AD000882389F12DC011961C9111978230F1F075
:100AE00081811817D9F412962D913C911397828128
:100AF00093818217930794F028173907BCF0149656
:100B00008D919D910D90BC91A02D248135814681C0
:100B10005781281739074A075B0718F4112341F05A
:100B20000AC082179307A407B50740F4112319F0F0
:100B300061E070E005C06FEF7FEF02C060E070E041
:100B4000CB011F910895DF93CF9300D000D00F9277
:100B5000CDB7DEB79B838A8319828A819B810097F8
:100B600019F481E08983AEC0A6E4B0E0EA81FB819C
:100B700080858F70817081708170982F9170199627
:100B80008C9119978E7F892B19968C93A6E4B0E0EF
:100B9000EA81FB8180858F70882F90E095958795FD
:100BA0008170817081708170982F990F19968C9146
:100BB00019978D7F892B19968C93A6E4B0E0EA8172
:100BC000FB8180858F70882F90E09595879595950E
:100BD00087958170817081708170982F990F990F1E
:100BE000990F18968C911897877F892B18968C935C
:100BF000A6E4B0E0EA81FB8180858F70882F90E0C9
:100C00009595879595958795959587958170817030
:100C100081708170982F9295907F18968C9118977B
:100C20008F7E892B18968C93A6E4B0E0EA81FB8135
:100C30008085982F991F9927991F81858170880F2A
:100C4000892B982F9295990F990F907C19968C91DA
:100C500019978F73892B19968C93A6E4B0E0EA81DB
:100C6000FB818185869583708370982F9295907F04
:100C700019968C9119978F7C892B19968C931997BB
:100C8000EA81FB8181858695869586958170282FDE
:100C900030E03D832C838C819D81009759F02C811D
:100CA0003D812130310561F4E6E4F0E08085806427
:100CB000808708C0E6E4F0E080858F7B808702C0F3
:100CC00082E0898389810F900F900F900F900F9091
:100CD000CF91DF910895DF93CF9300D00F92CDB7DE
:100CE000DEB79B838A8319828A819B81009719F4DE
:100CF00081E0898343C08A819B81009799F4A6E4AF
:100D0000B0E0EA81FB81808582958F708770982F93
:100D1000977018968C911897887F892B18968C93CA
:100D200018972CC0A6E4B0E0EA81FB81808582950B
:100D30008F708770982F977018968C911897887F6E
:100D4000892B18968C9383E064E041E00E94841123
:100D500083E065E041E00E94841183E066E040E0CA
:100D60000E948411E6E4F0E01482E6E4F0E01582EB
:100D7000E6E4F0E01282E6E4F0E0138289810F906D
:100D80000F900F90CF91DF910895DF93CF9300D014
:100D90000F92CDB7DEB79B838A8319828A819B81AC
:100DA000009719F481E0898305C0E6E4F0E08085CE
:100DB000887F808789810F900F900F90CF91DF916E
:100DC0000895DF93CF9300D00F92CDB7DEB79B830A
:100DD0008A8319828A819B81009719F481E0898333
:100DE00012C0E6E4F0E08781882F90E0382F2227B8
:100DF000E6E4F0E08681882F90E0820F931FEA817D
:100E0000FB819183808389810F900F900F90CF9108
:100E1000DF910895DF93CF9300D000D0CDB7DEB738
:100E20009B838A836C8319828A819B81009711F44A
:100E300081E0898389810F900F900F900F90CF915F
:100E4000DF910895DF93CF930F92CDB7DEB719826C
:100E5000E6E4F0E083898460838B89810F90CF91F1
:100E6000DF910895DF93CF930F92CDB7DEB719824C
:100E7000E6E4F0E083898061838B89810F90CF91D4
:100E8000DF910895DF93CF930F92CDB7DEB719822C
:100E9000E6E4F0E083898860838B89810F90CF91AD
:100EA000DF910895DF93CF930F92CDB7DEB719820C
:100EB000E6E4F0E083898062838B89810F90CF9193
:100EC000DF910895DF93CF930F92CDB7DEB71982EC
:100ED000E6E4F0E083898B7F838B89810F90CF914B
:100EE000DF910895DF93CF930F92CDB7DEB71982CC
:100EF000E6E4F0E083898F7E838B89810F90CF9128
:100F0000DF910895DF93CF930F92CDB7DEB71982AB
:100F1000E6E4F0E08389877F838B89810F90CF910E
:100F2000DF910895DF93CF930F92CDB7DEB719828B
:100F3000E6E4F0E083898F7D838B89810F90CF91E8
:100F4000DF910895DF93CF9300D00F92CDB7DEB736
:100F50009B838A8319828A819B81009719F481E09F
:100F6000898308C0EA81FB81808191819093EF00A1
:100F70008093EE0089810F900F900F90CF91DF91B9
:100F80000895DF93CF9300D00F92CDB7DEB79B8348
:100F90008A8319828A819B81009719F481E0898371
:100FA00008C0EA81FB81828193819093F300809352
:100FB000F20089810F900F900F90CF91DF910895EB
:100FC000DF93CF9300D00F92CDB7DEB79B838A8398
:100FD00019828A819B81009719F481E0898308C076
:100FE000EA81FB81848195819093F1008093F000E8
:100FF00089810F900F900F90CF91DF910895DF932B
:10100000CF9300D00F92CDB7DEB79B838A8319822E
:101010008A819B81009719F481E0898308C0EA8165
:10102000FB81868197819093F5008093F4008981FC
:101030000F900F900F90CF91DF910895DF93CF9392
:1010400000D000D00F92CDB7DEB79B838A836C832C
:101050004D8319828A819B81009711F481E08983F5
:1010600089810F900F900F900F900F90CF91DF918B
:101070000895DF93CF9300D000D00F92CDB7DEB7A5
:101080009B838A836C834D8319828A819B8100971D
:1010900011F481E0898389810F900F900F900F9058
:1010A0000F90CF91DF910895DF93CF9300D000D0C0
:1010B000CDB7DEB78A8319828A81282F30E03C833E
:1010C0002B838B819C81009759F02B813C812130AF
:1010D000310561F4E6E4F0E080858064808708C033
:1010E000E6E4F0E080858F7B808702C082E0898320
:1010F00089810F900F900F900F90CF91DF910895FD
:10110000DF93CF9300D00F92CDB7DEB79B838A8356
:1011100019828A819B81009719F481E0898312C02A
:10112000E6E4F0E08181882F90E0382F2227E6E482
:10113000F0E08081882F90E0820F931FEA81FB818D
:101140009183808389810F900F900F90CF91DF91D1
:1011500008951F920F920FB60F9211242F933F9371
:101160004F935F936F937F938F939F93AF93BF93AF
:10117000EF93FF93DF93CF93CDB7DEB7E6E4F0E0D4
:1011800082898B7F828B8091EE009091EF00009797
:1011900029F0E091EE00F091EF000995CF91DF91F9
:1011A000FF91EF91BF91AF919F918F917F916F913F
:1011B0005F914F913F912F910F900FBE0F901F9015
:1011C00018951F920F920FB60F9211242F933F93F1
:1011D0004F935F936F937F938F939F93AF93BF933F
:1011E000EF93FF93DF93CF93CDB7DEB7E6E4F0E064
:1011F0008289877F828B8091F0009091F100009727
:1012000029F0E091F000F091F1000995CF91DF9184
:10121000FF91EF91BF91AF919F918F917F916F91CE
:101220005F914F913F912F910F900FBE0F901F90A4
:1012300018951F920F920FB60F9211242F933F9380
:101240004F935F936F937F938F939F93AF93BF93CE
:10125000EF93FF93DF93CF93CDB7DEB7E6E4F0E0F3
:1012600082898F7E828B8091F2009091F3000097AB
:1012700029F0E091F200F091F3000995CF91DF9110
:10128000FF91EF91BF91AF919F918F917F916F915E
:101290005F914F913F912F910F900FBE0F901F9034
:1012A00018951F920F920FB60F9211242F933F9310
:1012B0004F935F936F937F938F939F93AF93BF935E
:1012C000EF93FF93DF93CF93CDB7DEB7E6E4F0E083
:1012D00082898F7D828B8091F4009091F500009738
:1012E00029F0E091F400F091F5000995CF91DF919C
:1012F000FF91EF91BF91AF919F918F917F916F91EE
:101300005F914F913F912F910F900FBE0F901F90C3
:101310001895DF93CF9300D00F92CDB7DEB79B83A4
:101320008A8319828A819B81009719F481E08983DD
:101330004AC0A2E5B0E0EA81FB818481869586956A
:10134000869583708170817081708170982F9295DD
:10135000990F990F907C11968C9111978F7B892B07
:1013600011968C93A2E5B0E0EA81FB818481869599
:10137000869586958370882F90E0959587958170E6
:10138000817081708170982F990F990F990F119624
:101390008C911197877F892B11968C93A2E5B0E0F1
:1013A000EA81FB8184818295869587708370837042
:1013B000982F9295907F11968C9111978F7C892B05
:1013C00011968C93119789810F900F900F90CF9168
:1013D000DF910895DF93CF9300D00F92CDB7DEB7A2
:1013E0009B838A8319828A819B81009719F481E00B
:1013F00089832EC0EA81FB8184818871882389F4E6
:10140000A2E5B0E0EA81FB8184818770982F977014
:1014100011968C911197887F892B11968C93119737
:1014200017C0A2E5B0E0EA81FB8184818770982F24
:10143000977011968C911197887F892B11968C93B8
:1014400081E063E041E00E948411E2E5F0E0128671
:1014500089810F900F900F90CF91DF910895DF93C6
:10146000CF9300D00F92CDB7DEB79B838A831982CA
:101470008A819B81009719F481E0898305C0E2E5A8
:10148000F0E08181887F818389810F900F900F9098
:10149000CF91DF910895DF93CF9300D000D00F92CA
:1014A000CDB7DEB79B838A837D836C8319828A8163
:1014B0009B81009721F08C819D81009719F481E038
:1014C000898306C0E2E5F0E08081EC81FD818083C4
:1014D00089810F900F900F900F900F90CF91DF9117
:1014E0000895DF93CF93CDB7DEB766970FB6F89424
:1014F000DEBF0FBECDBF9F838E8368875A87498723
:101500003C872B871D8219821A821B821C828E8146
:101510009F81009719F481E08D830CC1EE81FF81DA
:1015200084818871882309F005C1EE81FF8184815F
:101530008770282F30E03E872D874D855E854330AC
:10154000510509F45DC08D859E85843091055CF45C
:101550002D853E852130310599F04D855E854230DF
:10156000510521F1CAC08D859E858430910509F40D
:1015700073C02D853E852530310509F495C0BDC069
:101580008885282F30E080E89EE3AC01249FC001CD
:10159000259F900D349F900D1124AA2797FDA095AB
:1015A000BA2F89839A83AB83BC83A9C08885282FEF
:1015B00030E080E89EE3AC01249FC001259F900DA0
:1015C000349F900D1124988B8F878F85988999234C
:1015D00034F42F853889295F3F4F388B2F878F85CB
:1015E0009889959587959595879595958795AA2737
:1015F00097FDA095BA2F89839A83AB83BC837FC064
:101600008885282F30E080E89EE3AC01249FC0014C
:10161000259F900D349F900D11249A8B898B898979
:101620009A89992334F429893A89215C3F4F3A8B6E
:10163000298B89899A89082E892F000C881F990B7C
:10164000000C881F991FAA2797FDA095BA2F8983A0
:101650009A83AB83BC8353C08885282F30E080E811
:101660009EE3AC01249FC001259F900D349F900DF7
:1016700011249C8B8B8B8B899C89992334F42B8927
:101680003C8921503F4F3C8B2B8B4B895C89852FAC
:10169000992787FD9A95AA2797FDA095BA2F898348
:1016A0009A83AB83BC832BC08885282F30E080E8E9
:1016B0009EE3AC01249FC001259F900D349F900DA7
:1016C00011249E8B8D8B8D899E89992334F42D89CD
:1016D0003E8921503C4F3E8B2D8B8D899E89892FD1
:1016E000990F990B85958595AA2797FDA095BA2FF7
:1016F00089839A83AB83BC8302C082E08D83898116
:101700009A81AB81BC81892F9A2FAB2FBB27E985AA
:10171000FA8580839183A283B38389819A81AB8187
:10172000BC819070A070B070EB85FC858083918344
:10173000A283B3838D8166960FB6F894DEBF0FBE89
:10174000CDBFCF91DF910895DF93CF9300D00F925B
:10175000CDB7DEB789838981282F30E03B832A8388
:101760008A819B81009731F02A813B8121303105AC
:1017700039F00BC0E2E5F0E087818160878305C026
:10178000E2E5F0E087818260878380E00F900F9030
:101790000F90CF91DF910895DF93CF9300D00F92F8
:1017A000CDB7DEB789838981282F30E03B832A8338
:1017B0008A819B818230910531F02A813B812330DF
:1017C000310539F00BC0E2E5F0E087818E7F878339
:1017D00005C0E2E5F0E087818D7F878380E00F9090
:1017E0000F900F90CF91DF910895DF93CF9300D0AA
:1017F0000F92CDB7DEB79B838A8319828A819B8142
:10180000009719F481E0898310C0EA81FB8180810F
:1018100091819093F7008093F600EA81FB818281A9
:1018200093819093F9008093F80089810F900F9035
:101830000F90CF91DF910895DF93CF9300D000D028
:101840000F92CDB7DEB79B838A836C834D83198259
:101850008A819B81009719F481E0898349C0EA81DC
:10186000FB8184818871883109F042C0EA81FB8163
:10187000848180768034D9F4E2E5F0E08D81482FD0
:1018800050E0CA019C01220F331FC9019695982F81
:10189000882797958795821B930B840F951F24E6C5
:1018A00030E0B9010E943D21CB01828721C0EA814D
:1018B000FB81848180768036D9F4E2E5F0E08D8189
:1018C000482F50E0CA019C01220F331FC901969591
:1018D000982F882797958795821B930B840F951FC8
:1018E00024E630E0B9010E943D21CB01809582873A
:1018F00089810F900F900F900F900F90CF91DF91F3
:101900000895DF93CF9300D000D00F92CDB7DEB70C
:101910009B838A836C834D8319828A819B81009784
:1019200019F481E0898348C0EA81FB818481887150
:10193000883009F041C0EA81FB818481807680345F
:10194000C9F4E2E5F0E08D81482F50E0CA019C0126
:10195000220F331FC9019695982F88279795879551
:10196000821B930B840F951F98EC692F0E943121E5
:10197000828722C0EA81FB81848180768036E1F40F
:10198000E2E5F0E08D81482F50E0CA019C01220F72
:10199000331FC9019695982F882797958795821BA5
:1019A000930B840F951F24E630E0B9010E943D217E
:1019B000CB0186958095828789810F900F900F903B
:1019C0000F900F90CF91DF9108951F920F920FB655
:1019D0000F9211242F933F934F935F936F937F93B5
:1019E0008F939F93AF93BF93EF93FF93DF93CF9327
:1019F000CDB7DEB7E2E5F0E086818E7F8683809109
:101A0000F6009091F700009729F0E091F600F09130
:101A1000F7000995CF91DF91FF91EF91BF91AF91C1
:101A20009F918F917F916F915F914F913F912F91F6
:101A30000F900FBE0F901F9018951F920F920FB628
:101A40000F9211242F933F934F935F936F937F9344
:101A50008F939F93AF93BF93EF93FF93DF93CF93B6
:101A6000CDB7DEB7E2E5F0E086818D7F8683809199
:101A7000F8009091F900009729F0E091F800F091BA
:101A8000F9000995CF91DF91FF91EF91BF91AF914F
:101A90009F918F917F916F915F914F913F912F9186
:101AA0000F900FBE0F901F901895DF93CF9300D02B
:101AB00000D00F92CDB7DEB79B838A8319828A81CB
:101AC0009B81009719F481E0898369C0EFE5F0E01C
:101AD000808180688083EA81FB8182818370282FE6
:101AE00030E03D832C838C819D818130910511F103
:101AF0002C813D8122303105B9F18C819D81009787
:101B000009F04BC0E4E5F0E0878180648783A4E5B9
:101B1000B0E0EA81FB818281869586958370982F5B
:101B2000937011968C9111978C7F892B11968C93C1
:101B3000119735C0E4E5F0E0878180688783A4E5EC
:101B4000B0E0EA81FB8182818695869583708370FF
:101B5000982F990F990F11968C911197837F892B4C
:101B600011968C9311971BC0E4E5F0E087818062A9
:101B70008783A4E5B0E0EA81FB8182818695869522
:101B8000837081708170982F9295990F990F907C36
:101B90008C918F7B892B8C9302C082E08983898111
:101BA0000F900F900F900F900F90CF91DF910895AD
:101BB000DF93CF9300D000D00F92CDB7DEB79B83D9
:101BC0008A8319828A819B81009719F481E0898335
:101BD0002FC0EFE5F0E080818F778083EA81FB8181
:101BE00082818370282F30E03D832C838C819D81FE
:101BF0008130910579F02C813D812230310581F0D1
:101C00008C819D81009791F4E4E5F0E087818F7BE2
:101C100087830EC0E4E5F0E087818F77878308C073
:101C2000E4E5F0E087818F7D878302C082E08983CD
:101C300089810F900F900F900F900F90CF91DF91AF
:101C40000895DF93CF9300D000D00F92CDB7DEB7C9
:101C50009B838A8319828A819B81009719F481E092
:101C6000898333C0EA81FB8182818370282F30E031
:101C70003D832C838C819D818130910591F02C8155
:101C80003D8122303105B1F08C819D810097D9F4DE
:101C9000EA81FB81808191819093FB008093FA001F
:101CA00014C0EA81FB81808191819093FD00809333
:101CB000FC000BC0EA81FB81808191819093FF0041
:101CC0008093FE0002C082E0898389810F900F908B
:101CD0000F900F900F90CF91DF9108951F920F9268
:101CE0000FB60F9211242F933F934F935F936F93EF
:101CF0007F938F939F93AF93BF93EF93FF93DF9364
:101D0000CF93CDB7DEB7E4E5F0E086818F7B8683A5
:101D10008091FA009091FB00009729F0E091FA0081
:101D2000F091FB000995CF91DF91FF91EF91BF9169
:101D3000AF919F918F917F916F915F914F913F9163
:101D40002F910F900FBE0F901F9018951F920F921A
:101D50000FB60F9211242F933F934F935F936F937E
:101D60007F938F939F93AF93BF93EF93FF93DF93F3
:101D7000CF93CDB7DEB7E4E5F0E086818F77868339
:101D80008091FC009091FD00009729F0E091FC000B
:101D9000F091FD000995CF91DF91FF91EF91BF91F7
:101DA000AF919F918F917F916F915F914F913F91F3
:101DB0002F910F900FBE0F901F9018951F920F92AA
:101DC0000FB60F9211242F933F934F935F936F930E
:101DD0007F938F939F93AF93BF93EF93FF93DF9383
:101DE000CF93CDB7DEB7E4E5F0E0868180628683ED
:101DF0008091FE009091FF00009729F0E091FE0095
:101E0000F091FF000995CF91DF91FF91EF91BF9184
:101E1000AF919F918F917F916F915F914F913F9182
:101E20002F910F900FBE0F901F901895DF93CF93B7
:101E300000D000D0CDB7DEB71C8283E38B83E9E20C
:101E4000F0E08B81882F90E0892F990F990B878B79
:101E5000E9E2F0E08B81808388E18A83E9E2F0E0C7
:101E60008A8181838EE88983E9E2F0E08981878B2A
:101E70008C810F900F900F900F90CF91DF9108956C
:101E8000DF93CF9300D0CDB7DEB78A831982E9E222
:101E9000F0E08281882F90E0807290700097B9F313
:101EA000E9E2F0E08A81838389810F900F90CF91DE
:101EB000DF910895DF93CF9300D00F92CDB7DEB7B7
:101EC0009B838A831982E9E2F0E082818823DCF730
:101ED000E9E2F0E08381EA81FB81808389810F90D0
:101EE0000F900F90CF91DF910895DF93CF9300D0A3
:101EF0000F92CDB7DEB79B838A8319828A819B813B
:101F0000009771F481E0898310C0EA81FB818081B0
:101F10000E94400F89838A819B8101969B838A83DB
:101F2000EA81FB818081882381F789810F900F905E
:101F30000F90CF91DF910895DF93CF9300D00F9250
:101F4000CDB7DEB79B838A8319828A819B810097F4
:101F500019F481E0898322C0EA81FB818281882390
:101F600079F481E065E041E00E94841181E067E05E
:101F700041E00E948411EDE2F0E081E580830EC033
:101F8000EA81FB818281813049F481E066E041E0B1
:101F90000E948411EDE2F0E080E4808389810F905B
:101FA0000F900F90CF91DF910895DF93CF9300D0E2
:101FB00000D0CDB7DEB78A837C836B8319828B8197
:101FC0009C81009719F481E089830FC0EDE2F0E075
:101FD0008A818283EDE2F0E081818823DCF7EDE203
:101FE000F0E08281EB81FC81808389810F900F90EA
:101FF0000F900F90CF91DF910895DF93CF9300D092
:1020000000D0CDB7DEB79B838A836C8319828A8127
:102010009B81009719F481E0898316C0ADE2B0E09E
:10202000EDE2F0E0808180688C938A819B819093BF
:10203000020180930101EDE2F0E08C818283EDE208
:10204000F0E081818823DCF789810F900F900F9059
:102050000F90CF91DF910895DF93CF9300D000D000
:10206000CDB7DEB79C838B8319828B819C810097CF
:1020700091F481E0898314C0EB81FC8180819E0111
:102080002E5F3F4FB9010E94D50F89838B819C81C0
:1020900001969C838B83EB81FC818081882361F78F
:1020A00089810F900F900F900F90CF91DF9108953D
:1020B0001F920F920FB60F9211242F933F934F93BD
:1020C0005F936F937F938F939F93AF93BF93EF93A0
:1020D000FF93DF93CF93CDB7DEB7EDE2F0E08281DF
:1020E000809300018091010190910201009729F0F5
:1020F000E0910101F09102010995CF91DF91FF91EB
:10210000EF91BF91AF919F918F917F916F915F916F
:102110004F913F912F910F900FBE0F901F901895E8
:10212000DF93CF9300D000D00F92CDB7DEB79B8363
:102130008A8319828A819B81009719F481E08983BF
:102140002FC0A0E2B0E0E0E2F0E081818E7F119646
:102150008C93A0E2B0E0E0E2F0E081818D7F119607
:102160008C931197EA81FB818181282F30E03D8398
:102170002C838C819D81009731F02C813D81213011
:10218000310531F009C0E0E2F0E088E4808304C06A
:10219000E0E2F0E08CE08083E0E2F0E081E486AB16
:1021A00089810F900F900F900F900F90CF91DF913A
:1021B0000895DF93CF9300D0CDB7DEB78A8381E057
:1021C0008983E0E2F0E08A818383E0E2F0E084E862
:1021D00086ABE0E2F0E086A98823DCF789810F90E6
:1021E0000F90CF91DF910895DF93CF930F92CDB7EA
:1021F000DEB781E08983E0E2F0E084EA86ABE0E2EA
:10220000F0E086A98823DCF789810F90CF91DF91D8
:102210000895DF93CF930F92CDB7DEB781E0898326
:10222000E0E2F0E084E986AB89810F90CF91DF9105
:102230000895DF93CF9300D00F92CDB7DEB79B8385
:102240008A8381E089838A819B81009719F481E0E8
:1022500089830FC0E0E2F0E084EC86ABE0E2F0E0DE
:1022600086A98823DCF7E0E2F0E08381EA81FB8144
:10227000808389810F900F900F90CF91DF91089507
:10228000DF93CF9300D00F92CDB7DEB79B838A83C5
:1022900019828A819B81009719F481E089830FC09C
:1022A000E0E2F0E084E886ABE0E2F0E086A9882393
:1022B000DCF7E0E2F0E08381EA81FB8180838981C1
:1022C0000F900F900F90CF91DF910895DF93CF93F0
:1022D00000D00F92CDB7DEB79B838A8319828A81A3
:1022E0009B81009719F481E0898307C0E0E2F0E068
:1022F0008181887FEA81FB81808389810F900F90A3
:102300000F90CF91DF910895DF93CF9300D000D04D
:102310000F92CDB7DEB789836A834B83898184307E
:1023200008F061C08A81883008F05DC08B81282F59
:1023300030E03D832C838C819D81009769F12C8155
:102340003D812130310509F04EC08981882F90E010
:10235000880F991FFC01E156FF4FA081B18189814F
:10236000882F90E0880F991FFC01E156FF4F0190E4
:10237000F081E02D8181482F8A81282F30E081E093
:1023800090E0022E02C0880F991F0A94E2F7842B76
:1023900011968C93119727C08981882F90E0880F20
:1023A000991FFC01E156FF4FA081B1818981882FDF
:1023B00090E0880F991FFC01E156FF4F0190F081DA
:1023C000E02D8181482F8A81282F30E081E090E044
:1023D000022E02C0880F991F0A94E2F78095842389
:1023E00011968C9311970F900F900F900F900F9064
:1023F000CF91DF910895DF93CF9300D000D00F925B
:10240000CDB7DEB789836A834B838981843008F036
:1024100061C08A81883008F05DC08B81282F30E050
:102420003D832C838C819D81009769F12C813D81B6
:102430002130310509F04EC08981882F90E0880F46
:10244000991FFC01E156FF4FA081B1818981882F3E
:1024500090E0880F991FFC01E156FF4F0190F08139
:10246000E02D8281482F8A81282F30E081E090E0A2
:10247000022E02C0880F991F0A94E2F7842B12964D
:102480008C93129727C08981882F90E0880F991F1D
:10249000FC01E156FF4FA081B1818981882F90E036
:1024A000880F991FFC01E156FF4F0190F081E02D4C
:1024B0008281482F8A81282F30E081E090E0022E2F
:1024C00002C0880F991F0A94E2F780958423129620
:1024D0008C9312970F900F900F900F900F90CF91B9
:1024E000DF910895DF93CF9300D00F92CDB7DEB781
:1024F0008A836B8319828A818430E8F48B818830E7
:10250000D0F48A81882F90E0880F991FFC01E15652
:10251000FF4F0190F081E02D8081282F30E08B81EA
:10252000882F90E0A90102C0559547958A95E2F75A
:10253000CA018170898389810F900F900F90CF918C
:10254000DF910895DF93CF9300D0CDB7DEB78983B5
:102550006A838981843068F48981882F90E0880FAC
:10256000991FFC01E156FF4F0190F081E02D8A8117
:1025700081830F900F90CF91DF910895DF93CF93D8
:1025800000D0CDB7DEB789836A838981843068F44F
:102590008981882F90E0880F991FFC01E156FF4F39
:1025A0000190F081E02D8A8182830F900F90CF916E
:1025B000DF910895DF93CF9300D0CDB7DEB78A8344
:1025C00019828A81843068F48A81882F90E0880F8C
:1025D000991FFC01E156FF4F0190F081E02D8081B1
:1025E000898389810F900F90CF91DF910895DF93B8
:1025F000CF9300D0CDB7DEB79A83898389819A8142
:10260000009709F45FC0E4E2F0E082818F77828373
:10261000A4E2B0E0E981FA8180818695869586956D
:102620008370982F9295990F990F907C13968C91A7
:1026300013978F73892B13968C93A4E2B0E0E981F2
:10264000FA818081829586958695837081708770E6
:10265000982F977012968C911297887F892B1296DB
:102660008C93E4E2F0E0828180628283A4E2B0E0B5
:10267000E981FA8180818770982F9295990F907ED9
:102680009C968C919C978F71892B9C968C93A4E23D
:10269000B0E0E981FA8180818295869587708170AA
:1026A0008170982F9295990F907E13968C91139725
:1026B0008F7D892B13968C931397E4E2F0E082814F
:1026C000806882830F900F90CF91DF910895DF9300
:1026D000CF9300D000D00F92CDB7DEB79A83898315
:1026E0006B835D834C83E4E2F0E08B818F71982FE4
:1026F0009F718381807E892B8383E4E2F0E0828175
:1027000080648283E4E2F0E0828180748823D1F7E0
:10271000E981FA8180818072882399F4E4E2F0E013
:102720008181882F90E0382F2227E4E2F0E0808139
:10273000882F90E0820F931FEC81FD81918380832D
:1027400021C0E981FA81808180728823D9F0E4E296
:10275000F0E08181882F90E0382F2227E4E2F0E03A
:102760008081882F90E0820F931F0024880F991F8B
:10277000001C880F991F001C892F902DEC81FD8172
:10278000918380830F900F900F900F900F90CF91B7
:10279000DF910895DF93CF93CDB7DEB7AA970FB639
:1027A000F894DEBF0FBECDBF80E063E041E00E9441
:1027B000841180E062E041E00E94841181E060E0E9
:1027C00041E00E94841181E061E041E00E948411B7
:1027D00081E062E041E00E94841181E064E041E038
:1027E0000E94841180E090E0A0EAB1E48FA398A752
:1027F000A9A7BAA76FA178A589A59AA520E030E07E
:102800004AE755E40E941F02DC01CB018BA39CA385
:10281000ADA3BEA36BA17CA18DA19EA120E030E061
:1028200040E85FE30E94790388232CF481E090E084
:102830009AA389A33FC06BA17CA18DA19EA120E09A
:102840003FEF4FE757E40E94190318164CF56FA1AC
:1028500078A589A59AA520E030E040E251E40E94E5
:102860001F02DC01CB01BC01CD010E944900DC014B
:10287000CB019AA389A30FC080E991E098A38F8F21
:102880008F8D98A10197F1F798A38F8F89A19AA1B5
:1028900001979AA389A389A19AA1009769F714C007
:1028A0006BA17CA18DA19EA10E944900DC01CB01FE
:1028B0009AA389A389A19AA19E8F8D8F8D8D9E8DBC
:1028C0000197F1F79E8F8D8F88E30E946C1580E051
:1028D00090E0A0EAB0E4898F9A8FAB8FBC8F698DAE
:1028E0007A8D8B8D9C8D20E030E04AE755E40E9484
:1028F0001F02DC01CB018D8B9E8BAF8BB88F6D8956
:102900007E898F89988D20E030E040E85FE30E9467
:10291000790388232CF481E090E09C8B8B8B3FC063
:102920006D897E898F89988D20E03FEF4FE757E4CE
:102930000E94190318164CF5698D7A8D8B8D9C8D2C
:1029400020E030E040E251E40E941F02DC01CB01B4
:10295000BC01CD010E944900DC01CB019C8B8B8B1B
:102960000FC080E991E09A8B898B89899A890197B8
:10297000F1F79A8B898B8B899C8901979C8B8B8B28
:102980008B899C89009769F714C06D897E898F892E
:10299000988D0E944900DC01CB019C8B8B8B8B892D
:1029A0009C89988B8F878F8598890197F1F7988BF1
:1029B0008F8788E30E946C1580E090E0A6E1B3E485
:1029C0008B879C87AD87BE876B857C858D859E8533
:1029D00020E030E04AE755E40E941F02DC01CB0111
:1029E0008F839887A987BA876F81788589859A852B
:1029F00020E030E040E85FE30E94790388232CF474
:102A000081E090E09E838D833FC06F8178858985CA
:102A10009A8520E03FEF4FE757E40E94190318160C
:102A20004CF56B857C858D859E8520E030E040E20D
:102A300051E40E941F02DC01CB01BC01CD010E94C8
:102A40004900DC01CB019E838D830FC080E991E0BA
:102A50009C838B838B819C810197F1F79C838B8373
:102A60008D819E8101979E838D838D819E810097AC
:102A700069F714C06F81788589859A850E9449001D
:102A8000DC01CB019E838D838D819E819A83898316
:102A900089819A810197F1F79A83898388E30E945B
:102AA0006C1581E00E946C1582E00E946C1586E036
:102AB0000E946C158CE00E946C1588E20E946C15D7
:102AC00080E80E946C15AA960FB6F894DEBF0FBE80
:102AD000CDBFCF91DF910895DF93CF93CDB7DEB710
:102AE0006D970FB6F894DEBF0FBECDBF8D8F80E01F
:102AF00063E040E00E94FB118D8D82958F70982FCE
:102B0000917081E060E0492F0E94FB118D8D8295CC
:102B100086958770982F917081E061E0492F0E941F
:102B2000FB118D8D8295869586958370982F917077
:102B300081E062E0492F0E94FB118D8D982F991F33
:102B40009927991F81E064E0492F0E94FB1180E0E2
:102B500062E041E00E94FB1180E090E0A0EAB0E476
:102B6000898F9A8FAB8FBC8F698D7A8D8B8D9C8D61
:102B700020E030E04AE755E40E941F02DC01CB016F
:102B80008D8B9E8BAF8BB88F6D897E898F89988D49
:102B900020E030E040E85FE30E94790388232CF4D2
:102BA00081E090E09C8B8B8B3FC06D897E898F8903
:102BB000988D20E03FEF4FE757E40E941903181665
:102BC0004CF5698D7A8D8B8D9C8D20E030E040E254
:102BD00051E40E941F02DC01CB01BC01CD010E9427
:102BE0004900DC01CB019C8B8B8B0FC080E991E00D
:102BF0009A8B898B89899A890197F1F79A8B898BAE
:102C00008B899C8901979C8B8B8B8B899C890097E6
:102C100069F714C06D897E898F89988D0E9449005B
:102C2000DC01CB019C8B8B8B8B899C89988B8F874C
:102C30008F8598890197F1F7988B8F8780E062E004
:102C400040E00E94FB118D8D982F917081E060E033
:102C5000492F0E94FB118D8D8695982F917081E0F0
:102C600061E0492F0E94FB118D8D86958695982FE6
:102C7000917081E062E0492F0E94FB118D8D869555
:102C800086958695982F917081E064E0492F0E9487
:102C9000FB1180E062E041E00E94FB1180E090E0E7
:102CA000A0EAB0E48B879C87AD87BE876B857C8567
:102CB0008D859E8520E030E04AE755E40E941F02A2
:102CC000DC01CB018F839887A987BA876F817885CC
:102CD00089859A8520E030E040E85FE30E9479032F
:102CE00088232CF481E090E09E838D833FC06F8128
:102CF000788589859A8520E03FEF4FE757E40E9469
:102D0000190318164CF56B857C858D859E8520E012
:102D100030E040E251E40E941F02DC01CB01BC0123
:102D2000CD010E944900DC01CB019E838D830FC041
:102D300080E991E09C838B838B819C810197F1F7E3
:102D40009C838B838D819E8101979E838D838D8152
:102D50009E81009769F714C06F81788589859A856F
:102D60000E944900DC01CB019E838D838D819E8171
:102D70009A83898389819A810197F1F79A8389835C
:102D800080E062E040E00E94FB116D960FB6F8947F
:102D9000DEBF0FBECDBFCF91DF910895DF93CF93FC
:102DA000CDB7DEB76D970FB6F894DEBF0FBECDBFBF
:102DB0008D8F80E063E041E00E94FB118D8D829554
:102DC0008F70982F917081E060E0492F0E94FB1175
:102DD0008D8D829586958770982F917081E061E046
:102DE000492F0E94FB118D8D829586958695837063
:102DF000982F917081E062E0492F0E94FB118D8D28
:102E0000982F991F9927991F81E064E0492F0E940C
:102E1000FB1180E062E041E00E94FB1180E090E065
:102E2000A0EAB0E4898F9A8FAB8FBC8F698D7A8DC1
:102E30008B8D9C8D20E030E04AE755E40E941F0214
:102E4000DC01CB018D8B9E8BAF8BB88F6D897E891A
:102E50008F89988D20E030E040E85FE30E9479039D
:102E600088232CF481E090E09C8B8B8B3FC06D8994
:102E70007E898F89988D20E03FEF4FE757E40E94CD
:102E8000190318164CF5698D7A8D8B8D9C8D20E079
:102E900030E040E251E40E941F02DC01CB01BC01A2
:102EA000CD010E944900DC01CB019C8B8B8B0FC0B4
:102EB00080E991E09A8B898B89899A890197F1F74A
:102EC0009A8B898B8B899C8901979C8B8B8B8B89A7
:102ED0009C89009769F714C06D897E898F89988DC8
:102EE0000E944900DC01CB019C8B8B8B8B899C89D8
:102EF000988B8F878F8598890197F1F7988B8F87AB
:102F000080E062E040E00E94FB118D8D982F91706F
:102F100081E060E0492F0E94FB118D8D8695982FEE
:102F2000917081E061E0492F0E94FB118D8D8695A3
:102F30008695982F917081E062E0492F0E94FB11E5
:102F40008D8D869586958695982F917081E064E0A9
:102F5000492F0E94FB1180E062E041E00E94FB11DA
:102F600080E090E0A0EAB0E48B879C87AD87BE87C5
:102F70006B857C858D859E8520E030E04AE755E4B1
:102F80000E941F02DC01CB018F839887A987BA8733
:102F90006F81788589859A8520E030E040E85FE39D
:102FA0000E94790388232CF481E090E09E838D8336
:102FB0003FC06F81788589859A8520E03FEF4FE794
:102FC00057E40E94190318164CF56B857C858D8596
:102FD0009E8520E030E040E251E40E941F02DC01C7
:102FE000CB01BC01CD010E944900DC01CB019E83D5
:102FF0008D830FC080E991E09C838B838B819C81C2
:103000000197F1F79C838B838D819E8101979E832D
:103010008D838D819E81009769F714C06F817885BB
:1030200089859A850E944900DC01CB019E838D83AE
:103030008D819E819A83898389819A810197F1F795
:103040009A83898380E062E040E00E94FB116D96E4
:103050000FB6F894DEBF0FBECDBFCF91DF910895BC
:10306000DF93CF9300D0CDB7DEB79A838983898170
:103070009A81009789F00BC0E981FA8120818981CA
:103080009A8101969A838983822F0E94CE16E981C4
:10309000FA818081882381F70F900F90CF91DF9183
:1030A0000895DF93CF9300D000D0CDB7DEB78983EA
:1030B0006A838A8181508A838981282F30E03C830A
:1030C0002B838B819C8182309105D9F02B813C81AF
:1030D0002330310534F48B819C818130910561F07E
:1030E0001EC02B813C812330310581F08B819C8176
:1030F0008430910581F013C08A8180580E946C153C
:103100000EC08A8180540E946C1509C08A818C5639
:103110000E946C1504C08A818C520E946C150F901D
:103120000F900F900F90CF91DF910895DF93CF9381
:10313000CDB7DEB72F970FB6F894DEBF0FBECDBF69
:103140006C877D878E879F878C859D859E012F5FED
:103150003F4FB9014AE050E00E949B21CE01019609
:103160000E9430182F960FB6F894DEBF0FBECDBF69
:10317000CF91DF910895DF93CF93CDB7DEB781E094
:103180000E946C15CF91DF910895DF93CF9300D00B
:1031900000D0CDB7DEB79B838A836C8319828A8186
:1031A0009B810097B1F080E40E946C1519820EC0DB
:1031B0008981282F30E08A819B81FC01E20FF31F77
:1031C00080810E94CE1689818F5F898389818830B2
:1031D00078F30F900F900F900F90CF91DF9108959B
:1031E000DF93CF930F92CDB7DEB7898389810E9499
:1031F000CE160F90CF91DF910895DF93CF93CDB787
:10320000DEB781E060E041E00E94841181E061E08E
:1032100041E00E94841181E062E041E00E9484115B
:1032200081E064E041E00E948411CF91DF91089534
:10323000DF93CF930F92CDB7DEB789838981982F23
:10324000917081E060E0492F0E94FB118981869591
:10325000982F917081E061E0492F0E94FB118981D4
:1032600086958695982F917081E062E0492F0E94A3
:10327000FB118981869586958695982F917081E0BE
:1032800064E0492F0E94FB110F90CF91DF910895C8
:10329000DF93CF9300D000D00F92CDB7DEB78D83F0
:1032A00019821A828D818B831C82CE0102960E9424
:1032B000901089830F900F900F900F900F90CF91E7
:1032C000DF910895DF93CF9300D000D000D0CDB729
:1032D000DEB79E838D831C82ED81FE8182810E94F8
:1032E000701B8B83ED81FE8181810E94701B8A831C
:1032F000ED81FE818381813069F4ED81FE818081E1
:103300008C3040F4ED81FE818081845F0E94701BCF
:10331000898306C0ED81FE8180810E94701B8983B4
:103320000E94F4108C8380ED0E94D9108C8380E081
:103330000E94D9108C838B810E94D9108C838A8142
:103340000E94D9108C8389810E94D9108C830E949D
:1033500009118C8326960FB6F894DEBF0FBECDBF41
:10336000CF91DF910895DF93CF9300D000D000D0AC
:10337000CDB7DEB79E838D831C82ED81FE81828175
:103380000E94701B8B83ED81FE8181810E94701BE6
:103390008A83ED81FE818381813069F4ED81FE8134
:1033A00080818C3040F4ED81FE818081845F0E94B9
:1033B000701B898306C0ED81FE8180810E94701B95
:1033C00089830E94F4108C8380ED0E94D9108C8335
:1033D00080E00E94D9108C838B810E94D9108C834D
:1033E0008A810E94D9108C8389810E94D9108C8394
:1033F0000E9409118C8326960FB6F894DEBF0FBE8B
:10340000CDBFCF91DF910895DF93CF9300D000D04F
:10341000CDB7DEB79B838A8319820E94F41089831B
:1034200080ED0E94D910898380E00E94D9108983A1
:103430000E94F410898381ED0E94D91089838A81CA
:103440009B8102960E94191189838A819B81019632
:103450000E94191189838A819B810E94401189836E
:10346000EA81FB8180811C828C3010F081E08C83AA
:10347000EA81FB818C8183830E9409118983EA811F
:10348000FB8182810E94941BEA81FB818283EA8115
:10349000FB8181810E94941BEA81FB818183EA8107
:1034A000FB8180810E94941BEA81FB818083EA81F9
:1034B000FB8180818D3040F0EA81FB8180818C50DE
:1034C000EA81FB81808309C0EA81FB8180818823B6
:1034D00021F4EA81FB818CE080830F900F900F90A4
:1034E0000F90CF91DF910895DF93CF9300D000D05C
:1034F000CDB7DEB79B838A8319820E94F41089833B
:1035000080ED0E94D910898380E00E94D9108983C0
:103510000E94F410898381ED0E94D91089838A81E9
:103520009B8102960E94191189838A819B81019651
:103530000E94191189838A819B810E94401189838D
:10354000EA81FB8180811C828C3010F081E08C83C9
:10355000EA81FB818C8183830E9409118983EA813E
:10356000FB8182810E94941BEA81FB818283EA8134
:10357000FB8181810E94941BEA81FB818183EA8126
:10358000FB8180810E94941BEA81FB818083EA8118
:10359000FB8180818D3040F0EA81FB8180818C50FD
:1035A000EA81FB81808309C0EA81FB8180818823D5
:1035B00021F4EA81FB818CE080830F900F900F90C3
:1035C0000F90CF91DF910895DF93CF9300D000D07B
:1035D00000D0CDB7DEB79E838D831C82ED81FE8146
:1035E00082810E94701B8B83ED81FE8181810E940C
:1035F000701B8A83ED81FE8180810E94701B89830C
:103600000E94F4108C8380ED0E94D9108C8384E09A
:103610000E94D9108C838B810E94D9108C838A815F
:103620000E94D9108C8389810E94D9108C830E94BA
:1036300009118C8326960FB6F894DEBF0FBECDBF5E
:10364000CF91DF910895DF93CF9300D00F92CDB744
:10365000DEB79B838A8319820E94F410898380EDF0
:103660000E94D910898384E00E94D91089830E9426
:10367000F410898381ED0E94D91089838A819B810E
:1036800002960E94191189838A819B8101960E946A
:10369000191189838A819B810E94401189830E942C
:1036A00009118983EA81FB8182810E94941BEA814E
:1036B000FB818283EA81FB8181810E94941BEA81E4
:1036C000FB818183EA81FB8180810E94941BEA81D6
:1036D000FB8180830F900F900F90CF91DF91089521
:1036E000DF93CF9300D000D00F92CDB7DEB78C839D
:1036F0008C819AE0692F0E943121892F8B838C81E4
:103700009AE0692F0E9431218A838A81982F9295AD
:10371000907F8B81890F89830F900F900F900F906E
:103720000F90CF91DF910895DF93CF9300D000D019
:10373000CDB7DEB78C838C818F708B838C81829523
:103740008F70882F90E09C01220F331FC901880FD2
:10375000991F880F991F820F931F8A839A818B81EB
:10376000890F898389810F900F900F900F90CF91CF
:10377000DF910895DF93CF93CDB7DEB782E065E0A8
:1037800041E00E94841182E064E041E00E948411E3
:1037900082E063E041E00E94841182E062E041E067
:1037A0000E94841183E065E040E00E94841183E080
:1037B00064E040E00E94841183E063E040E00E9406
:1037C000841183E062E040E00E948411CF91DF9198
:1037D0000895DF93CF93CDB7DEB764970FB6F89413
:1037E000DEBF0FBECDBF9C8B8B8B1A8A198A188ABD
:1037F00081E08F871A8AD5C0188A16C08889882FD9
:1038000090E0FC01E155FF4F20818889882F90E0EE
:10381000FC01E955FF4F9081822F692F41E00E9402
:10382000FB1188898F5F888B8889843038F38A8977
:10383000882F90E0FC01E155FF4F20818A89882F75
:1038400090E0FC01E955FF4F9081822F692F40E005
:103850000E94FB1180E090E0A0E2B1E48B879C879E
:10386000AD87BE876B857C858D859E8520E030E0A9
:103870004AE755E40E941F02DC01CB018F83988741
:10388000A987BA876F81788589859A8520E030E09D
:1038900040E85FE30E94790388232CF481E090E004
:1038A0009E838D833FC06F81788589859A8520E0CE
:1038B0003FEF4FE757E40E94190318164CF56B854C
:1038C0007C858D859E8520E030E040E251E40E94B9
:1038D0001F02DC01CB01BC01CD010E944900DC01CB
:1038E000CB019E838D830FC080E991E09C838B8305
:1038F0008B819C810197F1F79C838B838D819E81C5
:1039000001979E838D838D819E81009769F714C0F6
:103910006F81788589859A850E944900DC01CB01F9
:103920009E838D838D819E819A83898389819A81EB
:103930000197F1F79A838983198A2DC08989882F85
:1039400090E0FC01ED54FF4F20818989882F90E0A1
:10395000FC01E555FF4F9081822F692F0E94721262
:103960008F878F858823A1F48A89482F50E0898921
:10397000282F30E0CA01880F991F880F991F820FE6
:10398000931FFC01E254FF4F8081EB89FC89808307
:1039900089898F5F898B8989843080F28A898F5FDA
:1039A0008A8B8A89843008F427CF64960FB6F894FE
:1039B000DEBF0FBECDBFCF91DF910895DF93CF93D0
:1039C00000D00F92CDB7DEB79B838A8319828A819C
:1039D0009B810097F1F0EA81FB811286198216C063
:1039E0008981282F30E08A819B81FC01E20FF31F3F
:1039F00010828981282F30E08A819B81820F931F5A
:103A0000FC013596108289818F5F89838981853099
:103A100038F30F900F900F90CF91DF910895DF93BF
:103A2000CF93CDB7DEB764970FB6F894DEBF0FBE65
:103A3000CDBF9C8B8B8B1A8A198A188A81E08F875D
:103A40001A8A1FC1188A16C08889882F90E0FC0145
:103A5000E155FF4F20818889882F90E0FC01E955CE
:103A6000FF4F9081822F692F41E00E94FB118889CE
:103A70008F5F888B8889843038F38A89882F90E01B
:103A8000FC01E155FF4F20818A89882F90E0FC01DD
:103A9000E955FF4F9081822F692F40E00E94FB1172
:103AA00080E090E0A0EAB1E48B879C87AD87BE8779
:103AB0006B857C858D859E8520E030E04AE755E466
:103AC0000E941F02DC01CB018F839887A987BA87E8
:103AD0006F81788589859A8520E030E040E85FE352
:103AE0000E94790388232CF481E090E09E838D83EB
:103AF0003FC06F81788589859A8520E03FEF4FE749
:103B000057E40E94190318164CF56B857C858D854A
:103B10009E8520E030E040E251E40E941F02DC017B
:103B2000CB01BC01CD010E944900DC01CB019E8389
:103B30008D830FC080E991E09C838B838B819C8176
:103B40000197F1F79C838B838D819E8101979E83E2
:103B50008D838D819E81009769F714C06F81788570
:103B600089859A850E944900DC01CB019E838D8363
:103B70008D819E819A83898389819A810197F1F74A
:103B80009A838983198A76C08989882F90E0FC01FD
:103B9000ED54FF4F20818989882F90E0FC01E55585
:103BA000FF4F9081822F692F0E9472128F878F851D
:103BB000882309F05CC0EB89FC898285843008F099
:103BC00040C0EB89FC898285682F70E08A89482F84
:103BD00050E08989282F30E0CA01880F991F880F8B
:103BE000991F820F931FFC01E253FF4F20818B89A5
:103BF0009C89FC01E60FF71F2083EB89FC898285F5
:103C0000682F70E08A89482F50E08989282F30E09A
:103C1000CA01880F991F880F991F820F931FFC01FB
:103C2000E252FF4F20818B899C89860F971FFC01F0
:103C300035962083EB89FC8982858F5FEB89FC892F
:103C400082878A89482F50E08989282F30E0CA016D
:103C5000880F991F880F991F820F931FFC01E25351
:103C6000FF4F80818D3219F4EB89FC891286898996
:103C70008F5F898B8989843008F486CF8A898F5F2A
:103C80008A8B8A89843008F4DDCE64960FB6F89466
:103C9000DEBF0FBECDBFCF91DF910895DF93CF93ED
:103CA00000D000D00F92CDB7DEB78D8319821A8273
:103CB0008D818B831C82CE0102960E949010898395
:103CC0000F900F900F900F900F90CF91DF9108956C
:103CD000DF93CF9300D0CDB7DEB789836A830E948C
:103CE000F41080EA0E94D91089810E94D9108A813B
:103CF0000E94D9100E9409110F900F90CF91DF916F
:103D00000895DF93CF9300D0CDB7DEB78A830E94AA
:103D1000F41080EA0E94D9108A810E94D9100E9472
:103D2000F41081EA0E94D910CE0101960E94191167
:103D30000E94091189810F900F90CF91DF91089512
:103D4000DF93CF930F92CDB7DEB789830E94F41033
:103D500080EA0E94D91089810E94D9108FEF0E94B9
:103D6000D9100E9409110F90CF91DF910895DF9330
:103D7000CF93CDB7DEB7C054D0400FB6F894DEBFB6
:103D80000FBECDBF0E94CA1380E00E94481987EB86
:103D900090E00E9462198BEB90E00E94E41A80E0B0
:103DA00090E0A0EAB1E48DAB9EABAFABB8AF6DA92C
:103DB0007EA98FA998AD2FE632E143E85BE30E942C
:103DC0001F02DC01CB0189AB9AABABABBCAB69A9E1
:103DD0007AA98BA99CA920E030E040E85FE30E942B
:103DE000790388232CF481E090E098AB8FA73DC045
:103DF00069A97AA98BA99CA920E03FEF4FE757E476
:103E00000E94190318163CF56DA97EA98FA998ADDB
:103E100020E030E040E251E40E941F02DC01CB01CF
:103E2000BC01CD010E944900DC01CB0198AB8FA7FA
:103E30000DC01EA61DA68DA59EA50197F1F79EA7F4
:103E40008DA78FA598A9019798AB8FA78FA598A943
:103E5000009779F714C069A97AA98BA99CA90E9437
:103E60004900DC01CB0198AB8FA78FA598A99CA72F
:103E70008BA78BA59CA50197F1F79CA78BA789E33E
:103E800091E00E94041A80E090E0A0EAB1E48FA3E0
:103E900098A7A9A7BAA76FA178A589A59AA52FE683
:103EA00032E143E85BE30E941F02DC01CB018BA3FC
:103EB0009CA3ADA3BEA36BA17CA18DA19EA120E07C
:103EC00030E040E85FE30E94790388232CF481E02E
:103ED00090E09AA389A33DC06BA17CA18DA19EA176
:103EE00020E03FEF4FE757E40E94190318163CF516
:103EF0006FA178A589A59AA520E030E040E251E4C1
:103F00000E941F02DC01CB01BC01CD010E944900CF
:103F1000DC01CB019AA389A30DC018A21F8E8F8D3F
:103F200098A10197F1F798A38F8F89A19AA1019782
:103F30009AA389A389A19AA1009779F714C06BA1CC
:103F40007CA18DA19EA10E944900DC01CB019AA316
:103F500089A389A19AA19E8F8D8F8D8D9E8D0197AA
:103F6000F1F79E8F8D8F80E090E0A0EAB1E4898F19
:103F70009A8FAB8FBC8F698D7A8D8B8D9C8D2FE640
:103F800032E143E85BE30E941F02DC01CB018D8B31
:103F90009E8BAF8BB88F6D897E898F89988D20E03D
:103FA00030E040E85FE30E94790388232CF481E04D
:103FB00090E09C8B8B8B3DC06D897E898F89988D1D
:103FC00020E03FEF4FE757E40E94190318163CF535
:103FD000698D7A8D8B8D9C8D20E030E040E251E43C
:103FE0000E941F02DC01CB01BC01CD010E944900EF
:103FF000DC01CB019C8B8B8B0DC01A8A198A8989B5
:104000009A890197F1F79A8B898B8B899C89019703
:104010009C8B8B8B8B899C89009779F714C06D8959
:104020007E898F89988D0E944900DC01CB019C8B91
:104030008B8B8B899C89988B8F878F85988901972B
:10404000F1F7988B8F8784E091E00E94231B80E03A
:1040500090E0A0EAB1E48B879C87AD87BE876B8533
:104060007C858D859E852FE632E143E85BE30E94E7
:104070001F02DC01CB018F839887A987BA876F81E4
:10408000788589859A8520E030E040E85FE30E94EA
:10409000790388232CF481E090E09E838D833DC0DA
:1040A0006F81788589859A8520E03FEF4FE757E457
:1040B0000E94190318163CF56B857C858D859E85BD
:1040C00020E030E040E251E40E941F02DC01CB011D
:1040D000BC01CD010E944900DC01CB019E838D8390
:1040E0000DC01C821B828B819C810197F1F79C8300
:1040F0008B838D819E8101979E838D838D819E818F
:10410000009779F714C06F81788589859A850E9418
:104110004900DC01CB019E838D838D819E819A8332
:10412000898389819A810197F1F79A8389838091A4
:104130003901282F30E021963FAF2EAF2197809193
:104140003A01282F30E03EAF2DAF80913B01282F60
:1041500030E03CAF2BAF80913C01882329F480E60E
:1041600090E09AAF89AF04C023E630E03AAF29AFC0
:104170008DB79EB70C970FB6F8949EBF0FBE8DBF3C
:10418000EDB7FEB731968EE391E09183808386E6AA
:1041900090E09383828321962EAD3FAD21973583A6
:1041A00024838DAD9EAD978386832BAD3CAD318747
:1041B000208789AD9AAD938782870E94BC212DB755
:1041C0003EB7245F3F4F0FB6F8943EBF0FBE2DBFE2
:1041D00080910501682F70E080910601282F30E062
:1041E00080910401482F50E08DB79EB70A970FB613
:1041F000F8949EBF0FBE8DBFEDB7FEB7319687E036
:1042000091E09183808388E790E093838283758334
:10421000648337832683518740870E94BC212DB752
:104220003EB7265F3F4F0FB6F8943EBF0FBE2DBF7F
:1042300082E061E00E94511887E890E00E94301807
:104240008EE391E00E94301883E061E00E945118F3
:104250008FE890E00E94301887E091E00E943018CB
:104260009ECD991B79E004C0991F961708F0961B04
:10427000881F7A95C9F78095089597FB092E072620
:104280000AD077FD04D00CD006D000201AF4709527
:1042900061957F4F0895F6F7909581959F4F08950A
:1042A000AA1BBB1B51E107C0AA1FBB1FA617B7075C
:1042B00010F0A61BB70B881F991F5A95A9F7809578
:1042C0009095BC01CD0108952F923F924F925F923D
:1042D0006F927F928F929F92AF92BF92CF92DF9216
:1042E000EF92FF920F931F93CF93DF93CDB7DEB77B
:1042F000CA1BDB0B0FB6F894DEBF0FBECDBF09940F
:104300002A88398848885F846E847D848C849B8465
:10431000AA84B984C884DF80EE80FD800C811B8173
:10432000AA81B981CE0FD11D0FB6F894DEBF0FBEA2
:10433000CDBFED010895FB019F01E8944230C4F028
:104340004532B4F44A3029F497FB1EF490958195D8
:104350009F4F642F77270E945021805D8A330CF095
:10436000895D8193CB010097A1F716F45DE251932B
:104370001082C9010C94D323AEE0B0E0E2ECF1E28C
:104380000C9472210D891E8986E08C831A8309831F
:104390008FEF9FE79E838D839E01275E3F4FCE0167
:1043A00001966F89788DA9010E94E0212F813885BF
:1043B000020F131FF80110822E96E4E00C948E2158
:1043C000ABE0B0E0E6EEF1E20C9464213C012B019D
:1043D0005A01FC0117821682838181FD03C06FEFB1
:1043E0007FEFC6C19AE0892E1E010894211C311C62
:1043F000F3012381F20123FD859123FF81912F0198
:10440000882309F4B2C1853239F423FD859123FF55
:1044100081912F01853229F490E0B3010E94E323BA
:10442000E7CF982FFF24EE249924FFE1FF15D0F069
:104430009B3269F09C3228F4903259F0933291F417
:104440000EC09D3249F0903369F441E024C052E03F
:10445000F52A84E0F82A28C098E0F92A25C0E0E18E
:10446000FE2A22C0F7FC29C0892F80538A3070F4BD
:10447000F6FE05C0989C902C1124980E15C0E89C5F
:10448000E02C1124E80EF0E2FF2A0EC09E3229F43F
:10449000F6FC6BC140E4F42A07C09C3619F450E8DE
:1044A000F52A02C0983649F4F20123FD959123FFC5
:1044B00091912F01992309F0B8CF892F855483302A
:1044C00018F08052833038F444E050E0A40EB51E5A
:1044D0005FE359830FC0933631F0933779F093350A
:1044E00009F056C020C0F5018081898342E050E088
:1044F000A40EB51E610101E010E012C0F501C080FC
:10450000D180F6FC03C06FEF7FEF02C0692D70E031
:1045100042E050E0A40EB51EC6010E94C8238C01E3
:104520005FE7F52214C0F501C080D180F6FC03C01E
:104530006FEF7FEF02C0692D70E042E050E0A40E03
:10454000B51EC6010E94BD238C0150E8F52AF3FE7A
:1045500007C01AC080E290E0B3010E94E323EA940E
:104560008E2D90E008171907A8F30EC0F601F7FC8E
:104570008591F7FE81916F0190E0B3010E94E323E2
:10458000E110EA94015010400115110579F7EAC0D5
:10459000943611F0993669F5F7FE08C0F5012081CF
:1045A00031814281538184E090E00AC0F50180812D
:1045B00091819C01442737FD4095542F82E090E083
:1045C000A80EB91E9FE6F92257FF09C050954095E5
:1045D000309521953F4F4F4F5F4FE0E8FE2ACA01CB
:1045E000B901A1012AE030E00E940F24D82ED21890
:1045F00040C0953729F41F2D1F7E2AE030E01DC0F2
:104600001F2D197F9F3661F0903720F4983509F0FF
:10461000ACC00FC0903739F0983709F0A6C004C07D
:1046200028E030E00AC0106114FD146020E130E0A1
:1046300004C014FD166020E132E017FF08C0F50148
:10464000608171818281938144E050E008C0F5016E
:1046500080819181BC0180E090E042E050E0A40EB6
:10466000B51EA1010E940F24D82ED2188FE7F82E74
:10467000F122F6FE0BC05EEFF522D91438F4F4FEF9
:1046800007C0F2FC05C08FEEF82202C01D2D01C04C
:10469000192DF4FE0DC0FE01ED0DF11D808180335A
:1046A00019F499EEF92208C01F5FF2FE05C003C09D
:1046B0008F2D867809F01F5F0F2DF3FC14C0F0FEDC
:1046C0000FC01E1510F09D2C0BC09D2C9E0C911A36
:1046D0001E2D06C080E290E0B3010E94E3231F5F1D
:1046E0001E15C0F304C01E1510F4E11A01C0EE241B
:1046F00004FF0FC080E390E0B3010E94E32302FFB8
:104700001DC001FD03C088E790E00EC088E590E081
:104710000BC0802F867891F001FF02C08BE201C0B0
:1047200080E2F7FC8DE290E0B3010E94E32306C033
:1047300080E390E0B3010E94E3239A94D914C0F37C
:10474000DA94F101ED0DF11D808190E0B3010E943A
:10475000E323DD20A9F706C080E290E0B3010E94C8
:10476000E323EA94EE20C1F743CEF301668177811B
:10477000CB012B96E2E10C948021FC010590615065
:1047800070400110D8F7809590958E0F9F1F089567
:10479000FC016150704001900110D8F78095909510
:1047A0008E0F9F1F0895DC01FC01672F7191772305
:1047B000E1F7329704C07C916D9370836291AE17DC
:1047C000BF07C8F308950F931F93CF93DF938C0116
:1047D000EB018B8181FF1BC082FF0DC02E813F81C9
:1047E0008C819D812817390764F4E881F981019350
:1047F000F983E88306C0E885F985802F0995892B20
:1048000031F48E819F8101969F838E8302C00FEFCA
:104810001FEFC801DF91CF911F910F910895FA0109
:10482000AA27283051F1203181F1E8946F936E7FEF
:104830006E5F7F4F8F4F9F4FAF4FB1E03ED0B4E0E0
:104840003CD0670F781F891F9A1FA11D680F791F21
:104850008A1F911DA11D6A0F711D811D911DA11D32
:1048600020D009F468943F912AE0269F1124301942
:10487000305D3193DEF6CF010895462F4770405DDD
:104880004193B3E00FD0C9F7F6CF462F4F70405D8C
:104890004A3318F0495D31FD4052419302D0A9F7E7
:1048A000EACFB4E0A6959795879577956795BA95E1
:1048B000C9F700976105710508959B01AC010A2EA7
:1048C00006945795479537952795BA95C9F7620F7E
:0E48D000731F841F951FA01D0895F894FFCF3D
:1048DE00414D00504D00253032643A253032643A55
:1048EE002530326420257300253032642F25303276
:1048FE00642F253032640054696D65203A200044DF
:10490E00617465203A2000000000000000000039AC
:10491E0000360033003000050403020706050302CB
:10492E00020202030303030B3B1E01170B030102DA
:10493E00030405060708090A0B0C0D0E0F10313281
:10494E0033343536373839302D61626364652A2A3F
:0E495E002A2A2A2A2A2A2A2A2D2A2A2A2A2AFC
:00000001FF
