:100000000C942A000C9447000C9447000C94470071
:100010000C9447000C9447000C9447000C94470044
:100020000C9447000C9447000C9447000C94470034
:100030000C9447000C9447000C9447000C94470024
:100040000C9447000C9447000C9447000C94470014
:100050000C94470011241FBECFE5D8E0DEBFCDBF12
:1000600010E0A0E6B0E0E4E0F5E002C005900D92FB
:10007000A838B107D9F710E0A8E8B0E001C01D9298
:10008000AB38B107E1F70E940D020C9480020C948A
:100090000000FC01009711F481E008958081E82FB1
:1000A000E770382F36953695369586FF15C0F0E007
:1000B000EE0FFF1FE05AFF4F0190F081E02D2181EC
:1000C000377081E090E002C0880F991F3A95E2F7FF
:1000D000282B218380E00895F0E0EE0FFF1FE05A07
:1000E000FF4F0190F081E02D2181377081E090E099
:1000F00002C0880F991F3A95E2F780958223818389
:1001000080E00895FC01009711F481E008956130CA
:10011000D1F42081E22FE770F0E0EE0FFF1FE05AEC
:10012000FF4F0190F081E02D32812695269526958E
:10013000277081E090E002C0880F991F2A95E2F7AE
:10014000382B328302C0662311F080E008952081AD
:10015000E22FE770F0E0EE0FFF1FE05AFF4F019033
:10016000F081E02D3281269526952695277081E035
:1001700090E002C0880F991F2A95E2F780958323AB
:10018000828380E00895FC01DB010097E9F06115AE
:100190007105D1F02081E22FE770F0E0EE0FFF1F34
:1001A000E05AFF4F0190F081E02D808190E026958C
:1001B00026952695277002C0959587952A95E2F792
:1001C00081708C9380E0089581E00895E82FF0E03D
:1001D000EE0FFF1FE05AFF4F0190F081E02D618389
:1001E00080E00895E82FF0E0EE0FFF1FE05AFF4F88
:1001F0000190F081E02D628380E00895DB016115BC
:10020000710511F481E00895E82FF0E0EE0FFF1F73
:10021000E05AFF4F0190F081E02D80818C9380E0C7
:1002200008951F93CF93DF93EC01162F0097E1F011
:100230006A30D0F461700E948200612F669561700F
:10024000CE0101960E94820016951695612F61706D
:10025000CE0102960E94820016951170CE0103967F
:10026000612F0E94820001C081E0DF91CF911F9138
:100270000895CF93DF93EC01009711F481E00EC055
:100280000E944900CE0101960E944900CE010296CB
:100290000E944900CE0103960E944900DF91CF9150
:1002A00008952F923F924F925F926F927F928F921A
:1002B0009F92AF92BF92CF92DF92EF92FF920F93F5
:1002C0001F93DF93CF930F92CDB7DEB76C011B0165
:1002D000009709F453C01982AA24BB242C01089466
:1002E000411C511C22E0622E712C680E791E93E095
:1002F000892E912C8C0C9D1C21C0C70104968C0D5D
:100300009D1DBE016F5F7F4F0E94C300982F8981A2
:10031000813021F4F8018081F10180830894E11C8F
:10032000F11C0F5F1F4FF4E0EF16F10431F7089452
:10033000A11CB11C84E0A816B10409F1C60160E05B
:100340000E948200C20160E00E948200C30160E05E
:100350000E948200C40160E00E948200C6018A0DF2
:100360009B1D61E00E9482008501000F111F000F9C
:10037000111F09581F4FEE24FF24BFCF91E0892F92
:100380000F90CF91DF911F910F91FF90EF90DF9031
:10039000CF90BF90AF909F908F907F906F905F9025
:1003A0004F903F902F900895CF92DF92EF92FF925F
:1003B0000F931F93CF93DF93EC01009711F481E02B
:1003C00023C00E9449006E010894C11CD11CC601C3
:1003D0000E94490032E0E32EF12CEC0EFD1EC70115
:1003E0000E9449008E010D5F1F4FC8010E94490005
:1003F000CE010E944900C6010E944900C7010E9427
:100400004900C8010E944900DF91CF911F910F91CF
:10041000FF90EF90DF90CF900895CF93DF9385E723
:1004200090E00E9449008093880086E790E00E9457
:1004300049008093880088E690E00E94390180930B
:1004400088008DE690E00E94D40180938800C0E986
:10045000D1E08DE690E069E870E00E945101809360
:10046000880086E790E061E00E9482008093880027
:1004700085E790E060E00E94820080938800809190
:1004800089006AE00E947402692F88E690E00E9469
:100490001101809388008CE291E0FE013197F1F721
:1004A0000197D9F786E790E060E00E948200809390
:1004B000880085E790E061E00E94820080938800D8
:1004C000809189006AE00E947402682F88E690E0BB
:1004D0000E941101809388008CE291E0FE01319727
:1004E000F1F70197D9F7B5CF991B79E004C0991FAF
:1004F000961708F0961B881F7A95C9F7809508957E
:04050000F894FFCF9D
:100504003900360033003000C1C9D1E1006A625AB3
:10051400523B332B1BD8D0010203040506070809FC
:080524000A0B0C0D0E0F100074
:00000001FF
