:100000000C942A000C94D80F0C9410100C944810E7
:100010000C9447000C9447000C94F70A0C94BF0A08
:100020000C94870A0C944F0A0C94870E0C944F0E74
:100030000C94FD110C9447000C9447000C9447005D
:100040000C9447000C9447000C9447000C94470014
:100050000C94470011241FBECFE5D8E0DEBFCDBF12
:1000600012E0A0E6B0E0ECE8F5E602C005900D92E3
:10007000A437B107D9F712E0A4E7B2E001C01D929E
:10008000AD3EB107E1F70E9492220C94C4320C9469
:100090000000EF92FF920F931F937B018C0120E0F1
:1000A00030E040E05FE40E94F50388238CF0C80153
:1000B000B70120E030E040E05FE40E94C1010E940F
:1000C00055049B01AC01205030404040504806C0D0
:1000D000C801B7010E9455049B01AC01B901CA01D6
:1000E0001F910F91FF90EF900895A0E0B0E0EBE733
:1000F000F0E00C94B22FDC012B01FA019C919230BC
:1001000008F439C1EB018881823008F433C194309E
:1001100069F4843009F02FC111969C91119789815F
:10012000981709F428C1ACE0B1E025C1843009F486
:1001300021C18230A9F4923009F01DC19A01AD01AC
:1001400088E0EA010990AE01E90109929E0181501F
:10015000C1F7E201898111969C918923818308C1AD
:10016000923009F407C112962D903C901397EB0141
:100170008A819B811496AD90BD90CD90DC901797AD
:10018000EC80FD800E811F819101281B390BB90184
:1001900037FF04C066277727621B730B6032710537
:1001A0000CF061C0121613066CF537014801062EDB
:1001B00004C096948794779467940A94D2F721E0C8
:1001C00030E040E050E004C0220F331F441F551FB1
:1001D0006A95D2F721503040404050402E213F21B7
:1001E00040235123211531054105510521F021E01E
:1001F00030E040E050E079018A01E628F72808293C
:1002000019293CC0232BD1F1260E371E350146019A
:10021000062E04C096948794779467940A94D2F734
:1002200021E030E040E050E004C0220F331F441FC3
:10023000551F6A95D2F721503040404050402A2146
:100240003B214C215D21211531054105510521F04E
:1002500021E030E040E050E059016A01A628B728CB
:10026000C828D9280BC0821593052CF01C01AA249C
:10027000BB24650103C0EE24FF24870111969C91E5
:10028000D20111968C91981709F445C0992339F041
:10029000A80197012A193B094C095D0906C0A6016E
:1002A00095012E193F09400B510B57FD08C01182D3
:1002B0003382228224833583468357831DC081E0A5
:1002C00081833382228288279927DC01821B930B4A
:1002D000A40BB50B84839583A683B7830DC0220F2F
:1002E000331F441F551F24833583468357838281E0
:1002F000938101979383828324813581468157813D
:10030000DA01C9010197A109B1098F5F9F4FAF4F72
:10031000BF4328F30BC0918333822282EA0CFB1C7B
:100320000C1D1D1DE482F5820683178383E0808304
:10033000248135814681578157FF1AC0C901AA27F8
:1003400097FDA095BA2F81709070A070B0705695EF
:10035000479537952795822B932BA42BB52B848318
:100360009583A683B7838281938101969383828349
:10037000DF0101C0D201CD01CDB7DEB7E2E10C94BF
:10038000CE2FA0E2B0E0E7ECF1E00C94BE2F698341
:100390007A838B839C832D833E834F835887E9E048
:1003A000EE2EF12CEC0EFD1ECE010196B7010E943F
:1003B00046068E010F5E1F4FCE010596B8010E94C2
:1003C00046068A8991E089278A8BC701B801AE0168
:1003D000475E5F4F0E9475000E947105A096E6E09F
:1003E0000C94DA2FA0E2B0E0E8EFF1E00C94BE2F1D
:1003F00069837A838B839C832D833E834F835887C5
:10040000F9E0EF2EF12CEC0EFD1ECE010196B701A6
:100410000E9446068E010F5E1F4FCE010596B80161
:100420000E944606C701B801AE01475E5F4F0E94B9
:1004300075000E947105A096E6E00C94DA2FA0E208
:10044000B0E0E5E2F2E00C94B22F69837A838B830B
:100450009C832D833E834F835887CE010196BE0136
:10046000675F7F4F0E944606CE010596BE016F5E14
:100470007F4F0E9446069985923088F089898230A4
:10048000C8F0943019F4823051F404C0843029F457
:10049000923081F48CE091E0C6C0923049F420E0C3
:1004A0009A858A89981321E02A87CE010996BBC0D4
:1004B000823049F420E09A858A89981321E02A8BBA
:1004C000CE014196B0C02D843E844F8458886D88FB
:1004D0007E888F88988CEE24FF248701AA24BB2471
:1004E000650140E050E060E070E0E0E0F0E0C10174
:1004F00081709070892BE9F0E60CF71C081D191D1E
:100500009A01AB012A0D3B1D4C1D5D1D80E090E062
:10051000A0E0B0E0E614F7040805190520F481E036
:1005200090E0A0E0B0E0BA01A901480F591F6A1F8E
:100530007B1FAA0CBB1CCC1CDD1C97FE08C081E0F5
:1005400090E0A0E0B0E0A82AB92ACA2ADB2A3196B6
:10055000E032F10549F0660C771C881C991C569412
:10056000479437942794C3CFFA85EA892B893C892D
:100570008B859C85280F391F2E5F3F4F17C0CA01FE
:1005800081709070892B61F016950795F794E79428
:1005900080E090E0A0E0B0E8E82AF92A0A2B1B2BC3
:1005A00076956795579547952F5F3F4F77FDE7CF36
:1005B0000CC0440F551F661F771F17FD4160EE0CDE
:1005C000FF1C001F111F21503040403090E05907A0
:1005D00090E0690790E4790760F32B8F3C8FDB0193
:1005E000CA018F779070A070B07080349105A1051A
:1005F000B10561F447FD0AC0E114F10401051105DC
:1006000029F0405C5F4F6F4F7F4F40781A8EFE1786
:1006100011F081E08A8F4D8F5E8F6F8F78A383E01A
:10062000898FCE0149960E947105A096E2E10C9453
:10063000CE2FA8E1B0E0EFE1F3E00C94BA2F69838C
:100640007A838B839C832D833E834F835887B9E0C5
:10065000EB2EF12CEC0EFD1ECE010196B7010E948F
:1006600046068E010F5E1F4FCE010596B8010E940F
:1006700046062985223008F47EC03989323010F4CC
:10068000B8017CC08A859A8989278A87243011F02D
:10069000223031F4231709F06EC06CE071E06EC0B7
:1006A000343039F41D861E861F86188A1C861B86E8
:1006B00004C0323021F484E08987B7015FC02B8504
:1006C0003C858B899C89281B390B3C872B87ED84C3
:1006D000FE840F851889AD88BE88CF88D88CEA142F
:1006E000FB040C051D0540F4EE0CFF1C001F111F40
:1006F000215030403C872B8720E030E040E050E044
:1007000080E090E0A0E0B0E460E070E0EA14FB0478
:100710000C051D0540F0282B392B4A2B5B2BEA18C2
:10072000FB080C091D09B695A79597958795EE0CC2
:10073000FF1C001F111F6F5F7F4F6F31710531F775
:10074000DA01C9018F779070A070B0708034910584
:10075000A105B10561F427FD0AC0E114F10401050A
:10076000110529F0205C3F4F4F4F5F4F20782D87B8
:100770003E874F87588BBE01675F7F4FCB010E943A
:1007800071056896EAE00C94D62FA8E1B0E0EBEC96
:10079000F3E00C94BE2F69837A838B839C832D8333
:1007A0003E834F83588789E0E82EF12CEC0EFD1E26
:1007B000CE010196B7010E9446068E010F5E1F4FC3
:1007C000CE010596B8010E9446068985823040F028
:1007D0008989823028F0C701B8010E94BE0601C095
:1007E0008FEF6896E6E00C94DA2FA8E1B0E0EBEF2B
:1007F000F3E00C94BE2F69837A838B839C832D83D3
:100800003E834F83588789E0E82EF12CEC0EFD1EC5
:10081000CE010196B7010E9446068E010F5E1F4F62
:10082000CE010596B8010E9446068985823040F0C7
:100830008989823028F0C701B8010E94BE0601C034
:100840008FEF6896E6E00C94DA2FA8E1B0E0EBE2D7
:10085000F4E00C94BE2F69837A838B839C832D8371
:100860003E834F83588789E0E82EF12CEC0EFD1E65
:10087000CE010196B7010E9446068E010F5E1F4F02
:10088000CE010596B8010E9446068985823040F067
:100890008989823028F0C701B8010E94BE0601C0D4
:1008A00081E06896E6E00C94DA2FACE0B0E0EBE58E
:1008B000F4E00C94C22F69837A838B839C83CE01EE
:1008C0000196BE016B5F7F4F0E9446068D8182308C
:1008D00061F1823050F1843021F48E81882351F10E
:1008E0002EC02F81388537FD20C06E812F31310514
:1008F0001CF06623F9F023C08EE190E0821B930B7D
:1009000029853A854B855C8504C056954795379572
:1009100027958A95D2F76623B1F05095409530958A
:1009200021953F4F4F4F5F4F0EC020E030E040E039
:1009300050E009C02FEF3FEF4FEF5FE704C020E02A
:1009400030E040E050E8B901CA012C96E2E00C9496
:10095000DE2FA8E0B0E0EFEAF4E00C94BA2F7B01C0
:100960008C01611571058105910519F482E0898377
:1009700060C083E089838EE1C82ED12CDC82CB82DB
:10098000ED82FE820F831887C801B7010E942205FD
:10099000FC013197F7FF3BC0222733272E1B3F0B6B
:1009A00057016801022E04C0D694C794B794A79447
:1009B0000A94D2F740E050E060E070E081E090E01F
:1009C000A0E0B0E004C0880F991FAA1FBB1F2A95A2
:1009D000D2F70197A109B1098E219F21A023B1234C
:1009E0000097A105B10521F041E050E060E070E022
:1009F0004A295B296C297D294D835E836F83788723
:100A00008EE190E08E1B9F0B9C838B8312C03097EE
:100A100081F00E2E04C0EE0CFF1C001F111F0A9463
:100A2000D2F7ED82FE820F831887CE1ADF0ADC82AE
:100A3000CB821A82CE0101960E9471052896EAE0C7
:100A40000C94D62FEF92FF920F931F937B018C0192
:100A500080E0E81680E0F80681E0080780E01807EB
:100A600088F48FEFE816F1040105110531F028F044
:100A700088E090E0A0E0B0E017C080E090E0A0E067
:100A8000B0E012C080E0E81680E0F80680E00807D9
:100A900081E0180728F088E190E0A0E0B0E004C011
:100AA00080E190E0A0E0B0E020E230E040E050E003
:100AB000281B390B4A0B5B0B04C016950795F7945E
:100AC000E7948A95D2F7F701EC5EFE4F8081281BF0
:100AD000310941095109C9011F910F91FF90EF9010
:100AE0000895DF92EF92FF920F931F93FC01E48031
:100AF000F58006811781D1808081823048F480E0C2
:100B000090E0A0E1B0E0E82AF92A0A2B1B2BA5C04F
:100B1000843009F49FC0823021F4EE24FF24870141
:100B200005C0E114F1040105110519F4E0E0F0E05D
:100B300096C0628173819FEF623879070CF05BC0C9
:100B400022E83FEF261B370B2A3131052CF020E03D
:100B500030E040E050E02AC0B801A701022E04C0F6
:100B600076956795579547950A94D2F781E090E07E
:100B7000A0E0B0E004C0880F991FAA1FBB1F2A95F0
:100B8000D2F70197A109B1098E219F21A023B1239A
:100B90000097A105B10521F081E090E0A0E0B0E070
:100BA0009A01AB01282B392B4A2B5B2BDA01C901A7
:100BB0008F779070A070B07080349105A105B10559
:100BC00039F427FF09C0205C3F4F4F4F5F4F04C0EF
:100BD000215C3F4F4F4F5F4FE0E0F0E02030A0E05E
:100BE0003A07A0E04A07A0E45A0710F0E1E0F0E07D
:100BF00079018A0127C06038710564F5FB01E1586D
:100C0000FF4FD801C7018F779070A070B07080340B
:100C10009105A105B10539F4E7FE0DC080E490E02F
:100C2000A0E0B0E004C08FE390E0A0E0B0E0E80E08
:100C3000F91E0A1F1B1F17FF05C016950795F7948D
:100C4000E794319687E016950795F794E7948A958F
:100C5000D1F705C0EE24FF248701EFEFF0E06E2FFF
:100C6000679566276795902F9F77D794DD24D79453
:100C70008E2F8695492F462B582F5D29B701CA0123
:100C80001F910F91FF90EF90DF900895FC01DB0121
:100C9000408151812281622F6F7770E0221F2227CD
:100CA000221F9381892F880F822B282F30E0991FD4
:100CB0009927991F11969C93119721153105A9F534
:100CC000411551056105710511F482E037C082E8D4
:100CD0009FEF13969C938E9312979A01AB0167E056
:100CE000220F331F441F551F6A95D1F783E08C9361
:100CF0000DC0220F331F441F551F12968D919C91DA
:100D00001397019713969C938E931297203080E04F
:100D1000380780E0480780E4580758F314962D936D
:100D20003D934D935C93179708952F3F310579F4C8
:100D3000411551056105710519F484E08C930895FE
:100D400064FF03C081E08C9312C01C9210C02F5727
:100D5000304013963C932E93129783E08C9387E058
:100D6000440F551F661F771F8A95D1F7706414963C
:100D70004D935D936D937C93179708951F93DC01BA
:100D8000FB019C91923008F447C08081823008F4C6
:100D900043C0943051F411961C91843099F58181AF
:100DA000682F70E0611B71093FC0843021F09230E0
:100DB00031F48230B9F18181882389F12DC01196F7
:100DC0001C9111978230F1F081811817D9F4129695
:100DD0002D913C911397828193818217930794F010
:100DE00028173907BCF014968D919D910D90BC91F8
:100DF000A02D2481358146815781281739074A075C
:100E00005B0718F4112341F00AC082179307A40767
:100E1000B50740F4112319F061E070E005C06FEFF1
:100E20007FEF02C060E070E0CB011F910895DF9377
:100E3000CF9300D000D00F92CDB7DEB79B838A83CB
:100E400019828A819B81009719F481E08983AEC061
:100E5000A6E4B0E0EA81FB8180858F7081708170AB
:100E60008170982F917019968C9119978E7F892B8C
:100E700019968C93A6E4B0E0EA81FB8180858F709F
:100E8000882F90E095958795817081708170817031
:100E9000982F990F19968C9119978D7F892B1996F8
:100EA0008C93A6E4B0E0EA81FB8180858F70882F67
:100EB00090E0959587959595879581708170817063
:100EC0008170982F990F990F990F18968C911897F8
:100ED000877F892B18968C93A6E4B0E0EA81FB818A
:100EE00080858F70882F90E095958795959587954B
:100EF000959587958170817081708170982F9295FA
:100F0000907F18968C9118978F7E892B18968C93CA
:100F1000A6E4B0E0EA81FB818085982F991F99278C
:100F2000991F81858170880F892B982F9295990F31
:100F3000990F907C19968C9119978F73892B19961C
:100F40008C93A6E4B0E0EA81FB818185869583706D
:100F50008370982F9295907F19968C9119978F7C1A
:100F6000892B19968C931997EA81FB818185869547
:100F7000869586958170282F30E03D832C838C8167
:100F80009D81009759F02C813D812130310561F41C
:100F9000E6E4F0E080858064808708C0E6E4F0E065
:100FA00080858F7B808702C082E0898389810F9052
:100FB0000F900F900F900F90CF91DF910895DF93D6
:100FC000CF9300D00F92CDB7DEB79B838A8319826F
:100FD0008A819B81009719F481E0898335C08A81D9
:100FE0009B81009799F4A6E4B0E0EA81FB818085BB
:100FF00082958F708770982F977018968C9118979C
:10100000887F892B18968C9318971EC0A6E4B0E0B1
:10101000EA81FB81808582958F708770982F977009
:1010200018968C911897887F892B18968C9318970F
:10103000E6E4F0E01482E6E4F0E01582E6E4F0E0B5
:101040001282E6E4F0E0138289810F900F900F90F6
:10105000CF91DF910895DF93CF9300D00F92CDB75A
:10106000DEB79B838A8319828A819B81009719F45A
:1010700081E0898305C0E6E4F0E08085887F808791
:1010800089810F900F900F90CF91DF910895DF939A
:10109000CF9300D00F92CDB7DEB79B838A8319829E
:1010A0008A819B81009719F481E0898308C0E6E476
:1010B000F0E086819781EA81FB8191838083898139
:1010C0000F900F900F90CF91DF910895DF93CF9302
:1010D00000D000D0CDB7DEB79B838A836C831982A2
:1010E0008A819B81009711F481E0898389810F9027
:1010F0000F900F900F90CF91DF910895DF93CF93D2
:101100000F92CDB7DEB71982E6E4F0E08389846000
:10111000838B89810F90CF91DF910895DF93CF93D7
:101120000F92CDB7DEB71982E6E4F0E083898061E3
:10113000838B89810F90CF91DF910895DF93CF93B7
:101140000F92CDB7DEB71982E6E4F0E083898860BC
:10115000838B89810F90CF91DF910895DF93CF9397
:101160000F92CDB7DEB71982E6E4F0E083898062A2
:10117000838B89810F90CF91DF910895DF93CF9377
:101180000F92CDB7DEB71982E6E4F0E083898B7F5A
:10119000838B89810F90CF91DF910895DF93CF9357
:1011A0000F92CDB7DEB71982E6E4F0E083898F7E37
:1011B000838B89810F90CF91DF910895DF93CF9337
:1011C0000F92CDB7DEB71982E6E4F0E08389877F1E
:1011D000838B89810F90CF91DF910895DF93CF9317
:1011E0000F92CDB7DEB71982E6E4F0E083898F7DF8
:1011F000838B89810F90CF91DF910895DF93CF93F7
:1012000000D00F92CDB7DEB79B838A8319828A8183
:101210009B81009719F481E0898308C0EA81FB81F2
:1012200080819181909375028093740289810F90DF
:101230000F900F90CF91DF910895DF93CF9300D05F
:101240000F92CDB7DEB79B838A8319828A819B81F7
:10125000009719F481E0898308C0EA81FB818281CB
:101260009381909379028093780289810F900F90F7
:101270000F90CF91DF910895DF93CF9300D00F921D
:10128000CDB7DEB79B838A8319828A819B810097C1
:1012900019F481E0898308C0EA81FB81848195810A
:1012A000909377028093760289810F900F900F9030
:1012B000CF91DF910895DF93CF9300D00F92CDB7F8
:1012C000DEB79B838A8319828A819B81009719F4F8
:1012D00081E0898308C0EA81FB81868197819093B0
:1012E0007B0280937A0289810F900F900F90CF91AB
:1012F000DF910895DF93CF9300D000D00F92CDB748
:10130000DEB79B838A836C834D8319828A819B819C
:10131000009711F481E0898389810F900F900F90DD
:101320000F900F90CF91DF910895DF93CF9300D06E
:1013300000D00F92CDB7DEB79B838A836C834D8339
:1013400019828A819B81009711F481E089838981C8
:101350000F900F900F900F900F90CF91DF91089505
:10136000DF93CF9300D000D0CDB7DEB78A83198248
:101370008A81282F30E03C832B838B819C810097CE
:1013800059F02B813C812130310561F4E6E4F0E035
:1013900080858064808708C0E6E4F0E080858F7BEC
:1013A000808702C082E0898389810F900F900F901F
:1013B0000F90CF91DF910895DF93CF9300D00F92DC
:1013C000CDB7DEB79B838A8319828A819B81009780
:1013D00019F481E0898308C0E6E4F0E0808191811E
:1013E000EA81FB819183808389810F900F900F9018
:1013F000CF91DF910895DF93CF9300D000D00F926B
:10140000CDB7DEB789838981282F30E03D832C83D7
:101410008C819D818330910529F12C813D8124307F
:1014200031055CF48C819D818130910589F02C819E
:101430003D812230310589F024C08C819D8184302A
:101440009105A9F02C813D8125303105A9F019C005
:1014500081E090E09B838A8318C028E030E03B83E2
:101460002A8313C080E490E09B838A830EC020E02F
:1014700031E03B832A8309C080E094E09B838A8328
:1014800004C021E030E03B832A838A819B810F9056
:101490000F900F900F900F90CF91DF9108951F92B2
:1014A0000F920FB60F9211242F933F934F935F9398
:1014B0006F937F938F939F93AF93BF93EF93FF931C
:1014C000DF93CF93CDB7DEB7E6E4F0E082898B7F80
:1014D000828B8091740290917502009729F0E091BF
:1014E0007402F09175020995CF91DF91FF91EF9110
:1014F000BF91AF919F918F917F916F915F914F912C
:101500003F912F910F900FBE0F901F9018951F9233
:101510000F920FB60F9211242F933F934F935F9327
:101520006F937F938F939F93AF93BF93EF93FF93AB
:10153000DF93CF93CDB7DEB7E6E4F0E08289877F13
:10154000828B8091760290917702009729F0E0914A
:101550007602F09177020995CF91DF91FF91EF919B
:10156000BF91AF919F918F917F916F915F914F91BB
:101570003F912F910F900FBE0F901F9018951F92C3
:101580000F920FB60F9211242F933F934F935F93B7
:101590006F937F938F939F93AF93BF93EF93FF933B
:1015A000DF93CF93CDB7DEB7E6E4F0E082898F7E9C
:1015B000828B8091780290917902009729F0E091D6
:1015C0007802F09179020995CF91DF91FF91EF9127
:1015D000BF91AF919F918F917F916F915F914F914B
:1015E0003F912F910F900FBE0F901F9018951F9253
:1015F0000F920FB60F9211242F933F934F935F9347
:101600006F937F938F939F93AF93BF93EF93FF93CA
:10161000DF93CF93CDB7DEB7E6E4F0E082898F7D2C
:10162000828B80917A0290917B02009729F0E09161
:101630007A02F0917B020995CF91DF91FF91EF91B2
:10164000BF91AF919F918F917F916F915F914F91DA
:101650003F912F910F900FBE0F901F901895DF9321
:10166000CF9300D00F92CDB7DEB79B838A831982C8
:101670008A819B81009719F481E089834AC0A2E5A1
:10168000B0E0EA81FB81848186958695869583709A
:101690008170817081708170982F9295990F990F48
:1016A000907C11968C9111978F7B892B11968C933E
:1016B000A2E5B0E0EA81FB818481869586958695D6
:1016C0008370882F90E095958795817081708170E7
:1016D0008170982F990F990F990F11968C911197EE
:1016E000877F892B11968C93A2E5B0E0EA81FB817C
:1016F000848182958695877083708370982F9295E8
:10170000907F11968C9111978F7C892B11968C93D9
:10171000119789810F900F900F90CF91DF910895CD
:10172000DF93CF9300D00F92CDB7DEB79B838A8330
:1017300019828A819B81009719F481E089832EC0E8
:10174000EA81FB8184818871882389F4A2E5B0E075
:10175000EA81FB8184818770982F977011968C9114
:101760001197887F892B11968C93119717C0A2E54A
:10177000B0E0EA81FB8184818770982F9770119681
:101780008C911197887F892B11968C9381E063E06F
:1017900041E00E942913E2E5F0E0128689810F9072
:1017A0000F900F90CF91DF910895DF93CF9300D0EA
:1017B0000F92CDB7DEB79B838A8319828A819B8182
:1017C000009719F481E0898305C0E2E5F0E08181AA
:1017D000887F818389810F900F900F90CF91DF9147
:1017E0000895DF93CF9300D000D00F92CDB7DEB72E
:1017F0009B838A837D836C8319828A819B81009776
:1018000021F08C819D81009719F481E0898306C0C5
:10181000E2E5F0E08081EC81FD81808389810F9099
:101820000F900F900F900F90CF91DF910895DF935D
:10183000CF93CDB7DEB72E970FB6F894DEBF0FBEAD
:10184000CDBF9F838E8368875A8749873C872B87C4
:101850001D8219821A821B821C828E819F810097B1
:1018600019F481E08D83D0C0EE81FF81848188717D
:10187000882309F0C9C0EE81FF8184818770282FF9
:1018800030E03E872D878D859E858330910509F454
:101890004DC02D853E85243031055CF48D859E85B7
:1018A0008130910599F02D853E852230310511F169
:1018B0008EC08D859E858430910509F453C02D8599
:1018C0003E852530310509F465C081C08885882FA3
:1018D00090E0A0E0B0E020E030EA4CEA59EBBC0137
:1018E000CD010E94602FDC01CB0189839A83AB83F9
:1018F000BC836FC08885882F90E0A0E0B0E020E036
:1019000030EA4CEA59EBBC01CD010E94602FDC01AA
:10191000CB01689412F8B695A7959795879516947C
:10192000D1F789839A83AB83BC8353C08885882F82
:1019300090E0A0E0B0E020E030EA4CEA59EBBC01D6
:10194000CD010E94602FDC01CB01689415F8B6959B
:10195000A795979587951694D1F789839A83AB833A
:10196000BC8337C08885882F90E0A0E0B0E020E0FD
:1019700030EA4CEA59EBBC01CD010E94602FDC013A
:10198000CB01892F9A2FAB2FBB2789839A83AB83F7
:10199000BC831FC08885882F90E0A0E0B0E020E0E5
:1019A00030EA4CEA59EBBC01CD010E94602FDC010A
:1019B000CB01072E7AE0B695A795979587957A95EE
:1019C000D1F7702D89839A83AB83BC8302C082E0F8
:1019D0008D8389819A81AB81BC81892F9A2FAB2F0E
:1019E000BB27E985FA8580839183A283B3838981AC
:1019F0009A81AB81BC819070A070B070EB85FC8542
:101A000080839183A283B3838D812E960FB6F89441
:101A1000DEBF0FBECDBFCF91DF910895DF93CF938F
:101A200000D00F92CDB7DEB789838981282F30E0AF
:101A30003B832A838A819B81009731F02A813B81F5
:101A40002130310539F00BC0E2E5F0E0878181609B
:101A5000878305C0E2E5F0E087818260878380E0CC
:101A60000F900F900F90CF91DF910895DF93CF9358
:101A700000D00F92CDB7DEB789838981282F30E05F
:101A80003B832A838A819B818230910531F02A81B0
:101A90003B812330310539F00BC0E2E5F0E087816E
:101AA0008E7F878305C0E2E5F0E087818D7F8783A5
:101AB00080E00F900F900F90CF91DF910895DF930A
:101AC000CF9300D00F92CDB7DEB79B838A83198264
:101AD0008A819B81009719F481E0898310C0EA8193
:101AE000FB818081918190937D0280937C02EA81C9
:101AF000FB818281938190937F0280937E02898112
:101B00000F900F900F90CF91DF910895DF93CF93B7
:101B100000D000D00F92CDB7DEB79B838A836C8351
:101B20004D8319828A819B81009719F481E0898312
:101B300049C0EA81FB8184818871883109F042C003
:101B4000EA81FB81848180768034D9F4E2E5F0E09B
:101B50008D81482F50E0CA019C01220F331FC9011B
:101B60009695982F882797958795821B930B840FBE
:101B7000951F24E630E0B9010E948B2FCB018287AC
:101B800021C0EA81FB81848180768036D9F4E2E548
:101B9000F0E08D81482F50E0CA019C01220F331FD5
:101BA000C9019695982F882797958795821B930B47
:101BB000840F951F24E630E0B9010E948B2FCB01E2
:101BC0008095828789810F900F900F900F900F90D2
:101BD000CF91DF910895DF93CF9300D000D00F9283
:101BE000CDB7DEB79B838A836C834D8319828A814C
:101BF0009B81009719F481E0898348C0EA81FB81C9
:101C000084818871883009F041C0EA81FB81848138
:101C100080768034C9F4E2E5F0E08D81482F50E011
:101C2000CA019C01220F331FC9019695982F88275E
:101C300097958795821B930B840F951F98EC692FBE
:101C40000E947F2F828722C0EA81FB818481807677
:101C50008036E1F4E2E5F0E08D81482F50E0CA01E2
:101C60009C01220F331FC9019695982F88279795BD
:101C70008795821B930B840F951F24E630E0B901F2
:101C80000E948B2FCB0186958095828789810F904A
:101C90000F900F900F900F90CF91DF9108951F92AA
:101CA0000F920FB60F9211242F933F934F935F9390
:101CB0006F937F938F939F93AF93BF93EF93FF9314
:101CC000DF93CF93CDB7DEB7E2E5F0E086818E7F7C
:101CD000868380917C0290917D02009729F0E091AB
:101CE0007C02F0917D020995CF91DF91FF91EF91F8
:101CF000BF91AF919F918F917F916F915F914F9124
:101D00003F912F910F900FBE0F901F9018951F922B
:101D10000F920FB60F9211242F933F934F935F931F
:101D20006F937F938F939F93AF93BF93EF93FF93A3
:101D3000DF93CF93CDB7DEB7E2E5F0E086818D7F0C
:101D4000868380917E0290917F02009729F0E09136
:101D50007E02F0917F020995CF91DF91FF91EF9183
:101D6000BF91AF919F918F917F916F915F914F91B3
:101D70003F912F910F900FBE0F901F901895DF93FA
:101D8000CF9300D000D00F92CDB7DEB79B838A836C
:101D900019828A819B81009719F481E0898369C047
:101DA000EFE5F0E0808180688083EA81FB818281B9
:101DB0008370282F30E03D832C838C819D8181307E
:101DC000910511F12C813D8122303105B9F18C81D1
:101DD0009D81009709F04BC0E4E5F0E087818064C5
:101DE0008783A4E5B0E0EA81FB81828186958695B0
:101DF0008370982F937011968C9111978C7F892BFB
:101E000011968C93119735C0E4E5F0E087818068E6
:101E10008783A4E5B0E0EA81FB818281869586957F
:101E200083708370982F990F990F11968C91119749
:101E3000837F892B11968C9311971BC0E4E5F0E00A
:101E4000878180628783A4E5B0E0EA81FB8182819B
:101E500086958695837081708170982F9295990FE1
:101E6000990F907C8C918F7B892B8C9302C082E0A0
:101E7000898389810F900F900F900F900F90CF91D1
:101E8000DF910895DF93CF9300D000D00F92CDB7AC
:101E9000DEB79B838A8319828A819B81009719F41C
:101EA00081E089832FC0EFE5F0E080818F77808328
:101EB000EA81FB8182818370282F30E03D832C836F
:101EC0008C819D818130910579F02C813D8122307A
:101ED000310581F08C819D81009791F4E4E5F0E07B
:101EE00087818F7B87830EC0E4E5F0E087818F7761
:101EF000878308C0E4E5F0E087818F7D878302C097
:101F000082E0898389810F900F900F900F900F903E
:101F1000CF91DF910895DF93CF9300D000D00F923F
:101F2000CDB7DEB79B838A8319828A819B81009714
:101F300019F481E0898333C0EA81FB818281837057
:101F4000282F30E03D832C838C819D818130910549
:101F500091F02C813D8122303105B1F08C819D8141
:101F60000097D9F4EA81FB8180819181909381026D
:101F70008093800214C0EA81FB81808191819093DB
:101F80008302809382020BC0EA81FB818081918170
:101F9000909385028093840202C082E089838981C4
:101FA0000F900F900F900F900F90CF91DF910895A9
:101FB0001F920F920FB60F9211242F933F934F93BE
:101FC0005F936F937F938F939F93AF93BF93EF93A1
:101FD000FF93DF93CF93CDB7DEB7E4E5F0E08681E2
:101FE0008F7B86838091800290918102009729F0F7
:101FF000E0918002F09181020995CF91DF91FF91EC
:10200000EF91BF91AF919F918F917F916F915F9170
:102010004F913F912F910F900FBE0F901F901895E9
:102020001F920F920FB60F9211242F933F934F934D
:102030005F936F937F938F939F93AF93BF93EF9330
:10204000FF93DF93CF93CDB7DEB7E4E5F0E0868171
:102050008F7786838091820290918302009729F086
:10206000E0918202F09183020995CF91DF91FF9177
:10207000EF91BF91AF919F918F917F916F915F9100
:102080004F913F912F910F900FBE0F901F90189579
:102090001F920F920FB60F9211242F933F934F93DD
:1020A0005F936F937F938F939F93AF93BF93EF93C0
:1020B000FF93DF93CF93CDB7DEB7E4E5F0E0868101
:1020C000806286838091840290918502009729F036
:1020D000E0918402F09185020995CF91DF91FF9103
:1020E000EF91BF91AF919F918F917F916F915F9190
:1020F0004F913F912F910F900FBE0F901F90189509
:10210000DF93CF93CDB7DEB7E1E4F0E08081886064
:102110008083CF91DF910895DF93CF93CDB7DEB762
:10212000A1E4B0E0E1E4F0E0808188618C93E1E437
:10213000F0E01082CF91DF910895DF93CF930F925B
:10214000CDB7DEB789830E948010E1E4F0E0898199
:102150008770982F97708081887F892B80830F905C
:10216000CF91DF910895DF93CF93CDB7DEB7A895D8
:10217000CF91DF910895DF93CF9300D000D0CDB7FA
:10218000DEB71C8283E38B83E9E2F0E08B81882F4A
:1021900090E0892F990F990B878BE9E2F0E08B8112
:1021A000808388E18A83E9E2F0E08A8181838EE896
:1021B0008983E9E2F0E08981878B8C810F900F9011
:1021C0000F900F90CF91DF910895DF93CF9300D0C0
:1021D000CDB7DEB78A831982E9E2F0E08281882FE9
:1021E00090E0807290700097B9F3E9E2F0E08A81A4
:1021F000838389810F900F90CF91DF910895DF93B2
:10220000CF9300D00F92CDB7DEB79B838A8319821C
:10221000E9E2F0E082818823DCF7E9E2F0E0838103
:10222000EA81FB81808389810F900F900F90CF917D
:10223000DF910895DF93CF9300D00F92CDB7DEB733
:102240009B838A8319828A819B81009771F481E044
:10225000898310C0EA81FB8180810E94E510898317
:102260008A819B8101969B838A83EA81FB8180819D
:10227000882381F789810F900F900F90CF91DF9184
:102280000895DF93CF9300D00F92CDB7DEB79B8335
:102290008A8319828A819B81009719F481E089835E
:1022A00022C0EA81FB818281882379F481E065E0A4
:1022B00041E00E94291381E067E041E00E94291378
:1022C000EDE2F0E081E580830EC0EA81FB8182814E
:1022D000813049F481E066E041E00E942913EDE29B
:1022E000F0E080E4808389810F900F900F90CF9170
:1022F000DF910895DF93CF9300D000D0CDB7DEB744
:102300008A837C836B8319828B819C81009719F46B
:1023100081E089830FC0EDE2F0E08A818283EDE203
:10232000F0E081818823DCF7EDE2F0E08281EB814F
:10233000FC81808389810F900F900F900F90CF9137
:10234000DF910895DF93CF9300D000D0CDB7DEB7F3
:102350009B838A836C8319828A819B81009719F4FD
:1023600081E0898316C0ADE2B0E0EDE2F0E080816B
:1023700080688C938A819B819093880280938702E6
:10238000EDE2F0E08C818283EDE2F0E08181882350
:10239000DCF789810F900F900F900F90CF91DF9114
:1023A0000895DF93CF9300D000D0CDB7DEB79C83E4
:1023B0008B8319828B819C81009791F481E08983C2
:1023C00014C0EB81FC8180819E012E5F3F4FB901DB
:1023D0000E947A1189838B819C8101969C838B83D7
:1023E000EB81FC818081882361F789810F900F90B8
:1023F0000F900F90CF91DF9108951F920F920FB61B
:102400000F9211242F933F934F935F936F937F937A
:102410008F939F93AF93BF93EF93FF93DF93CF93EC
:10242000CDB7DEB7EDE2F0E0828180938602809145
:10243000870290918802009729F0E0918702F0913D
:1024400088020995CF91DF91FF91EF91BF91AF91F4
:102450009F918F917F916F915F914F913F912F91BC
:102460000F900FBE0F901F901895DF93CF9300D061
:1024700000D00F92CDB7DEB79B838A8319828A8101
:102480009B81009719F481E089832FC0A0E2B0E01E
:10249000E0E2F0E081818E7F11968C93A0E2B0E0C3
:1024A000E0E2F0E081818D7F11968C931197EA81B3
:1024B000FB818181282F30E03D832C838C819D819D
:1024C000009731F02C813D812130310531F009C078
:1024D000E0E2F0E088E4808304C0E0E2F0E08CE039
:1024E0008083E0E2F0E081E486AB89810F900F9079
:1024F0000F900F900F90CF91DF910895DF93CF93BE
:1025000000D0CDB7DEB78A8381E08983E0E2F0E0D6
:102510008A818383E0E2F0E084E886ABE0E2F0E0E9
:1025200086A98823DCF789810F900F90CF91DF91E6
:102530000895DF93CF930F92CDB7DEB781E0898303
:10254000E0E2F0E084EA86ABE0E2F0E086A98823EE
:10255000DCF789810F90CF91DF910895DF93CF93BE
:102560000F92CDB7DEB781E08983E0E2F0E084E945
:1025700086AB89810F90CF91DF910895DF93CF9340
:1025800000D00F92CDB7DEB79B838A8381E0898329
:102590008A819B81009719F481E089830FC0E0E272
:1025A000F0E084EC86ABE0E2F0E086A98823DCF77B
:1025B000E0E2F0E08381EA81FB81808389810F90F2
:1025C0000F900F90CF91DF910895DF93CF9300D0BC
:1025D0000F92CDB7DEB79B838A8319828A819B8154
:1025E000009719F481E089830FC0E0E2F0E084E80D
:1025F00086ABE0E2F0E086A98823DCF7E0E2F0E0D9
:102600008381EA81FB81808389810F900F900F90F5
:10261000CF91DF910895DF93CF9300D00F92CDB784
:10262000DEB79B838A8319828A819B81009719F484
:1026300081E0898307C0E0E2F0E08181887FEA8160
:10264000FB81808389810F900F900F90CF91DF9154
:102650000895DF93CF9300D000D00F92CDB7DEB7AF
:1026600089836A834B838981843008F061C08A81C1
:10267000883008F05DC08B81282F30E03D832C83AB
:102680008C819D81009769F12C813D81213031053C
:1026900009F04EC08981882F90E0880F991FFC01B6
:1026A000EC5EFD4FA081B1818981882F90E0880F79
:1026B000991FFC01EC5EFD4F0190F081E02D8181BE
:1026C000482F8A81282F30E081E090E0022E02C05E
:1026D000880F991F0A94E2F7842B11968C93119717
:1026E00027C08981882F90E0880F991FFC01EC5E3C
:1026F000FD4FA081B1818981882F90E0880F991FBB
:10270000FC01EC5EFD4F0190F081E02D8181482FAE
:102710008A81282F30E081E090E0022E02C0880FED
:10272000991F0A94E2F78095842311968C93119750
:102730000F900F900F900F900F90CF91DF91089511
:10274000DF93CF9300D000D00F92CDB7DEB789834F
:102750006A834B838981843008F061C08A81883024
:1027600008F05DC08B81282F30E03D832C838C8165
:102770009D81009769F12C813D812130310509F05F
:102780004EC08981882F90E0880F991FFC01EC5E74
:10279000FD4FA081B1818981882F90E0880F991F1A
:1027A000FC01EC5EFD4F0190F081E02D8281482F0D
:1027B0008A81282F30E081E090E0022E02C0880F4D
:1027C000991F0A94E2F7842B12968C93129727C0D4
:1027D0008981882F90E0880F991FFC01EC5EFD4FE6
:1027E000A081B1818981882F90E0880F991FFC0119
:1027F000EC5EFD4F0190F081E02D8281482F8A81AF
:10280000282F30E081E090E0022E02C0880F991F4F
:102810000A94E2F78095842312968C9312970F9076
:102820000F900F900F900F90CF91DF910895DF934D
:10283000CF9300D0CDB7DEB789836A838981843096
:1028400048F58A81883030F58981882F90E0880F9B
:10285000991FFC01EC5EFD4FA081B1818981882F19
:1028600090E0880F991FFC01EC5EFD4F0190F08114
:10287000E02D8281482F8A81282F30E081E090E08E
:10288000022E02C0880F991F0A94E2F7842712963D
:102890008C9312970F900F90CF91DF910895DF9353
:1028A000CF9300D00F92CDB7DEB78A836B831982A6
:1028B0008A818430E8F48B818830D0F48A81882F33
:1028C00090E0880F991FFC01EC5EFD4F0190F081B4
:1028D000E02D8081282F30E08B81882F90E0A901A6
:1028E00002C0559547958A95E2F7CA0181708983A0
:1028F00089810F900F900F90CF91DF910895DF9312
:10290000CF9300D0CDB7DEB789836A8389818430C5
:1029100068F48981882F90E0880F991FFC01EC5E94
:10292000FD4F0190F081E02D8A8181830F900F90FF
:10293000CF91DF910895DF93CF9300D0CDB7DEB76D
:1029400089836A838981843068F48981882F90E043
:10295000880F991FFC01EC5EFD4F0190F081E02D86
:102960008A8182830F900F90CF91DF910895DF933A
:10297000CF9300D0CDB7DEB78A8319828A818430A5
:1029800068F48A81882F90E0880F991FFC01EC5E23
:10299000FD4F0190F081E02D8081898389810F9026
:1029A0000F90CF91DF910895DF93CF9300D0CDB7F3
:1029B000DEB79A83898389819A81009709F45FC081
:1029C000E4E2F0E082818F778283A4E2B0E0E981E3
:1029D000FA8180818695869586958370982F929549
:1029E000990F990F907C13968C9113978F73892B65
:1029F00013968C93A4E2B0E0E981FA8180818295FC
:102A000086958695837081708770982F977012963F
:102A10008C911297887F892B12968C93E4E2F0E0D8
:102A2000828180628283A4E2B0E0E981FA818081C0
:102A30008770982F9295990F907E9C968C919C9779
:102A40008F71892B9C968C93A4E2B0E0E981FA8186
:102A5000808182958695877081708170982F92957C
:102A6000990F907E13968C9113978F7D892B1396D7
:102A70008C931397E4E2F0E08281806882830F9068
:102A80000F90CF91DF910895DF93CF9300D000D0C6
:102A90000F92CDB7DEB79A8389836B835D834C83B6
:102AA000E4E2F0E08B818F71982F9F718381807EAB
:102AB000892B8383E4E2F0E0828180648283E4E214
:102AC000F0E0828180748823D1F7E981FA818081E6
:102AD00080728823D9F4E4E2F0E08181882F90E0CD
:102AE000982F8827EC81FD8191838083EC81FD8183
:102AF00020813181E4E2F0E08081882F90E0820F34
:102B0000931FEC81FD819183808321C0E981FA814B
:102B1000808180728823D9F0E4E2F0E08181882FFF
:102B200090E0382F2227E4E2F0E08081882F90E0C7
:102B3000820F931F0024880F991F001C880F991F74
:102B4000001C892F902DEC81FD81918380830F9053
:102B50000F900F900F900F90CF91DF910895DF931A
:102B6000CF93CDB7DEB7AA970FB6F894DEBF0FBEEE
:102B7000CDBF80E063E041E00E94291380E062E085
:102B800041E00E94291381E060E041E00E942913A6
:102B900081E061E041E00E94291381E062E041E0D0
:102BA0000E94291381E064E041E00E94291380E043
:102BB00090E0A0EAB1E48FA398A7A9A7BAA76FA154
:102BC00078A589A59AA520E030E04AE755E40E945F
:102BD0001F02DC01CB018BA39CA3ADA3BEA36BA101
:102BE0007CA18DA19EA120E030E040E85FE30E943F
:102BF000250488232CF481E090E09AA389A33FC0A8
:102C00006BA17CA18DA19EA120E03FEF4FE757E48F
:102C10000E94C50318164CF56FA178A589A59AA541
:102C200020E030E040E251E40E941F02DC01CB01D1
:102C3000BC01CD010E944900DC01CB019AA389A30C
:102C40000FC080E991E098A38F8F8F8D98A1019795
:102C5000F1F798A38F8F89A19AA101979AA389A3CD
:102C600089A19AA1009769F714C06BA17CA18DA1DD
:102C70009EA10E944900DC01CB019AA389A389A1EE
:102C80009AA19E8F8D8F8D8D9E8D0197F1F79E8FCE
:102C90008D8F88E30E94511780E090E0A0EAB0E4B5
:102CA000898F9A8FAB8FBC8F698D7A8D8B8D9C8D20
:102CB00020E030E04AE755E40E941F02DC01CB012E
:102CC0008D8B9E8BAF8BB88F6D897E898F89988D08
:102CD00020E030E040E85FE30E94250488232CF4E4
:102CE00081E090E09C8B8B8B3FC06D897E898F89C2
:102CF000988D20E03FEF4FE757E40E94C503181678
:102D00004CF5698D7A8D8B8D9C8D20E030E040E212
:102D100051E40E941F02DC01CB01BC01CD010E94E5
:102D20004900DC01CB019C8B8B8B0FC080E991E0CB
:102D30009A8B898B89899A890197F1F79A8B898B6C
:102D40008B899C8901979C8B8B8B8B899C890097A5
:102D500069F714C06D897E898F89988D0E9449001A
:102D6000DC01CB019C8B8B8B8B899C89988B8F870B
:102D70008F8598890197F1F7988B8F8788E30E9458
:102D8000511780E090E0A6E1B3E48B879C87AD8784
:102D9000BE876B857C858D859E8520E030E04AE787
:102DA00055E40E941F02DC01CB018F839887A9871D
:102DB000BA876F81788589859A8520E030E040E880
:102DC0005FE30E94250488232CF481E090E09E8339
:102DD0008D833FC06F81788589859A8520E03FEF9C
:102DE0004FE757E40E94C50318164CF56B857C85A8
:102DF0008D859E8520E030E040E251E40E941F0274
:102E0000DC01CB01BC01CD010E944900DC01CB01FA
:102E10009E838D830FC080E991E09C838B838B819F
:102E20009C810197F1F79C838B838D819E81019713
:102E30009E838D838D819E81009769F714C06F8179
:102E4000788589859A850E944900DC01CB019E83A3
:102E50008D838D819E819A83898389819A8101974F
:102E6000F1F79A83898388E30E94511781E00E94D9
:102E7000511782E00E94511786E00E9451178CE0A2
:102E80000E94511788E20E94511780E80E94511752
:102E9000AA960FB6F894DEBF0FBECDBFCF91DF91DB
:102EA0000895DF93CF93CDB7DEB76D970FB6F89443
:102EB000DEBF0FBECDBF8D8F80E063E040E00E949B
:102EC000A0138D8D82958F70982F917081E060E0B6
:102ED000492F0E94A0138D8D829586958770982F1B
:102EE000917081E061E0492F0E94A0138D8D829541
:102EF000869586958370982F917081E062E0492FC6
:102F00000E94A0138D8D982F991F9927991F81E0FA
:102F100064E0492F0E94A01380E062E041E00E943B
:102F2000A01380E090E0A0EAB0E4898F9A8FAB8F85
:102F3000BC8F698D7A8D8B8D9C8D20E030E04AE7C7
:102F400055E40E941F02DC01CB018D8B9E8BAF8B61
:102F5000B88F6D897E898F89988D20E030E040E8B8
:102F60005FE30E94250488232CF481E090E09C8B91
:102F70008B8B3FC06D897E898F89988D20E03FEFD4
:102F80004FE757E40E94C50318164CF5698D7A8DFA
:102F90008B8D9C8D20E030E040E251E40E941F02C6
:102FA000DC01CB01BC01CD010E944900DC01CB0159
:102FB0009C8B8B8B0FC080E991E09A8B898B8989E0
:102FC0009A890197F1F79A8B898B8B899C89019754
:102FD0009C8B8B8B8B899C89009769F714C06D89BA
:102FE0007E898F89988D0E944900DC01CB019C8BE2
:102FF0008B8B8B899C89988B8F878F85988901977C
:10300000F1F7988B8F8780E062E040E00E94A01388
:103010008D8D982F917081E060E0492F0E94A01360
:103020008D8D8695982F917081E061E0492F0E94E7
:10303000A0138D8D86958695982F917081E062E022
:10304000492F0E94A0138D8D869586958695982F81
:10305000917081E064E0492F0E94A01380E062E05B
:1030600041E00E94A01380E090E0A0EAB0E48B87EA
:103070009C87AD87BE876B857C858D859E8520E08E
:1030800030E04AE755E40E941F02DC01CB018F8348
:103090009887A987BA876F81788589859A8520E086
:1030A00030E040E85FE30E94250488232CF481E0AF
:1030B00090E09E838D833FC06F81788589859A8556
:1030C00020E03FEF4FE757E40E94C50318164CF588
:1030D0006B857C858D859E8520E030E040E251E463
:1030E0000E941F02DC01CB01BC01CD010E944900FE
:1030F000DC01CB019E838D830FC080E991E09C832E
:103100008B838B819C810197F1F79C838B838D81CD
:103110009E8101979E838D838D819E81009769F7A3
:1031200014C06F81788589859A850E944900DC01E9
:10313000CB019E838D838D819E819A838983898132
:103140009A810197F1F79A83898380E062E040E0F9
:103150000E94A0136D960FB6F894DEBF0FBECDBFD0
:10316000CF91DF910895DF93CF93CDB7DEB76D9701
:103170000FB6F894DEBF0FBECDBF8D8F80E063E049
:1031800041E00E94A0138D8D82958F70982F9170D1
:1031900081E060E0492F0E94A0138D8D8295869575
:1031A0008770982F917081E061E0492F0E94A013F1
:1031B0008D8D8295869586958370982F917081E08C
:1031C00062E0492F0E94A0138D8D982F991F992797
:1031D000991F81E064E0492F0E94A01380E062E023
:1031E00041E00E94A01380E090E0A0EAB0E4898F63
:1031F0009A8FAB8FBC8F698D7A8D8B8D9C8D20E0E3
:1032000030E04AE755E40E941F02DC01CB018D8BC0
:103210009E8BAF8BB88F6D897E898F89988D20E0CA
:1032200030E040E85FE30E94250488232CF481E02D
:1032300090E09C8B8B8B3FC06D897E898F89988DA8
:1032400020E03FEF4FE757E40E94C50318164CF506
:10325000698D7A8D8B8D9C8D20E030E040E251E4C9
:103260000E941F02DC01CB01BC01CD010E9449007C
:10327000DC01CB019C8B8B8B0FC080E991E09A8B9A
:10328000898B89899A890197F1F79A8B898B8B8928
:103290009C8901979C8B8B8B8B899C89009769F704
:1032A00014C06D897E898F89988D0E944900DC0148
:1032B000CB019C8B8B8B8B899C89988B8F878F857F
:1032C00098890197F1F7988B8F8780E062E040E062
:1032D0000E94A0138D8D982F917081E060E0492F9E
:1032E0000E94A0138D8D8695982F917081E061E0EA
:1032F000492F0E94A0138D8D86958695982F9170E9
:1033000081E062E0492F0E94A0138D8D86958695FD
:103310008695982F917081E064E0492F0E94A01358
:1033200080E062E041E00E94A01380E090E0A0EA2B
:10333000B0E48B879C87AD87BE876B857C858D8548
:103340009E8520E030E04AE755E40E941F02DC0140
:10335000CB018F839887A987BA876F817885898504
:103360009A8520E030E040E85FE30E94250488234E
:103370002CF481E090E09E838D833FC06F8178853F
:1033800089859A8520E03FEF4FE757E40E94C50307
:1033900018164CF56B857C858D859E8520E030E088
:1033A00040E251E40E941F02DC01CB01BC01CD01CF
:1033B0000E944900DC01CB019E838D830FC080E910
:1033C00091E09C838B838B819C810197F1F79C8397
:1033D0008B838D819E8101979E838D838D819E81BC
:1033E000009769F714C06F81788589859A850E9456
:1033F0004900DC01CB019E838D838D819E819A8360
:10340000898389819A810197F1F79A83898380E082
:1034100062E040E00E94A0136D960FB6F894DEBF04
:103420000FBECDBFCF91DF910895DF93CF9300D032
:10343000CDB7DEB79A83898389819A81009789F015
:103440000BC0E981FA81208189819A8101969A8352
:103450008983822F0E94B318E981FA8180818823B1
:1034600081F70F900F90CF91DF910895DF93CF9365
:1034700000D000D0CDB7DEB789836A838A818150BE
:103480008A838981282F30E03C832B838B819C8128
:1034900082309105D9F02B813C812330310534F401
:1034A0008B819C818130910561F01EC02B813C8114
:1034B0002330310581F08B819C818430910581F02E
:1034C00013C08A8180580E9451170EC08A8180548F
:1034D0000E94511709C08A818C560E94511704C05E
:1034E0008A818C520E9451170F900F900F900F906D
:1034F000CF91DF910895DF93CF93CDB7DEB72F97AC
:103500000FB6F894DEBF0FBECDBF6C877D878E8768
:103510009F878C859D859E012F5F3F4FB9014AE0B3
:1035200050E00E94F22FCE0101960E94151A2F96AC
:103530000FB6F894DEBF0FBECDBFCF91DF910895D7
:10354000DF93CF93CDB7DEB781E00E945117CF91C3
:10355000DF910895DF93CF9300D000D0CDB7DEB7D1
:103560009B838A836C8319828A819B810097B1F047
:1035700080E40E94511719820EC08981282F30E003
:103580008A819B81FC01E20FF31F80810E94B318A6
:1035900089818F5F89838981883078F30F900F90BC
:1035A0000F900F90CF91DF910895DF93CF930F92FB
:1035B000CDB7DEB7898389810E94B3180F90CF9170
:1035C000DF910895DF93CF93CDB7DEB78091890265
:1035D00090918A02A0918B02B0918C020196A11D5C
:1035E000B11D8093890290938A02A0938B02B093BD
:1035F0008C02CF91DF910895DF93CF930F92CDB7D7
:10360000DEB7198280919102882391F482E992E0D9
:103610000E94DC09898380E00E94B00989831092AE
:10362000890210928A0210928B0210928C021FC0A3
:10363000809191028130D9F486E992E00E94DC0900
:1036400089838091890290918A02A0918B02B09126
:103650008C0280938D0290938E02A0938F02B09380
:1036600090020E94BE0889830E94EE08898380919F
:1036700091028F5F809391020F90CF91DF91089517
:10368000DF93CF93CDB7DEB764970FB6F894DEBF64
:103690000FBECDBF8C876D874E872F8719828C8593
:1036A0006D8541E00E9429138E856F8540E00E9460
:1036B0002913CE010296998B888BEAE3F2E0FB8B0B
:1036C000EA8BFAE0FC8BEA89FB8900808A899B8976
:1036D00001969B8B8A8BE889F98900828889998970
:1036E0000196998B888B9C8991509C8BEC89EE2359
:1036F00051F7CE0102960E94170789830E947E0827
:1037000089830E94AE088983EFE5F0E080818068BC
:103710008083CE0102960E94FE088983CE01029624
:103720000E945B098983CE0102960E94DF0789838C
:1037300064960FB6F894DEBF0FBECDBFCF91DF9178
:103740000895DF93CF93CDB7DEB76A970FB6F8949D
:10375000DEBF0FBECDBF898F6A8F898D6A8D41E034
:103760000E94A01380E090E0A0E2B1E48D8B9E8BDC
:10377000AF8BB88F6D897E898F89988D2BEA3AEA55
:103780004AEA50E40E941F02DC01CB01898B9A8B2C
:10379000AB8BBC8B69897A898B899C8920E030E06E
:1037A00040E85FE30E94250488231CF481E0888BB5
:1037B00091C069897A898B899C8920E030E04FE744
:1037C00053E40E94C50318160CF07BC06D897E89F6
:1037D0008F89988D20E030E04AE754E40E94190375
:1037E000DC01CB018C879D87AE87BF876C857D858B
:1037F0008E859F8520E030E04AE755E40E941F0255
:10380000DC01CB0188879987AA87BB876885798582
:103810008A859B8520E030E040E85FE30E94250434
:1038200088232CF481E090E09F838E833FC06885DD
:1038300079858A859B8520E03FEF4FE757E40E941A
:10384000C50318164CF56C857D858E859F8520E017
:1038500030E040E251E40E941F02DC01CB01BC01D8
:10386000CD010E944900DC01CB019F838E830FC0F4
:1038700080E991E09D838C838C819D810197F1F794
:103880009D838C838E819F8101979F838E838E8100
:103890009F81009769F724C0688579858A859B8513
:1038A0000E944900DC01CB019F838E838E819F8122
:1038B0009B838A838A819B810197F1F79B838A830B
:1038C0000FC069897A898B899C890E944900DC0133
:1038D000CB01888B8889898389818A95F1F78983CF
:1038E000898D6A8D40E00E94A0136A960FB6F89405
:1038F000DEBF0FBECDBFCF91DF910895EF92FF9253
:103900000F931F93DF93CF93CDB7DEB765970FB6B5
:10391000F894DEBF0FBECDBF9D8B8C8B188A198AA1
:103920001A8A1B8A1F8680919102823009F0E6C0B4
:103930001092910280918D0290918E02A0918F023F
:10394000B09190022FEF3FEF40E050E0BC01CD017D
:103950000E94602F9B01AC0180919602909197028A
:10396000A0919802B0919902280F391F4A1F5B1F3E
:103970008091920290919302A0919402B09195024D
:1039800079018A01E81AF90A0A0B1B0BD801C70151
:10399000888B998BAA8BBB8B688979898A899B894B
:1039A0000E94A904DC01CB01BC01CD012AE037ED66
:1039B0004BEE50E40E941903DC01CB01BC01CD01A8
:1039C0000E944900DC01CB01EC89FD899183808351
:1039D00080E090E0A6E9B3E48B879C87AD87BE8743
:1039E0006B857C858D859E8520E030E04AE755E437
:1039F0000E941F02DC01CB018F839887A987BA87B9
:103A00006F81788589859A8520E030E040E85FE322
:103A10000E94250488232CF481E090E09E838D830E
:103A20003FC06F81788589859A8520E03FEF4FE719
:103A300057E40E94C50318164CF56B857C858D856F
:103A40009E8520E030E040E251E40E941F02DC014C
:103A5000CB01BC01CD010E944900DC01CB019E835A
:103A60008D830FC080E991E09C838B838B819C8147
:103A70000197F1F79C838B838D819E8101979E83B3
:103A80008D838D819E81009769F714C06F81788541
:103A900089859A850E944900DC01CB019E838D8334
:103AA0008D819E819A83898389819A810197F1F71B
:103AB0009A83898310928D0210928E0210928F0247
:103AC000109290021092890210928A0210928B0238
:103AD00010928C0281E00E94B0098F87E6E4F0E04A
:103AE00082898F7D828BE6E4F0E082898B7F828BF6
:103AF0000E94AE088F870E947E088F8765960FB65A
:103B0000F894DEBF0FBECDBFCF91DF911F910F9113
:103B1000FF90EF900895DF93CF93CDB7DEB781E0AC
:103B200060E041E00E94291381E061E041E00E94F1
:103B3000291381E062E041E00E94291381E064E002
:103B400041E00E942913CF91DF910895DF93CF9335
:103B50000F92CDB7DEB789838981982F917081E06C
:103B600060E0492F0E94A01389818695982F91705B
:103B700081E061E0492F0E94A01389818695869596
:103B8000982F917081E062E0492F0E94A0138981F3
:103B9000869586958695982F917081E064E0492FEF
:103BA0000E94A0130F90CF91DF910895DF93CF93E0
:103BB00000D000D00F92CDB7DEB78D8319821A8264
:103BC0008D818B831C82CE0102960E9435128983DF
:103BD0000F900F900F900F900F90CF91DF9108955D
:103BE000DF93CF9300D000D000D0CDB7DEB79E8357
:103BF0008D831C82ED81FE8182810E94081F8B8350
:103C0000ED81FE8181810E94081F8A83ED81FE8102
:103C100080810E94081F89830E9499128C8380ED05
:103C20000E947E128C8380E00E947E128C838B81A6
:103C30000E947E128C838A810E947E128C838981ED
:103C40000E947E128C830E94AE128C8326960FB641
:103C5000F894DEBF0FBECDBFCF91DF910895DF9303
:103C6000CF9300D00F92CDB7DEB79B838A831982A2
:103C70000E949912898380ED0E947E12898380E0E0
:103C80000E947E1289830E949912898381ED0E948D
:103C90007E1289838A819B8102960E94BE1289834B
:103CA0008A819B8101960E94BE1289838A819B81B1
:103CB0000E94E51289830E94AE128983EA81FB810A
:103CC00082810E942C1FEA81FB818283EA81FB8131
:103CD00081810E942C1FEA81FB818183EA81FB8123
:103CE00080810E942C1FEA81FB8180830F900F90BE
:103CF0000F90CF91DF910895DF93CF9300D000D044
:103D000000D0CDB7DEB79E838D831C82ED81FE810E
:103D100082810E94081F8B83ED81FE8181810E9438
:103D2000081F8A83ED81FE8180810E94081F89839C
:103D30000E9499128C8380ED0E947E128C8384E015
:103D40000E947E128C838B810E947E128C838A81DA
:103D50000E947E128C8389810E947E128C830E9435
:103D6000AE128C8326960FB6F894DEBF0FBECDBF81
:103D7000CF91DF910895DF93CF9300D00F92CDB70D
:103D8000DEB79B838A8319820E949912898380ED12
:103D90000E947E12898384E00E947E1289830E94A1
:103DA0009912898381ED0E947E1289838A819B8189
:103DB00002960E94BE1289838A819B8101960E948D
:103DC000BE1289838A819B810E94E51289830E94A9
:103DD000AE128983EA81FB8182810E942C1FEA81D5
:103DE000FB818283EA81FB8181810E942C1FEA8111
:103DF000FB818183EA81FB8180810E942C1FEA8103
:103E0000FB8180830F900F900F90CF91DF910895E9
:103E1000DF93CF9300D000D00F92CDB7DEB78C8365
:103E20008C819AE0692F0E947F2F892F8B838C8150
:103E30009AE0692F0E947F2F8A838A81982F92951A
:103E4000907F8B81890F89830F900F900F900F9037
:103E50000F90CF91DF910895DF93CF9300D000D0E2
:103E6000CDB7DEB78C838C818F708B838C818295EC
:103E70008F70882F90E09C01220F331FC901880F9B
:103E8000991F880F991F820F931F8A839A818B81B4
:103E9000890F898389810F900F900F900F90CF9198
:103EA000DF910895DF93CF9300D0CDB7DEB789833C
:103EB0006A8389816A8141E00E9429130F900F90E3
:103EC000CF91DF910895DF93CF9300D0CDB7DEB7C8
:103ED00089836A8389816A8141E00E94A0130F90DF
:103EE0000F90CF91DF910895DF93CF9300D0CDB79E
:103EF000DEB789836A8389816A8140E00E94A013CA
:103F00000F900F90CF91DF910895DF93CF9300D062
:103F1000CDB7DEB789836A8389816A810E941714CD
:103F20000F900F90CF91DF910895DF93CF93CDB78E
:103F3000DEB782E065E041E00E94291382E064E0A0
:103F400041E00E94291382E063E041E00E942913CE
:103F500082E062E041E00E94291383E065E040E0F6
:103F60000E94291383E064E040E00E94291383E06B
:103F700063E040E00E94291383E062E040E00E9499
:103F80002913CF91DF910895DF93CF93CDB7DEB79B
:103F900064970FB6F894DEBF0FBECDBF9C8B8B8BA2
:103FA0001A8A198A188A81E08F871A8AD5C0188AD6
:103FB00016C08889882F90E0FC01EC5DFD4F2081C0
:103FC0008889882F90E0FC01E45EFD4F9081822F6C
:103FD000692F41E00E94A01388898F5F888B8889B0
:103FE000843038F38A89882F90E0FC01EC5DFD4F26
:103FF00020818A89882F90E0FC01E45EFD4F90814A
:10400000822F692F40E00E94A01380E090E0A0E2A0
:10401000B1E48B879C87AD87BE876B857C858D855A
:104020009E8520E030E04AE755E40E941F02DC0153
:10403000CB018F839887A987BA876F817885898517
:104040009A8520E030E040E85FE30E942504882361
:104050002CF481E090E09E838D833FC06F81788552
:1040600089859A8520E03FEF4FE757E40E94C5031A
:1040700018164CF56B857C858D859E8520E030E09B
:1040800040E251E40E941F02DC01CB01BC01CD01E2
:104090000E944900DC01CB019E838D830FC080E923
:1040A00091E09C838B838B819C810197F1F79C83AA
:1040B0008B838D819E8101979E838D838D819E81CF
:1040C000009769F714C06F81788589859A850E9469
:1040D0004900DC01CB019E838D838D819E819A8373
:1040E000898389819A810197F1F79A838983198A53
:1040F0002DC08989882F90E0FC01E85DFD4F20816B
:104100008989882F90E0FC01E05EFD4F9081822F2D
:10411000692F0E944F148F878F858823A1F48A8985
:10412000482F50E08989282F30E0CA01880F991F55
:10413000880F991F820F931FFC01EC5BFD4F80815C
:10414000EB89FC89808389898F5F898B8989843099
:1041500080F28A898F5F8A8B8A89843008F427CF1E
:1041600064960FB6F894DEBF0FBECDBFCF91DF913E
:104170000895DF93CF9300D00F92CDB7DEB79B8326
:104180008A8319828A819B810097F1F0EA81FB8101
:104190001286198216C08981282F30E08A819B817E
:1041A000FC01E20FF31F10828981282F30E08A8101
:1041B0009B81820F931FFC013596108289818F5F4E
:1041C00089838981853038F30F900F900F90CF91BC
:1041D000DF910895DF93CF93CDB7DEB764970FB625
:1041E000F894DEBF0FBECDBF9C8B8B8B1A8A198AC9
:1041F000188A81E08F871A8A1FC1188A16C0888999
:10420000882F90E0FC01EC5DFD4F20818889882F8C
:1042100090E0FC01E45EFD4F9081822F692F41E028
:104220000E94A01388898F5F888B8889843038F337
:104230008A89882F90E0FC01EC5DFD4F20818A89FE
:10424000882F90E0FC01E45EFD4F9081822F692F62
:1042500040E00E94A01380E090E0A0EAB1E48B87E8
:104260009C87AD87BE876B857C858D859E8520E08C
:1042700030E04AE755E40E941F02DC01CB018F8346
:104280009887A987BA876F81788589859A8520E084
:1042900030E040E85FE30E94250488232CF481E0AD
:1042A00090E09E838D833FC06F81788589859A8554
:1042B00020E03FEF4FE757E40E94C50318164CF586
:1042C0006B857C858D859E8520E030E040E251E461
:1042D0000E941F02DC01CB01BC01CD010E944900FC
:1042E000DC01CB019E838D830FC080E991E09C832C
:1042F0008B838B819C810197F1F79C838B838D81CC
:104300009E8101979E838D838D819E81009769F7A1
:1043100014C06F81788589859A850E944900DC01E7
:10432000CB019E838D838D819E819A838983898130
:104330009A810197F1F79A838983198A76C08989CE
:10434000882F90E0FC01E85DFD4F20818989882F4E
:1043500090E0FC01E05EFD4F9081822F692F0E946A
:104360004F148F878F85882309F05CC0EB89FC8907
:104370008285843008F040C0EB89FC898285682FF3
:1043800070E08A89482F50E08989282F30E0CA01DF
:10439000880F991F880F991F820F931FFC01EC5AF9
:1043A000FD4F20818B899C89FC01E60FF71F20833C
:1043B000EB89FC898285682F70E08A89482F50E05C
:1043C0008989282F30E0CA01880F991F880F991F0B
:1043D000820F931FFC01EC59FD4F20818B899C8932
:1043E000860F971FFC0135962083EB89FC89828517
:1043F0008F5FEB89FC8982878A89482F50E0898901
:10440000282F30E0CA01880F991F880F991F820F4B
:10441000931FFC01EC5AFD4F80818D3219F4EB891A
:10442000FC89128689898F5F898B8989843008F499
:1044300086CF8A898F5F8A8B8A89843008F4DDCEA3
:1044400064960FB6F894DEBF0FBECDBFCF91DF915B
:104450000895DF93CF9300D000D00F92CDB7DEB791
:104460008D8319821A828D818B831C82CE010296E4
:104470000E94351289830F900F900F900F900F902C
:10448000CF91DF910895DF93CF9300D0CDB7DEB702
:1044900089836A830E94991280EA0E947E12898130
:1044A0000E947E128A810E947E120E94AE120F909C
:1044B0000F90CF91DF910895DF93CF9300D0CDB7C8
:1044C000DEB78A830E94991280EA0E947E128A8156
:1044D0000E947E120E94991281EA0E947E12CE01F1
:1044E00001960E94BE120E94AE1289810F900F9019
:1044F000CF91DF910895DF93CF930F92CDB7DEB7C1
:1045000089830E94991280EA0E947E1289810E940A
:104510007E128FEF0E947E120E94AE120F90CF91FA
:10452000DF9108950F931F93DF93CF93CDB7DEB73D
:10453000C25FD0400FB6F894DEBF0FBECDBFFE0104
:10454000E151FF4F80E283830E94951F87ED92E047
:104550000E94B9200E94AF1582E064E00E94361AE2
:1045600080E690E00E94151AFE01E551FF4F80E0C1
:1045700090E0AAE7B4E480839183A283B3838E01A1
:1045800009511F4FFE01E551FF4F6081718182810A
:10459000938120E030E04AE755E40E941F02DC01ED
:1045A000CB01F80180839183A283B383FE01E9519B
:1045B000FF4F608171818281938120E030E040E88B
:1045C0005FE30E942504882344F4FE01EB51FF4F72
:1045D00081E090E09183808364C0FE01E951FF4F48
:1045E000608171818281938120E03FEF4FE757E442
:1045F0000E94C50318160CF043C0FE01E551FF4FA1
:10460000608171818281938120E030E040E251E459
:104610000E941F02DC01CB018E010B511F4FBC0118
:10462000CD010E944900DC01CB01F8019183808318
:104630001FC0FE01ED51FF4F80E991E0918380831F
:10464000FE01ED51FF4F808191810197F1F7FE014D
:10465000ED51FF4F91838083DE01AB51BF4FFE01CF
:10466000EB51FF4F80819181019711969C938E931E
:10467000FE01EB51FF4F808191810097D1F627C059
:104680008E010B511F4FFE01E951FF4F6081718177
:10469000828193810E944900DC01CB01F801918362
:1046A0008083DE01AF51BF4FFE01EB51FF4F808190
:1046B00091818D939C93FE01EF51FF4F80819181F9
:1046C0000197F1F7FE01EF51FF4F918380830E9424
:1046D000A01A80E064E00E94521F80E065E00E9422
:1046E000521F83E062E043E026E00E94401B80E02E
:1046F0000E94D61D83E062E00E94A11B86E392E047
:104700000E947E1C2091360230913702409138027F
:10471000509139028DB79EB708970FB6F8949EBF97
:104720000FBE8DBFEDB7FEB73196CE0181519F4FC1
:10473000918380838FE690E0938382832483358303
:10474000468357830E941330EDB7FEB738960FB6F5
:10475000F894FEBF0FBEEDBF82E062E00E94361A01
:1047600084E790E00E94151ACE0181519F4F0E946C
:10477000151A8091360290913702A0913802B091BB
:10478000390280319105A105B10508F0B3CF0E942F
:10479000A01A82E064E00E94361A80E890E00E944D
:1047A000151AFE01E352FF4F80E090E0AAEFB3E458
:1047B00080839183A283B3838E0107521F4FFE0132
:1047C000E352FF4F608171818281938120E030E06C
:1047D0004AE755E40E941F02DC01CB01F801808307
:1047E0009183A283B383FE01E752FF4F6081718101
:1047F0008281938120E030E040E85FE30E9425045D
:10480000882344F4FE01E952FF4F81E090E0918358
:10481000808364C0FE01E752FF4F60817181828115
:10482000938120E03FEF4FE757E40E94C50318163D
:104830000CF043C0FE01E352FF4F60817181828121
:10484000938120E030E040E251E40E941F02DC014D
:10485000CB018E0109521F4FBC01CD010E944900BE
:10486000DC01CB01F801918380831FC0FE01EB5274
:10487000FF4F80E991E091838083FE01EB52FF4F6F
:10488000808191810197F1F7FE01EB52FF4F9183F7
:104890008083DE01A952BF4FFE01E952FF4F8081A4
:1048A0009181019711969C938E93FE01E952FF4FDF
:1048B000808191810097D1F627C08E0109521F4F48
:1048C000FE01E752FF4F60817181828193810E94D6
:1048D0004900DC01CB01F80191838083DE01AD52F8
:1048E000BF4FFE01E952FF4F808191818D939C93D0
:1048F000FE01ED52FF4F808191810197F1F7FE019A
:10490000ED52FF4F918380830E94A01A82E061E004
:104910000E94361A8EE890E00E94151A83E062E049
:104920000E94A11B86E392E00E947E1C87ED92E02C
:104930000E94EA2082E06CE00E94361A87ED92E045
:104940000E94151A8CE292E027ED32E0B9010E9434
:10495000E92F009711F00C94CB2C87ED92E00E9488
:10496000B92082EE92E00E94B9200E94A01AFE01B6
:10497000E153FF4F80E090E0AAEFB3E4808391839E
:10498000A283B3838E0105531F4FFE01E153FF4FF6
:10499000608171818281938120E030E04AE755E4B3
:1049A0000E941F02DC01CB01F80180839183A28366
:1049B000B383FE01E553FF4F608171818281938152
:1049C00020E030E040E85FE30E942504882344F4BF
:1049D000FE01E753FF4F81E090E09183808364C044
:1049E000FE01E553FF4F608171818281938120E058
:1049F0003FEF4FE757E40E94C50318160CF043C081
:104A0000FE01E153FF4F608171818281938120E03B
:104A100030E040E251E40E941F02DC01CB018E0134
:104A200007531F4FBC01CD010E944900DC01CB019F
:104A3000F801918380831FC0FE01E953FF4F80E995
:104A400091E091838083FE01E953FF4F8081918142
:104A50000197F1F7FE01E953FF4F91838083DE0157
:104A6000A753BF4FFE01E753FF4F8081918101970C
:104A700011969C938E93FE01E753FF4F80819181A5
:104A80000097D1F627C08E0107531F4FFE01E55353
:104A9000FF4F60817181828193810E944900DC0116
:104AA000CB01F80191838083DE01AB53BF4FFE0140
:104AB000E753FF4F808191818D939C93FE01EB53CF
:104AC000FF4F808191810197F1F7FE01EB53FF4F7A
:104AD0009183808382E064E00E94361A8AE990E044
:104AE0000E94151AFE01EF53FF4F80E090E0AAEFFD
:104AF000B3E480839183A283B3838E0103541F4F59
:104B0000FE01EF53FF4F608171818281938120E02C
:104B100030E04AE755E40E941F02DC01CB01F801B6
:104B200080839183A283B383FE01E354FF4F6081AE
:104B300071818281938120E030E040E85FE30E9450
:104B40002504882344F4FE01E554FF4F81E090E002
:104B50009183808364C0FE01E354FF4F60817181C3
:104B60008281938120E03FEF4FE757E40E94C50325
:104B700018160CF043C0FE01EF53FF4F60817181A6
:104B80008281938120E030E040E251E40E941F02E4
:104B9000DC01CB018E0105541F4FBC01CD010E94E9
:104BA0004900DC01CB01F801918380831FC0FE0125
:104BB000E754FF4F80E991E091838083FE01E75441
:104BC000FF4F808191810197F1F7FE01E754FF4F7C
:104BD00091838083DE01A554BF4FFE01E554FF4F52
:104BE00080819181019711969C938E93FE01E554EB
:104BF000FF4F808191810097D1F627C08E01055427
:104C00001F4FFE01E354FF4F6081718182819381C8
:104C10000E944900DC01CB01F80191838083DE0111
:104C2000A954BF4FFE01E554FF4F808191818D93C0
:104C30009C93FE01E954FF4F808191810197F1F728
:104C4000FE01E954FF4F918380830E94A01A82E005
:104C500061E00E94361A83EA90E00E94151A83E010
:104C600062E00E94A11B86E392E00E947E1C87ED19
:104C700092E00E94EA2082E06CE00E94361A8CEDFD
:104C800092E00E94151A81E392E027ED32E0B9012B
:104C90000E94E92F009709F09AC10E94A01AFE0114
:104CA000ED54FF4F80E090E0AAE7B4E48083918365
:104CB000A283B3838E0101551F4FFE01ED54FF4FB8
:104CC000608171818281938120E030E04AE755E480
:104CD0000E941F02DC01CB01F80180839183A28333
:104CE000B383FE01E155FF4F608171818281938121
:104CF00020E030E040E85FE30E942504882344F48C
:104D0000FE01E355FF4F81E090E09183808364C012
:104D1000FE01E155FF4F608171818281938120E026
:104D20003FEF4FE757E40E94C50318160CF043C04D
:104D3000FE01ED54FF4F608171818281938120E0FB
:104D400030E040E251E40E941F02DC01CB018E0101
:104D500003551F4FBC01CD010E944900DC01CB016E
:104D6000F801918380831FC0FE01E555FF4F80E964
:104D700091E091838083FE01E555FF4F8081918111
:104D80000197F1F7FE01E555FF4F91838083DE0126
:104D9000A355BF4FFE01E355FF4F808191810197DD
:104DA00011969C938E93FE01E355FF4F8081918174
:104DB0000097D1F627C08E0103551F4FFE01E15524
:104DC000FF4F60817181828193810E944900DC01E3
:104DD000CB01F80191838083DE01A755BF4FFE010F
:104DE000E355FF4F808191818D939C93FE01E755A0
:104DF000FF4F808191810197F1F7FE01E755FF4F49
:104E00009183808382E062E00E94361A8FEA90E00C
:104E10000E94151AFE01EB55FF4F80E090E0AAEFCB
:104E2000B4E480839183A283B3838E010F551F4F17
:104E3000FE01EB55FF4F608171818281938120E0FB
:104E400030E04AE755E40E941F02DC01CB01F80183
:104E500080839183A283B383FE01EF55FF4F60816E
:104E600071818281938120E030E040E85FE30E941D
:104E70002504882344F4FE01E156FF4F81E090E0D1
:104E80009183808364C0FE01EF55FF4F6081718183
:104E90008281938120E03FEF4FE757E40E94C503F2
:104EA00018160CF043C0FE01EB55FF4F6081718175
:104EB0008281938120E030E040E251E40E941F02B1
:104EC000DC01CB018E0101561F4FBC01CD010E94B8
:104ED0004900DC01CB01F801918380831FC0FE01F2
:104EE000E356FF4F80E991E091838083FE01E35612
:104EF000FF4F808191810197F1F7FE01E356FF4F4B
:104F000091838083DE01A156BF4FFE01E156FF4F22
:104F100080819181019711969C938E93FE01E156B9
:104F2000FF4F808191810097D1F627C08E010156F5
:104F30001F4FFE01EF55FF4F608171818281938188
:104F40000E944900DC01CB01F80191838083DE01DE
:104F5000A556BF4FFE01E156FF4F808191818D9391
:104F60009C93FE01E556FF4F808191810197F1F7F7
:104F7000FE01E556FF4F918380830E94A01A86EDC3
:104F800092E00E94C41F8091D602813029F480E013
:104F900064E00E94631FF3CF8091D602823029F42F
:104FA00080E064E00E94741FEACF8091D6028330D3
:104FB00029F480E065E00E94631FE1CF8091D60272
:104FC0008430E9F680E065E00E94741FD8CF81E369
:104FD00092E027ED32E0B9010E94E92F009709F431
:104FE0000BC48091E102843009F006C480919B02D9
:104FF0008F5F80939B0280919B02833008F0E7C211
:105000000E94A01AFE01E956FF4F80E090E0AAEF4F
:10501000B3E480839183A283B3838E010D561F4F27
:10502000FE01E956FF4F608171818281938120E00A
:1050300030E04AE755E40E941F02DC01CB01F80191
:1050400080839183A283B383FE01ED56FF4F60817D
:1050500071818281938120E030E040E85FE30E942B
:105060002504882344F4FE01EF56FF4F81E090E0D1
:105070009183808364C0FE01ED56FF4F6081718192
:105080008281938120E03FEF4FE757E40E94C50300
:1050900018160CF043C0FE01E956FF4F6081718184
:1050A0008281938120E030E040E251E40E941F02BF
:1050B000DC01CB018E010F561F4FBC01CD010E94B8
:1050C0004900DC01CB01F801918380831FC0FE0100
:1050D000E157FF4F80E991E091838083FE01E15722
:1050E000FF4F808191810197F1F7FE01E157FF4F5A
:1050F00091838083DE01AF56BF4FFE01EF56FF4F15
:1051000080819181019711969C938E93FE01EF56B9
:10511000FF4F808191810097D1F627C08E010F56F5
:105120001F4FFE01ED56FF4F608171818281938197
:105130000E944900DC01CB01F80191838083DE01EC
:10514000A357BF4FFE01EF56FF4F808191818D9392
:105150009C93FE01E357FF4F808191810197F1F706
:10516000FE01E357FF4F9183808382E064E00E9459
:10517000361A80EC90E00E94151AFE01E757FF4FA7
:1051800080E090E0AAEFB3E480839183A283B383AD
:105190008E010B571F4FFE01E757FF4F6081718152
:1051A0008281938120E030E04AE755E40E941F02AB
:1051B000DC01CB01F80180839183A283B383FE01DC
:1051C000EB57FF4F608171818281938120E030E055
:1051D00040E85FE30E942504882344F4FE01ED5774
:1051E000FF4F81E090E09183808364C0FE01EB5724
:1051F000FF4F608171818281938120E03FEF4FE713
:1052000057E40E94C50318160CF043C0FE01E7578F
:10521000FF4F608171818281938120E030E040E224
:1052200051E40E941F02DC01CB018E010D571F4F7C
:10523000BC01CD010E944900DC01CB01F801918342
:1052400080831FC0FE01EF57FF4F80E991E09183FB
:105250008083FE01EF57FF4F808191810197F1F725
:10526000FE01EF57FF4F91838083DE01AD57BF4FA3
:10527000FE01ED57FF4F80819181019711969C931C
:105280008E93FE01ED57FF4F808191810097D1F6FB
:1052900027C08E010D571F4FFE01EB57FF4F608156
:1052A0007181828193810E944900DC01CB01F80168
:1052B00091838083DE01A158BF4FFE01ED57FF4F60
:1052C000808191818D939C93FE01E158FF4F8081F5
:1052D00091810197F1F7FE01E158FF4F918380839F
:1052E0000E94A01AFE01E558FF4F80E090E0AAE777
:1052F000B4E480839183A283B3838E0109581F4F46
:10530000FE01E558FF4F608171818281938120E029
:1053100030E04AE755E40E941F02DC01CB01F801AE
:1053200080839183A283B383FE01E958FF4F60819C
:1053300071818281938120E030E040E85FE30E9448
:105340002504882344F4FE01EB58FF4F81E090E0F0
:105350009183808364C0FE01E958FF4F60817181B1
:105360008281938120E03FEF4FE757E40E94C5031D
:1053700018160CF043C0FE01E558FF4F60817181A3
:105380008281938120E030E040E251E40E941F02DC
:10539000DC01CB018E010B581F4FBC01CD010E94D7
:1053A0004900DC01CB01F801918380831FC0FE011D
:1053B000ED58FF4F80E991E091838083FE01ED5825
:1053C000FF4F808191810197F1F7FE01ED58FF4F6A
:1053D00091838083DE01AB58BF4FFE01EB58FF4F36
:1053E00080819181019711969C938E93FE01EB58D9
:1053F000FF4F808191810097D1F627C08E010B5815
:105400001F4FFE01E958FF4F6081718182819381B6
:105410000E944900DC01CB01F80191838083DE0109
:10542000AF58BF4FFE01EB58FF4F808191818D93A4
:105430009C93FE01EF58FF4F808191810197F1F716
:10544000FE01EF58FF4F9183808382E064E00E9469
:10545000361A8FEC90E00E94151AFE01E359FF4FB7
:1054600080E090E0AAEFB3E480839183A283B383CA
:105470008E0107591F4FFE01E359FF4F6081718173
:105480008281938120E030E04AE755E40E941F02C8
:10549000DC01CB01F80180839183A283B383FE01F9
:1054A000E759FF4F608171818281938120E030E074
:1054B00040E85FE30E942504882344F4FE01E95993
:1054C000FF4F81E090E09183808364C0FE01E75943
:1054D000FF4F608171818281938120E03FEF4FE730
:1054E00057E40E94C50318160CF043C0FE01E359AF
:1054F000FF4F608171818281938120E030E040E242
:1055000051E40E941F02DC01CB018E0109591F4F9B
:10551000BC01CD010E944900DC01CB01F80191835F
:1055200080831FC0FE01EB59FF4F80E991E091831A
:105530008083FE01EB59FF4F808191810197F1F744
:10554000FE01EB59FF4F91838083DE01A959BF4FC4
:10555000FE01E959FF4F80819181019711969C933B
:105560008E93FE01E959FF4F808191810097D1F61A
:1055700027C08E0109591F4FFE01E759FF4F608177
:105580007181828193810E944900DC01CB01F80185
:1055900091838083DE01AD59BF4FFE01E959FF4F72
:1055A000808191818D939C93FE01ED59FF4F808105
:1055B00091810197F1F7FE01ED59FF4F91838083AF
:1055C0000E94A01A87ED92E00E94B92040CB109271
:1055D0009B020E94A01A8CE992E00E94F01D00C17B
:1055E00083E062E00E94A11B86E392E00E947E1CA1
:1055F00082ED92E00E942F1EFE01E15AFF4F80E0F3
:1056000090E0A0E2B1E480839183A283B3838E0112
:10561000055A1F4FFE01E15AFF4F6081718182815F
:10562000938120E030E04AE755E40E941F02DC014C
:10563000CB01F80180839183A283B383FE01E55AF5
:10564000FF4F608171818281938120E030E040E8EA
:105650005FE30E942504882344F4FE01E75AFF4FCC
:1056600081E090E09183808364C0FE01E55AFF4FA2
:10567000608171818281938120E03FEF4FE757E4A1
:105680000E94C50318160CF043C0FE01E15AFF4FFB
:10569000608171818281938120E030E040E251E4B9
:1056A0000E941F02DC01CB018E01075A1F4FBC0173
:1056B000CD010E944900DC01CB01F8019183808378
:1056C0001FC0FE01E95AFF4F80E991E0918380837A
:1056D000FE01E95AFF4F808191810197F1F7FE01A8
:1056E000E95AFF4F91838083DE01A75ABF4FFE0125
:1056F000E75AFF4F80819181019711969C938E9379
:10570000FE01E75AFF4F808191810097D1F627C0B3
:105710008E01075A1F4FFE01E55AFF4F60817181CC
:10572000828193810E944900DC01CB01F8019183C1
:105730008083DE01AB5ABF4FFE01E75AFF4F8081E5
:1057400091818D939C93FE01EB5AFF4F8081918153
:105750000197F1F7FE01EB5AFF4F9183808380910F
:10576000D202682F70E08091D302282F30E0809120
:10577000D402482F50E08DB79EB70A970FB6F89421
:105780009EBF0FBE8DBFEDB7FEB73196CE018151E2
:105790009F4F9183808389ED90E09383828375830B
:1057A000648337832683518740870E941330EDB787
:1057B000FEB73A960FB6F894FEBF0FBEEDBF81E07C
:1057C00061E00E94361A88EE90E00E94151A82E08D
:1057D00062E00E94361ACE0181519F4F0E94151A35
:1057E0008091D402853108F4FBCE0E94A01A87ED87
:1057F00092E00E94B9202BCA809136029091370224
:10580000A0913802B091390282319105A105B1050C
:1058100008F425CA0E94A01A82E064E00E94361AA9
:1058200088EF90E00E94151AFE01EF5AFF4F80E0CA
:1058300090E0A6E9B3E480839183A283B3838E01D1
:10584000035B1F4FFE01EF5AFF4F60817181828120
:10585000938120E030E04AE755E40E941F02DC011A
:10586000CB01F80180839183A283B383FE01E35BC4
:10587000FF4F608171818281938120E030E040E8B8
:105880005FE30E942504882344F4FE01E55BFF4F9B
:1058900081E090E09183808364C0FE01E35BFF4F71
:1058A000608171818281938120E03FEF4FE757E46F
:1058B0000E94C50318160CF043C0FE01EF5AFF4FBB
:1058C000608171818281938120E030E040E251E487
:1058D0000E941F02DC01CB018E01055B1F4FBC0142
:1058E000CD010E944900DC01CB01F8019183808346
:1058F0001FC0FE01E75BFF4F80E991E09183808349
:10590000FE01E75BFF4F808191810197F1F7FE0176
:10591000E75BFF4F91838083DE01A55BBF4FFE01F4
:10592000E55BFF4F80819181019711969C938E9347
:10593000FE01E55BFF4F808191810097D1F627C082
:105940008E01055B1F4FFE01E35BFF4F608171819C
:10595000828193810E944900DC01CB01F80191838F
:105960008083DE01A95BBF4FFE01E55BFF4F8081B5
:1059700091818D939C93FE01E95BFF4F8081918122
:105980000197F1F7FE01E95BFF4F918380830E944D
:10599000A01A0C947A238CE292E027ED32E0B90150
:1059A0000E94E92F009709F4FCC18091E102843044
:1059B00009F0F7C10E94A01AFE01ED5BFF4F80E0E5
:1059C00090E0AAE7B4E480839183A283B3838E013D
:1059D000015C1F4FFE01ED5BFF4F60817181828191
:1059E000938120E030E04AE755E40E941F02DC0189
:1059F000CB01F80180839183A283B383FE01FF96DC
:105A0000608171818281938120E030E040E85FE332
:105A10000E94250488232CF481E090E09EAF8DAF96
:105A200046C0FE01FF96608171818281938120E0F2
:105A30003FEF4FE757E40E94C503181664F5FE01D7
:105A4000ED5BFF4F608171818281938120E030E0C6
:105A500040E251E40E941F02DC01CB01BC01CD01F8
:105A60000E944900DC01CB019EAF8DAF0FC080E9E1
:105A700091E09CAF8BAF8BAD9CAD0197F1F79CAFE4
:105A80008BAF8DAD9EAD01979EAF8DAF8DAD9EADB1
:105A9000009769F716C0FE01FF96608171818281CF
:105AA00093810E944900DC01CB019EAF8DAF8DAD8B
:105AB0009EAD9AAF89AF89AD9AAD0197F1F79AAFD4
:105AC00089AF82E064E00E94361A83E091E00E9490
:105AD000151A80E090E0AAE7B4E48DAB9EABAFABC3
