:100000000C942A000C94EB0C0C94230D0C945B0DB7
:100010000C9447000C9447000C9409090C94D108E7
:100020000C9499080C9461080C949A0B0C94620B34
:100030000C94D50E0C9447000C9447000C94470088
:100040000C9447000C9447000C9447000C94470014
:100050000C94470011241FBECFE5D8E0DEBFCDBF12
:1000600010E0A0E6B0E0ECE8F9E302C005900D92E4
:10007000AA3AB107D9F710E0AAEAB0E001C01D9290
:10008000A83CB107E1F70E9483190C94C41C0C949E
:100090000000EF92FF920F931F937B018C0120E0F1
:1000A00030E040E05FE40E94490388238CF0C801FF
:1000B000B70120E030E040E05FE40E94C1010E940F
:1000C000A9039B01AC01205030404040504806C07D
:1000D000C801B7010E94A9039B01AC01B901CA0183
:1000E0001F910F91FF90EF900895A0E0B0E0EBE733
:1000F000F0E00C94E519DC012B01FA019C9192309F
:1001000008F439C1EB018881823008F433C194309E
:1001100069F4843009F02FC111969C91119789815F
:10012000981709F428C1A3E6B0E025C1843009F48A
:1001300021C18230A9F4923009F01DC19A01AD01AC
:1001400088E0EA010990AE01E90109929E0181501F
:10015000C1F7E201898111969C918923818308C1AD
:10016000923009F407C112962D903C901397EB0141
:100170008A819B811496AD90BD90CD90DC901797AD
:10018000EC80FD800E811F819101281B390BB90184
:1001900037FF04C066277727621B730B6032710537
:1001A0000CF061C0121613066CF537014801062EDB
:1001B00004C096948794779467940A94D2F721E0C8
:1001C00030E040E050E004C0220F331F441F551FB1
:1001D0006A95D2F721503040404050402E213F21B7
:1001E00040235123211531054105510521F021E01E
:1001F00030E040E050E079018A01E628F72808293C
:1002000019293CC0232BD1F1260E371E350146019A
:10021000062E04C096948794779467940A94D2F734
:1002200021E030E040E050E004C0220F331F441FC3
:10023000551F6A95D2F721503040404050402A2146
:100240003B214C215D21211531054105510521F04E
:1002500021E030E040E050E059016A01A628B728CB
:10026000C828D9280BC0821593052CF01C01AA249C
:10027000BB24650103C0EE24FF24870111969C91E5
:10028000D20111968C91981709F445C0992339F041
:10029000A80197012A193B094C095D0906C0A6016E
:1002A00095012E193F09400B510B57FD08C01182D3
:1002B0003382228224833583468357831DC081E0A5
:1002C00081833382228288279927DC01821B930B4A
:1002D000A40BB50B84839583A683B7830DC0220F2F
:1002E000331F441F551F24833583468357838281E0
:1002F000938101979383828324813581468157813D
:10030000DA01C9010197A109B1098F5F9F4FAF4F72
:10031000BF4328F30BC0918333822282EA0CFB1C7B
:100320000C1D1D1DE482F5820683178383E0808304
:10033000248135814681578157FF1AC0C901AA27F8
:1003400097FDA095BA2F81709070A070B0705695EF
:10035000479537952795822B932BA42BB52B848318
:100360009583A683B7838281938101969383828349
:10037000DF0101C0D201CD01CDB7DEB7E2E10C94BF
:10038000011AA0E2B0E0E7ECF1E00C94F119698306
:100390007A838B839C832D833E834F835887E9E048
:1003A000EE2EF12CEC0EFD1ECE010196B7010E943F
:1003B000D2048E010F5E1F4FCE010596B8010E9438
:1003C000D2048A8991E089278A8BC701B801AE01DE
:1003D000475E5F4F0E9475000E94FD03A096E6E015
:1003E0000C940D1AA0E2B0E0E8EFF1E00C94F119E2
:1003F00069837A838B839C832D833E834F835887C5
:10040000F9E0EF2EF12CEC0EFD1ECE010196B701A6
:100410000E94D2048E010F5E1F4FCE010596B801D7
:100420000E94D204C701B801AE01475E5F4F0E942F
:1004300075000E94FD03A096E6E00C940D1AA0E260
:10044000B0E0E5E2F2E00C94E51969837A838B83EE
:100450009C832D833E834F835887CE010196BE0136
:10046000675F7F4F0E94D204CE010596BE016F5E8A
:100470007F4F0E94D2049985923088F0898982301A
:10048000C8F0943019F4823051F404C0843029F457
:10049000923081F483E690E0C6C0923049F420E0C7
:1004A0009A858A89981321E02A87CE010996BBC0D4
:1004B000823049F420E09A858A89981321E02A8BBA
:1004C000CE014196B0C02D843E844F8458886D88FB
:1004D0007E888F88988CEE24FF248701AA24BB2471
:1004E000650140E050E060E070E0E0E0F0E0C10174
:1004F00081709070892BE9F0E60CF71C081D191D1E
:100500009A01AB012A0D3B1D4C1D5D1D80E090E062
:10051000A0E0B0E0E614F7040805190520F481E036
:1005200090E0A0E0B0E0BA01A901480F591F6A1F8E
:100530007B1FAA0CBB1CCC1CDD1C97FE08C081E0F5
:1005400090E0A0E0B0E0A82AB92ACA2ADB2A3196B6
:10055000E032F10549F0660C771C881C991C569412
:10056000479437942794C3CFFA85EA892B893C892D
:100570008B859C85280F391F2E5F3F4F17C0CA01FE
:1005800081709070892B61F016950795F794E79428
:1005900080E090E0A0E0B0E8E82AF92A0A2B1B2BC3
:1005A00076956795579547952F5F3F4F77FDE7CF36
:1005B0000CC0440F551F661F771F17FD4160EE0CDE
:1005C000FF1C001F111F21503040403090E05907A0
:1005D00090E0690790E4790760F32B8F3C8FDB0193
:1005E000CA018F779070A070B07080349105A1051A
:1005F000B10561F447FD0AC0E114F10401051105DC
:1006000029F0405C5F4F6F4F7F4F40781A8EFE1786
:1006100011F081E08A8F4D8F5E8F6F8F78A383E01A
:10062000898FCE0149960E94FD03A096E2E10C94C9
:10063000011AA8E1B0E0EFE1F3E00C94F11969834D
:100640007A838B839C832D833E834F83588789E0F5
:10065000E82EF12CEC0EFD1ECE010196B7010E9492
:10066000D2048E010F5E1F4FCE010596B8010E9485
:10067000D2048985823040F08989823028F0C70110
:10068000B8010E944A0501C08FEF6896E6E00C941D
:100690000D1AA8E1B0E0EFE4F3E00C94F1196983DE
:1006A0007A838B839C832D833E834F83588789E095
:1006B000E82EF12CEC0EFD1ECE010196B7010E9432
:1006C000D2048E010F5E1F4FCE010596B8010E9425
:1006D000D2048985823040F08989823028F0C701B0
:1006E000B8010E944A0501C08FEF6896E6E00C94BD
:1006F0000D1AA8E1B0E0EFE7F3E00C94F11969837B
:100700007A838B839C832D833E834F83588789E034
:10071000E82EF12CEC0EFD1ECE010196B7010E94D1
:10072000D2048E010F5E1F4FCE010596B8010E94C4
:10073000D2048985823040F08989823028F0C7014F
:10074000B8010E944A0501C081E06896E6E00C9479
:100750000D1AACE0B0E0EFEAF3E00C94F519698310
:100760007A838B839C83CE010196BE016B5F7F4FA2
:100770000E94D2048D81823061F1823050F1843048
:1007800021F48E81882351F12EC02F81388537FDC9
:1007900020C06E812F3131051CF06623F9F023C093
:1007A0008EE190E0821B930B29853A854B855C8511
:1007B00004C056954795379527958A95D2F76623B5
:1007C000B1F050954095309521953F4F4F4F5F4F79
:1007D0000EC020E030E040E050E009C02FEF3FEFD6
:1007E0004FEF5FE704C020E030E040E050E8B9019F
:1007F000CA012C96E2E00C94111ADF92EF92FF925C
:100800000F931F93FC01E480F58006811781D1804E
:100810008081823048F480E090E0A0E1B0E0E82AF6
:10082000F92A0A2B1B2BA5C0843009F49FC0823003
:1008300021F4EE24FF24870105C0E114F104010531
:10084000110519F4E0E0F0E096C0628173819FEF3A
:10085000623879070CF05BC022E83FEF261B370BAC
:100860002A3131052CF020E030E040E050E02AC091
:10087000B801A701022E04C0769567955795479554
:100880000A94D2F781E090E0A0E0B0E004C0880FC5
:10089000991FAA1FBB1F2A95D2F70197A109B10979
:1008A0008E219F21A023B1230097A105B10521F03E
:1008B00081E090E0A0E0B0E09A01AB01282B392B59
:1008C0004A2B5B2BDA01C9018F779070A070B07052
:1008D00080349105A105B10539F427FF09C0205CDA
:1008E0003F4F4F4F5F4F04C0215C3F4F4F4F5F4F13
:1008F000E0E0F0E02030A0E03A07A0E04A07A0E402
:100900005A0710F0E1E0F0E079018A0127C0603871
:10091000710564F5FB01E158FF4FD801C7018F77DE
:100920009070A070B07080349105A105B10539F4C4
:10093000E7FE0DC080E490E0A0E0B0E004C08FE3EB
:1009400090E0A0E0B0E0E80EF91E0A1F1B1F17FFA1
:1009500005C016950795F794E794319687E01695AC
:100960000795F794E7948A95D1F705C0EE24FF2404
:100970008701EFEFF0E06E2F679566276795902F60
:100980009F77D794DD24D7948E2F8695492F462BB9
:10099000582F5D29B701CA011F910F91FF90EF9069
:1009A000DF900895FC01DB01408151812281622F9B
:1009B0006F7770E0221F2227221F9381892F880FD3
:1009C000822B282F30E0991F9927991F11969C930D
:1009D000119721153105A9F54115510561057105DD
:1009E00011F482E037C082E89FEF13969C938E93B8
:1009F00012979A01AB0167E0220F331F441F551F66
:100A00006A95D1F783E08C930DC0220F331F441FEA
:100A1000551F12968D919C911397019713969C9355
:100A20008E931297203080E0380780E0480780E4FA
:100A3000580758F314962D933D934D935C93179755
:100A400008952F3F310579F4411551056105710570
:100A500019F484E08C93089564FF03C081E08C93C3
:100A600012C01C9210C02F57304013963C932E9307
:100A7000129783E08C9387E0440F551F661F771F02
:100A80008A95D1F7706414964D935D936D937C9322
:100A9000179708951F93DC01FB019C91923008F495
:100AA00047C08081823008F443C0943051F41196DD
:100AB0001C91843099F58181682F70E0611B710968
:100AC0003FC0843021F0923031F48230B9F181811D
:100AD000882389F12DC011961C9111978230F1F075
:100AE00081811817D9F412962D913C911397828128
:100AF00093818217930794F028173907BCF0149656
:100B00008D919D910D90BC91A02D248135814681C0
:100B10005781281739074A075B0718F4112341F05A
:100B20000AC082179307A407B50740F4112319F0F0
:100B300061E070E005C06FEF7FEF02C060E070E041
:100B4000CB011F910895DF93CF9300D000D00F9277
:100B5000CDB7DEB79B838A8319828A819B810097F8
:100B600019F481E08983ABC0A6E4B0E0EA81FB819F
:100B700080858F70817081708170982F9170199627
:100B80008C9119978E7F892B19968C93A6E4B0E0EF
:100B9000EA81FB8180858F70882F90E095958795FD
:100BA0008170817081708170982F990F19968C9146
:100BB00019978D7F892B19968C93A6E4B0E0EA8172
:100BC000FB8180858F70882F90E09595879595950E
:100BD00087958170817081708170982F990F990F1E
:100BE000990F18968C911897877F892B18968C935C
:100BF000A6E4B0E0EA81FB8180858F70882F90E0C9
:100C00009595879595958795959587958170817030
:100C100081708170982F9295907F18968C9118977B
:100C20008F7E892B18968C93A6E4B0E0EA81FB8135
:100C30008085982F991F9927991F81858170880F2A
:100C4000892B982F9295990F990F907C19968C91DA
:100C500019978F73892B19968C93A6E4B0E0EA81DB
:100C6000FB818185869583708370982F9295907F04
:100C700019968C9119978F7C892B19968C931997BB
:100C8000EA81FB8181858695869586958170282FDE
:100C900030E03D832C838C819D81009759F02C811D
:100CA0003D812130310559F4E6E4F0E0808580642F
:100CB000808705C0E6E4F0E080858F7B80878981AE
:100CC0000F900F900F900F900F90CF91DF9108959C
:100CD000DF93CF9300D00F92CDB7DEB79B838A838B
:100CE00019828A819B81009719F481E0898343C02E
:100CF0008A819B81009799F4A6E4B0E0EA81FB81A8
:100D0000808582958F708770982F977018968C9138
:100D10001897887F892B18968C9318972CC0A6E477
:100D2000B0E0EA81FB81808582958F708770982F73
:100D3000977018968C911897887F892B18968C93AA
:100D400083E064E041E00E94080F83E065E041E059
:100D50000E94080F83E066E040E00E94080FE6E48E
:100D6000F0E01482E6E4F0E01582E6E4F0E01282BE
:100D7000E6E4F0E0138289810F900F900F90CF91FD
:100D8000DF910895DF93CF9300D00F92CDB7DEB7F8
:100D90009B838A8319828A819B81009719F481E061
:100DA000898305C0E6E4F0E08085887F80878981BB
:100DB0000F900F900F90CF91DF910895DF93CF9315
:100DC00000D000D00F92CDB7DEB79B838A837D839E
:100DD0006C8319828A819B81009721F08C819D818F
:100DE000009719F481E0898312C0E6E4F0E087817E
:100DF000882F90E0382F2227E6E4F0E08681882FC4
:100E000090E0820F931FEC81FD8191838083898123
:100E10000F900F900F900F900F90CF91DF9108954A
:100E2000DF93CF930F92CDB7DEB71982E6E4F0E0FF
:100E300084898460848B89810F90CF91DF9108959C
:100E4000DF93CF930F92CDB7DEB71982E6E4F0E0DF
:100E500084898061848B89810F90CF91DF9108957F
:100E6000DF93CF930F92CDB7DEB71982E6E4F0E0BF
:100E700084898860848B89810F90CF91DF91089558
:100E8000DF93CF930F92CDB7DEB71982E6E4F0E09F
:100E900084898062848B89810F90CF91DF9108953E
:100EA000DF93CF930F92CDB7DEB71982E6E4F0E07F
:100EB00084898B7F848B89810F90CF91DF910895F6
:100EC000DF93CF930F92CDB7DEB71982E6E4F0E05F
:100ED00084898F7E848B89810F90CF91DF910895D3
:100EE000DF93CF930F92CDB7DEB71982E6E4F0E03F
:100EF0008489877F848B89810F90CF91DF910895BA
:100F0000DF93CF930F92CDB7DEB71982E6E4F0E01E
:100F100084898F7D848B89810F90CF91DF91089593
:100F2000DF93CF9300D00F92CDB7DEB79B838A8338
:100F300019828A819B81009719F481E0898308C016
:100F4000EA81FB81808191819093AB008093AA001C
:100F500089810F900F900F90CF91DF910895DF93CB
:100F6000CF9300D00F92CDB7DEB79B838A831982CF
:100F70008A819B81009719F481E0898308C0EA8106
:100F8000FB81828193819093AF008093AE00898131
:100F90000F900F900F90CF91DF910895DF93CF9333
:100FA00000D00F92CDB7DEB79B838A8319828A81E6
:100FB0009B81009719F481E0898308C0EA81FB8155
:100FC000848195819093AD008093AC0089810F90CE
:100FD0000F900F90CF91DF910895DF93CF9300D0C2
:100FE0000F92CDB7DEB79B838A8319828A819B815A
:100FF000009719F481E0898308C0EA81FB8186812A
:1010000097819093B1008093B00089810F900F90E9
:101010000F90CF91DF910895DF93CF9300D000D050
:10102000CDB7DEB78A8319828A81282F30E03C83CE
:101030002B838B819C81009759F02B813C8121303F
:10104000310561F4E6E4F0E080858064808708C0C3
:10105000E6E4F0E080858F7B808702C082E08983B0
:1010600089810F900F900F900F90CF91DF9108958D
:10107000DF93CF9300D00F92CDB7DEB79B838A83E7
:1010800019828A819B81009719F481E0898312C0BB
:10109000E6E4F0E08181882F90E0382F2227E6E413
:1010A000F0E08081882F90E0820F931FEA81FB811E
:1010B0009183808389810F900F900F90CF91DF9162
:1010C00008951F920F920FB60F9211242F933F9302
:1010D0004F935F936F937F938F939F93AF93BF9340
:1010E000EF93FF93DF93CF93CDB7DEB7E6E4F0E065
:1010F00083898B7F838B8091AA009091AB000097AE
:1011000029F0E091AA00F091AB000995CF91DF9111
:10111000FF91EF91BF91AF919F918F917F916F91CF
:101120005F914F913F912F910F900FBE0F901F90A5
:1011300018951F920F920FB60F9211242F933F9381
:101140004F935F936F937F938F939F93AF93BF93CF
:10115000EF93FF93DF93CF93CDB7DEB7E6E4F0E0F4
:101160008389877F838B8091AC009091AD0000973D
:1011700029F0E091AC00F091AD000995CF91DF919D
:10118000FF91EF91BF91AF919F918F917F916F915F
:101190005F914F913F912F910F900FBE0F901F9035
:1011A00018951F920F920FB60F9211242F933F9311
:1011B0004F935F936F937F938F939F93AF93BF935F
:1011C000EF93FF93DF93CF93CDB7DEB7E6E4F0E084
:1011D00083898F7E838B8091AE009091AF000097C2
:1011E00029F0E091AE00F091AF000995CF91DF9129
:1011F000FF91EF91BF91AF919F918F917F916F91EF
:101200005F914F913F912F910F900FBE0F901F90C4
:1012100018951F920F920FB60F9211242F933F93A0
:101220004F935F936F937F938F939F93AF93BF93EE
:10123000EF93FF93DF93CF93CDB7DEB7E6E4F0E013
:1012400083898F7D838B8091B0009091B10000974E
:1012500029F0E091B000F091B1000995CF91DF91B4
:10126000FF91EF91BF91AF919F918F917F916F917E
:101270005F914F913F912F910F900FBE0F901F9054
:101280001895DF93CF9300D00F92CDB7DEB79B8335
:101290008A8319828A819B81009719F481E089836E
:1012A0004AC0A2E5B0E0EA81FB81848186958695FB
:1012B000869583708170817081708170982F92956E
:1012C000990F990F907C11968C9111978F7B892B98
:1012D00011968C93A2E5B0E0EA81FB81848186952A
:1012E000869586958370882F90E095958795817077
:1012F000817081708170982F990F990F990F1196B5
:101300008C911197877F892B11968C93A2E5B0E081
:10131000EA81FB81848182958695877083708370D2
:10132000982F9295907F11968C9111978F7C892B95
:1013300011968C93119789810F900F900F90CF91F8
:10134000DF910895DF93CF9300D00F92CDB7DEB732
:101350009B838A8319828A819B81009719F481E09B
:1013600089832EC0EA81FB8184818871882389F476
:10137000A2E5B0E0EA81FB8184818770982F9770A5
:1013800011968C911197887F892B11968C931197C8
:1013900017C0A2E5B0E0EA81FB8184818770982FB5
:1013A000977011968C911197887F892B11968C9349
:1013B00081E063E041E00E94080FE2E5F0E0128680
:1013C00089810F900F900F90CF91DF910895DF9357
:1013D000CF9300D00F92CDB7DEB79B838A8319825B
:1013E0008A819B81009719F481E0898305C0E2E539
:1013F000F0E08181887F818389810F900F900F9029
:10140000CF91DF910895DF93CF9300D000D00F925A
:10141000CDB7DEB79B838A837D836C8319828A81F3
:101420009B81009721F08C819D81009719F481E0C8
:10143000898306C0E2E5F0E08081EC81FD81808354
:1014400089810F900F900F900F900F90CF91DF91A7
:101450000895DF93CF9300D000D00F92CDB7DEB7C1
:101460009B838A836C8319828A819B81009719F4FC
:1014700081E0898305C0EA81FB818481982F98717E
:1014800089810F900F900F900F900F90CF91DF9167
:101490000895DF93CF93CDB7DEB7EFE5F0E080811D
:1014A00080688083E2E5F0E0878181608783E2E500
:1014B000F0E087818260878380E0CF91DF9108959B
:1014C000DF93CF93CDB7DEB7EFE5F0E080818F7784
:1014D0008083E2E5F0E087818D7F878380E0CF9194
:1014E000DF910895DF93CF9300D00F92CDB7DEB791
:1014F0009B838A8319828A819B81009719F481E0FA
:10150000898310C0EA81FB81808191819093B3002F
:101510008093B200EA81FB81828193819093B50030
:101520008093B40089810F900F900F90CF91DF913D
:101530000895DF93CF9300D000D00F92CDB7DEB7E0
:101540009B838A836C834D8319828A819B81009758
:1015500019F481E0898349C0EA81FB818481887123
:10156000883109F042C0EA81FB8184818076803431
:10157000D9F4E2E5F0E08D81482F50E0CA019C01EA
:10158000220F331FC9019695982F88279795879525
:10159000821B930B840F951F24E630E0B9010E9453
:1015A000BE19CB01828721C0EA81FB8184818076CC
:1015B0008036D9F4E2E5F0E08D81482F50E0CA0191
:1015C0009C01220F331FC9019695982F8827979564
:1015D0008795821B930B840F951F24E630E0B90199
:1015E0000E94BE19CB018095828789810F900F9050
:1015F0000F900F900F90CF91DF910895DF93CF93CD
:1016000000D000D00F92CDB7DEB79B838A836C8366
:101610004D8319828A819B81009719F481E0898327
:1016200048C0EA81FB8184818871883009F041C01B
:10163000EA81FB81848180768034C9F4E2E5F0E0C0
:101640008D81482F50E0CA019C01220F331FC90130
:101650009695982F882797958795821B930B840FD3
:10166000951F98EC692F0E94B219828722C0EA81E7
:10167000FB81848180768036E1F4E2E5F0E08D81C3
:10168000482F50E0CA019C01220F331FC9019695D3
:10169000982F882797958795821B930B840F951F0A
:1016A00024E630E0B9010E94BE19CB0186958095F1
:1016B000828789810F900F900F900F900F90CF919C
:1016C000DF9108951F920F920FB60F9211242F935E
:1016D0003F934F935F936F937F938F939F93AF93BA
:1016E000BF93EF93FF93DF93CF93CDB7DEB7E2E5E0
:1016F000F0E086818E7F86838091B2009091B30066
:10170000009729F0E091B200F091B3000995CF91D4
:10171000DF91FF91EF91BF91AF919F918F917F9159
:101720006F915F914F913F912F910F900FBE0F904E
:101730001F9018951F920F920FB60F9211242F939E
:101740003F934F935F936F937F938F939F93AF9349
:10175000BF93EF93FF93DF93CF93CDB7DEB7E2E56F
:10176000F0E086818D7F86838091B4009091B500F2
:10177000009729F0E091B400F091B5000995CF9160
:10178000DF91FF91EF91BF91AF919F918F917F91E9
:101790006F915F914F913F912F910F900FBE0F90DE
:1017A0001F901895DF93CF9300D000D00F92CDB744
:1017B000DEB79B838A8319828A819B81009719F403
:1017C00081E0898369C0EFE5F0E0808180688083F3
:1017D000EA81FB8182818370282F30E03D832C8356
:1017E0008C819D818130910511F12C813D812230C8
:1017F0003105B9F18C819D81009709F04BC0E4E57A
:10180000F0E0878180648783A4E5B0E0EA81FB8112
:101810008281869586958370982F937011968C910E
:1018200011978C7F892B11968C93119735C0E4E525
:10183000F0E0878180688783A4E5B0E0EA81FB81DE
:1018400082818695869583708370982F990F990F62
:1018500011968C911197837F892B11968C931197F8
:101860001BC0E4E5F0E0878180628783A4E5B0E0F7
:10187000EA81FB8182818695869583708170817073
:10188000982F9295990F990F907C8C918F7B892B33
:101890008C9302C082E0898389810F900F900F9012
:1018A0000F900F90CF91DF910895DF93CF9300D0E9
:1018B00000D00F92CDB7DEB79B838A8319828A81CD
:1018C0009B81009719F481E089832FC0EFE5F0E058
:1018D00080818F778083EA81FB8182818370282FCA
:1018E00030E03D832C838C819D818130910579F09E
:1018F0002C813D812230310581F08C819D810097C2
:1019000091F4E4E5F0E087818F7B87830EC0E4E506
:10191000F0E087818F77878308C0E4E5F0E0878176
:101920008F7D878302C082E0898389810F900F9029
:101930000F900F900F90CF91DF910895DF93CF9389
:1019400000D000D00F92CDB7DEB79B838A83198277
:101950008A819B81009719F481E0898333C0EA81F1
:10196000FB8182818370282F30E03D832C838C8122
:101970009D818130910591F02C813D81223031058E
:10198000B1F08C819D810097D9F4EA81FB8180813F
:1019900091819093B7008093B60014C0EA81FB81D7
:1019A000808191819093B9008093B8000BC0EA8147
:1019B000FB81808191819093BB008093BA0002C02B
:1019C00082E0898389810F900F900F900F900F9084
:1019D000CF91DF9108951F920F920FB60F921124AD
:1019E0002F933F934F935F936F937F938F939F9327
:1019F000AF93BF93EF93FF93DF93CF93CDB7DEB752
:101A0000E4E5F0E086818F7B86838091B60090913B
:101A1000B700009729F0E091B600F091B700099562
:101A2000CF91DF91FF91EF91BF91AF919F918F91F6
:101A30007F916F915F914F913F912F910F900FBECA
:101A40000F901F9018951F920F920FB60F921124AE
:101A50002F933F934F935F936F937F938F939F93B6
:101A6000AF93BF93EF93FF93DF93CF93CDB7DEB7E1
:101A7000E4E5F0E086818F7786838091B8009091CD
:101A8000B900009729F0E091B800F091B9000995EC
:101A9000CF91DF91FF91EF91BF91AF919F918F9186
:101AA0007F916F915F914F913F912F910F900FBE5A
:101AB0000F901F9018951F920F920FB60F9211243E
:101AC0002F933F934F935F936F937F938F939F9346
:101AD000AF93BF93EF93FF93DF93CF93CDB7DEB771
:101AE000E4E5F0E08681806286838091BA0090917F
:101AF000BB00009729F0E091BA00F091BB00099576
:101B0000CF91DF91FF91EF91BF91AF919F918F9115
:101B10007F916F915F914F913F912F910F900FBEE9
:101B20000F901F901895DF93CF9300D000D0CDB7C2
:101B3000DEB71C8283E38B83E9E2F0E08B81882FA0
:101B400090E0892F990F990B878BE9E2F0E08B8168
:101B5000808388E18A83E9E2F0E08A8181838EE8EC
:101B60008983E9E2F0E08981878B8C810F900F9067
:101B70000F900F90CF91DF910895DF93CF9300D016
:101B8000CDB7DEB78A831982E9E2F0E08281882F3F
:101B900090E0807290700097B9F3E9E2F0E08A81FA
:101BA000838389810F900F90CF91DF910895DF9308
:101BB000CF9300D00F92CDB7DEB79B838A83198273
:101BC000E9E2F0E082818823DCF7E9E2F0E083815A
:101BD000EA81FB81808389810F900F900F90CF91D4
:101BE000DF910895DF93CF9300D00F92CDB7DEB78A
:101BF0009B838A8319828A819B81009771F481E09B
:101C0000898310C0EA81FB8180810E94BD0D898398
:101C10008A819B8101969B838A83EA81FB818081F3
:101C2000882381F789810F900F900F90CF91DF91DA
:101C30000895DF93CF9300D00F92CDB7DEB79B838B
:101C40008A8319828A819B81009719F481E08983B4
:101C500022C0EA81FB818281882379F481E065E0FA
:101C600041E00E94080F81E067E041E00E94080F18
:101C7000EDE2F0E081E580830EC0EA81FB818281A4
:101C8000813049F481E066E041E00E94080FEDE216
:101C9000F0E080E4808389810F900F900F90CF91C6
:101CA000DF910895DF93CF9300D000D0CDB7DEB79A
:101CB0008A837C836B8319828B819C81009719F4C2
:101CC00081E089830FC0EDE2F0E08A818283EDE25A
:101CD000F0E081818823DCF7EDE2F0E08281EB81A6
:101CE000FC81808389810F900F900F900F90CF918E
:101CF000DF910895DF93CF9300D000D0CDB7DEB74A
:101D00009B838A836C8319828A819B81009719F453
:101D100081E0898316C0EFE5F0E0808180688083F0
:101D2000ADE2B0E0EDE2F0E0808180688C938A81E2
:101D30009B819093BD008093BC00EDE2F0E08C812C
:101D4000828389810F900F900F900F90CF91DF9138
:101D50000895DF93CF9300D000D0CDB7DEB79C833A
:101D60008B8319828B819C81009791F481E0898318
:101D700014C0EB81FC8180819E012E5F3F4FB90131
:101D80000E94520E89838B819C8101969C838B8358
:101D9000EB81FC818081882361F789810F900F900E
:101DA0000F900F90CF91DF9108951F920F920FB671
:101DB0000F9211242F933F934F935F936F937F93D1
:101DC0008F939F93AF93BF93EF93FF93DF93CF9343
:101DD000CDB7DEB78091BC009091BD00009729F08F
:101DE000E091BC00F091BD000995CF91DF91FF918A
:101DF000EF91BF91AF919F918F917F916F915F9183
:101E00004F913F912F910F900FBE0F901F901895FB
:101E1000DF93CF9300D000D00F92CDB7DEB7898388
:101E20006A834B838981843008F061C08A8188305D
:101E300008F05DC08B81282F30E03D832C838C819E
:101E40009D81009769F12C813D812130310509F098
:101E50004EC08981882F90E0880F991FFC01E559B9
:101E6000FF4FA081B1818981882F90E0880F991F51
:101E7000FC01E559FF4F0190F081E02D8181482F51
:101E80008A81282F30E081E090E0022E02C0880F86
:101E9000991F0A94E2F7842B11968C93119727C00F
:101EA0008981882F90E0880F991FFC01E559FF4F29
:101EB000A081B1818981882F90E0880F991FFC0152
:101EC000E559FF4F0190F081E02D8181482F8A81F3
:101ED000282F30E081E090E0022E02C0880F991F89
:101EE0000A94E2F78095842311968C9311970F90B2
:101EF0000F900F900F900F90CF91DF910895DF9387
:101F0000CF9300D000D00F92CDB7DEB789836A831C
:101F10004B838981843008F061C08A81883008F061
:101F20005DC08B81282F30E03D832C838C819D8187
:101F3000009769F12C813D812130310509F04EC0B7
:101F40008981882F90E0880F991FFC01E559FF4F88
:101F5000A081B1818981882F90E0880F991FFC01B1
:101F6000E559FF4F0190F081E02D8281482F8A8151
:101F7000282F30E081E090E0022E02C0880F991FE8
:101F80000A94E2F7842B12968C93129727C08981CA
:101F9000882F90E0880F991FFC01E559FF4FA08121
:101FA000B1818981882F90E0880F991FFC01E55944
:101FB000FF4F0190F081E02D8281482F8A81282FE8
:101FC00030E081E090E0022E02C0880F991F0A9451
:101FD000E2F78095842312968C9312970F900F90BE
:101FE0000F900F900F90CF91DF910895DF93CF93D3
:101FF00000D00F92CDB7DEB78A836B8319828A81B6
:102000008430E8F48B818830D0F48A81882F90E086
:10201000880F991FFC01E559FF4F0190F081E02DD9
:102020008081282F30E08B81882F90E0A90102C0A9
:10203000559547958A95E2F7CA0181708983898110
:102040000F900F900F90CF91DF910895DF93CF9372
:1020500000D0CDB7DEB789836A838981843068F484
:102060008981882F90E0880F991FFC01E559FF4F67
:102070000190F081E02D8A8181830F900F90CF91A4
:10208000DF910895DF93CF9300D0CDB7DEB789837A
:102090006A838981843068F48981882F90E0880F71
:1020A000991FFC01E559FF4F0190F081E02D8A81D5
:1020B00082830F900F90CF91DF910895DF93CF939C
:1020C00000D0CDB7DEB78A8319828A81843068F464
:1020D0008A81882F90E0880F991FFC01E559FF4FF6
:1020E0000190F081E02D8081898389810F900F908C
:1020F000CF91DF910895DF93CF9300D0CDB7DEB7B6
:102100009A83898389819A81009709F44EC0E4E219
:10211000F0E082818F77828380E060E00E94261069
:10212000A4E2B0E0E981FA81808186958695869562
:102130008370982F9295990F990F907C13968C919C
:1021400013978F73892B13968C93A4E2B0E0E981E7
:10215000FA818081829586958695837081708770DB
:10216000982F977012968C911297887F892B1296D0
:102170008C93E4E2F0E0828180628283A4E2B0E0AA
:10218000E981FA8180818770982F9295990F907ECE
:102190009D968C919D978F71892B9D968C939D9781
:1021A000E4E2F0E08281806882830F900F90CF910B
:1021B000DF910895DF93CF930F92CDB7DEB7898378
:1021C000E4E2F0E089818F71982F9F718381807E96
:1021D000892B8383E4E2F0E08281806482830F9024
:1021E000CF91DF910895DF93CF93CDB7DEB7AA9754
:1021F0000FB6F894DEBF0FBECDBF80E063E041E0D4
:102200000E94080F80E062E041E00E94080F81E038
:1022100060E041E00E94080F81E061E041E00E943F
:10222000080F81E062E041E00E94080F81E064E075
:1022300041E00E94080F80E090E0A0EAB1E48FA3A3
:1022400098A7A9A7BAA76FA178A589A59AA520E004
:1022500030E04AEF54E40E941F02DC01CB018BA363
:102260009CA3ADA3BEA36BA17CA18DA19EA120E0E8
:1022700030E040E85FE30E94790388232CF481E09A
:1022800090E09AA389A33FC06BA17CA18DA19EA1E0
:1022900020E03FEF4FE757E40E94190318164CF572
:1022A0006FA178A589A59AA520E030E040E251E42D
:1022B0000E941F02DC01CB01BC01CD010E9449003C
:1022C000DC01CB019AA389A30FC088EC90E098A30E
:1022D0008F8F8F8D98A10197F1F798A38F8F89A188
:1022E0009AA101979AA389A389A19AA1009769F756
:1022F00014C06BA17CA18DA19EA10E944900DC01AC
:10230000CB019AA389A389A19AA19E8F8D8F8D8DD0
:102310009E8D0197F1F79E8F8D8F88E30E94951215
:1023200080E090E0A0EAB0E4898F9A8FAB8FBC8FF9
:10233000698D7A8D8B8D9C8D20E030E04AEF54E4DE
:102340000E941F02DC01CB018D8B9E8BAF8BB88F5F
:102350006D897E898F89988D20E030E040E85FE3C9
:102360000E94790388232CF481E090E09C8B8B8B76
:102370003FC06D897E898F89988D20E03FEF4FE7C0
:1023800057E40E94190318164CF5698D7A8D8B8DD0
:102390009C8D20E030E040E251E40E941F02DC010D
:1023A000CB01BC01CD010E944900DC01CB019C8B1B
:1023B0008B8B0FC088EC90E09A8B898B89899A89E6
:1023C0000197F1F79A8B898B8B899C8901979C8B5C
:1023D0008B8B8B899C89009769F714C06D897E89E6
:1023E0008F89988D0E944900DC01CB019C8B8B8BDF
:1023F0008B899C89988B8F878F8598890197F1F7B6
:10240000988B8F8788E30E94951280E090E0A6E188
:10241000B3E48B879C87AD87BE876B857C858D8574
:102420009E8520E030E04AEF54E40E941F02DC0168
:10243000CB018F839887A987BA876F817885898533
:102440009A8520E030E040E85FE30E94790388232A
:102450002CF481E090E09E838D833FC06F8178856E
:1024600089859A8520E03FEF4FE757E40E941903E2
:1024700018164CF56B857C858D859E8520E030E0B7
:1024800040E251E40E941F02DC01CB01BC01CD01FE
:102490000E944900DC01CB019E838D830FC088EC34
:1024A00090E09C838B838B819C810197F1F79C83C7
:1024B0008B838D819E8101979E838D838D819E81EB
:1024C000009769F714C06F81788589859A850E9485
:1024D0004900DC01CB019E838D838D819E819A838F
:1024E000898389819A810197F1F79A83898388E3A7
:1024F0000E94951281E00E94951282E00E9495123E
:1025000086E00E9495128CE00E94951288E20E945B
:10251000951280E80E949512AA960FB6F894DEBF35
:102520000FBECDBFCF91DF910895DF93CF93CDB78D
:10253000DEB76D970FB6F894DEBF0FBECDBF8D8F9F
:1025400080E063E040E00E947F0F8D8D82958F7068
:10255000982F917081E060E0492F0E947F0F8D8D50
:10256000829586958770982F917081E061E0492F60
:102570000E947F0F8D8D8295869586958370982F0A
:10258000917081E062E0492F0E947F0F8D8D982F1E
:10259000991F9927991F81E064E0492F0E947F0FBE
:1025A00080E062E041E00E947F0F80E090E0A0EADE
:1025B000B0E4898F9A8FAB8FBC8F698D7A8D8B8DAC
:1025C0009C8D20E030E04AEF54E40E941F02DC01C1
:1025D000CB018D8B9E8BAF8BB88F6D897E898F8958
:1025E000988D20E030E040E85FE30E947903882383
:1025F0002CF481E090E09C8B8B8B3FC06D897E89B1
:102600008F89988D20E03FEF4FE757E40E94190330
:1026100018164CF5698D7A8D8B8D9C8D20E030E0FD
:1026200040E251E40E941F02DC01CB01BC01CD015C
:102630000E944900DC01CB019C8B8B8B0FC088EC86
:1026400090E09A8B898B89899A890197F1F79A8B07
:10265000898B8B899C8901979C8B8B8B8B899C891F
:10266000009769F714C06D897E898F89988D0E94C3
:102670004900DC01CB019C8B8B8B8B899C89988BCF
:102680008F878F8598890197F1F7988B8F8780E0E6
:1026900062E040E00E947F0F8D8D982F917081E065
:1026A00060E0492F0E947F0F8D8D8695982F917045
:1026B00081E061E0492F0E947F0F8D8D8695869580
:1026C000982F917081E062E0492F0E947F0F8D8DDD
:1026D000869586958695982F917081E064E0492FC4
:1026E0000E947F0F80E062E041E00E947F0F80E067
:1026F00090E0A0EAB0E48B879C87AD87BE876B85AE
:102700007C858D859E8520E030E04AEF54E40E9470
:102710001F02DC01CB018F839887A987BA876F815D
:10272000788589859A8520E030E040E85FE30E9463
:10273000790388232CF481E090E09E838D833FC051
:102740006F81788589859A8520E03FEF4FE757E4D0
:102750000E94190318164CF56B857C858D859E8526
:1027600020E030E040E251E40E941F02DC01CB0196
:10277000BC01CD010E944900DC01CB019E838D8309
:102780000FC088EC90E09C838B838B819C810197A8
:10279000F1F79C838B838D819E8101979E838D832E
:1027A0008D819E81009769F714C06F817885898536
:1027B0009A850E944900DC01CB019E838D838D8127
:1027C0009E819A83898389819A810197F1F79A83FF
:1027D000898380E062E040E00E947F0F6D960FB633
:1027E000F894DEBF0FBECDBFCF91DF910895DF9388
:1027F000CF93CDB7DEB76D970FB6F894DEBF0FBE9F
:10280000CDBF8D8F80E063E041E00E947F0F8D8D12
:1028100082958F70982F917081E060E0492F0E941F
:102820007F0F8D8D829586958770982F917081E0AE
:1028300061E0492F0E947F0F8D8D82958695869548
:102840008370982F917081E062E0492F0E947F0F82
:102850008D8D982F991F9927991F81E064E0492F4A
:102860000E947F0F80E062E041E00E947F0F80E0E5
:1028700090E0A0EAB0E4898F9A8FAB8FBC8F698D0E
:102880007A8D8B8D9C8D20E030E04AEF54E40E94DD
:102890001F02DC01CB018D8B9E8BAF8BB88F6D89B6
:1028A0007E898F89988D20E030E040E85FE30E94C8
:1028B000790388232CF481E090E09C8B8B8B3FC0C4
:1028C0006D897E898F89988D20E03FEF4FE757E42F
:1028D0000E94190318164CF5698D7A8D8B8D9C8D8D
:1028E00020E030E040E251E40E941F02DC01CB0115
:1028F000BC01CD010E944900DC01CB019C8B8B8B7C
:102900000FC088EC90E09A8B898B89899A8901970E
:10291000F1F79A8B898B8B899C8901979C8B8B8B88
:102920008B899C89009769F714C06D897E898F898E
:10293000988D0E944900DC01CB019C8B8B8B8B898D
:102940009C89988B8F878F8598890197F1F7988B51
:102950008F8780E062E040E00E947F0F8D8D982F8E
:10296000917081E060E0492F0E947F0F8D8D8695E8
:10297000982F917081E061E0492F0E947F0F8D8D2B
:1029800086958695982F917081E062E0492F0E948C
:102990007F0F8D8D869586958695982F917081E015
:1029A00064E0492F0E947F0F80E062E041E00E94D6
:1029B0007F0F80E090E0A0EAB0E48B879C87AD8732
:1029C000BE876B857C858D859E8520E030E04AEF53
:1029D00054E40E941F02DC01CB018F839887A987F2
:1029E000BA876F81788589859A8520E030E040E854
:1029F0005FE30E94790388232CF481E090E09E83BA
:102A00008D833FC06F81788589859A8520E03FEF6F
:102A10004FE757E40E94190318164CF56B857C8527
:102A20008D859E8520E030E040E251E40E941F0247
:102A3000DC01CB01BC01CD010E944900DC01CB01CE
:102A40009E838D830FC088EC90E09C838B838B8169
:102A50009C810197F1F79C838B838D819E810197E7
:102A60009E838D838D819E81009769F714C06F814D
:102A7000788589859A850E944900DC01CB019E8377
:102A80008D838D819E819A83898389819A81019723
:102A9000F1F79A83898380E062E040E00E947F0F33
:102AA0006D960FB6F894DEBF0FBECDBFCF91DF910C
:102AB0000895DF93CF9300D0CDB7DEB79A83898393
:102AC00089819A81009789F00BC0E981FA81208180
:102AD00089819A8101969A838983822F0E94F713B4
:102AE000E981FA818081882381F70F900F90CF913F
:102AF000DF910895DF93CF9300D000D0CDB7DEB73C
:102B000089836A838A8181508A838981282F30E072
:102B10003C832B838B819C8182309105D9F02B8162
:102B20003C812330310534F48B819C8181309105C7
:102B300061F01EC02B813C812330310581F08B81F7
:102B40009C818430910581F013C08A8180580E9455
:102B500095120EC08A8180540E94951209C08A8104
:102B60008C560E94951204C08A818C520E94951244
:102B70000F900F900F900F90CF91DF910895EF92EB
:102B8000FF920F931F93DF93CF93CDB7DEB72797B5
:102B90000FB6F894DEBF0FBECDBF9D838C830DB7FB
:102BA0001EB78DB79EB77C018C819D810E948016D7
:102BB00089838981882F90E001962DB73EB7281B25
:102BC000390B0FB6F8943EBF0FBE2DBF8DB79EB721
:102BD00001969F838E838E819F8100969F838E8333
:102BE0002E813F813B832A832A813B818981482F23
:102BF00050E0C90160E270E00E941C1A8981282F10
:102C000030E08A819B81FC01E20FF31F10828A81F0
:102C10009B8100D000D000D0EDB7FEB731969183F4
:102C2000808380E690E0938382838C819D8195836D
:102C300084830E94231A8DB79EB706960FB6F89428
:102C40009EBF0FBE8DBF8A819B810E9459150FB612
:102C5000F894FEBE0FBEEDBE0FB6F8941EBF0FBEB9
:102C60000DBF27960FB6F894DEBF0FBECDBFCF9134
:102C7000DF911F910F91FF90EF900895DF93CF9315
:102C8000CDB7DEB781E00E949512CF91DF91089514
:102C9000DF93CF9300D000D0CDB7DEB79B838A837C
:102CA0006C8319828A819B810097B1F080E40E9435
:102CB000951219820EC08981282F30E08A819B816C
:102CC000FC01E20FF31F80810E94F71389818F5F5F
:102CD00089838981883078F30F900F900F900F903F
:102CE000CF91DF910895DF93CF930F92CDB7DEB7E9
:102CF000898389810E94F7130F90CF91DF91089506
:102D0000DF93CF9300D000D0CDB7DEB79B838A830B
:102D100019828A819B81009719F481E08C831FC0FE
:102D20008A819B819923ACF48A819B8190958195BE
:102D30009F4F9B838A830DC08A819B812AE030E06C
:102D4000B9010E94BE19CB019B838A8389818F5F61
:102D500089838A819B81009779F789818C838C8113
:102D60000F900F900F900F90CF91DF910895DF9308
:102D7000CF93CDB7DEB781E060E041E00E94080F5D
:102D800081E061E041E00E94080F81E062E041E003
:102D90000E94080F81E064E041E00E94080FCF919B
:102DA000DF910895DF93CF930F92CDB7DEB789837C
:102DB0008981982F917081E060E0492F0E947F0FF8
:102DC00089818695982F917081E061E0492F0E945A
:102DD0007F0F898186958695982F917081E062E0BA
:102DE000492F0E947F0F8981869586958695982F19
:102DF000917081E064E0492F0E947F0F0F90CF9186
:102E0000DF910895DF93CF93CDB7DEB782E065E021
:102E100041E00E94080F82E064E041E00E94080F58
:102E200082E063E041E00E94080F82E062E041E05E
:102E30000E94080F83E065E040E00E94080F83E0F5
:102E400064E040E00E94080F83E063E040E00E94FD
:102E5000080F83E062E040E00E94080FCF91DF910D
:102E60000895DF93CF93CDB7DEB764970FB6F8948C
:102E7000DEBF0FBECDBF9C8B8B8B1A8A198A188A36
:102E800081E08F871A8AD5C0188A16C08889882F52
:102E900090E0FC01E558FF4F20818889882F90E061
:102EA000FC01ED58FF4F9081822F692F41E00E9475
:102EB0007F0F88898F5F888B8889843038F38A896F
:102EC000882F90E0FC01E558FF4F20818A89882FE8
:102ED00090E0FC01ED58FF4F9081822F692F40E078
:102EE0000E947F0F80E090E0A0E2B1E48B879C8796
:102EF000AD87BE876B857C858D859E8520E030E023
:102F00004AEF54E40E941F02DC01CB018F839887B3
:102F1000A987BA876F81788589859A8520E030E016
:102F200040E85FE30E94790388232CF481E090E07D
:102F30009E838D833FC06F81788589859A8520E047
:102F40003FEF4FE757E40E94190318164CF56B85C5
:102F50007C858D859E8520E030E040E251E40E9432
:102F60001F02DC01CB01BC01CD010E944900DC0144
:102F7000CB019E838D830FC088EC90E09C838B8374
:102F80008B819C810197F1F79C838B838D819E813E
:102F900001979E838D838D819E81009769F714C070
:102FA0006F81788589859A850E944900DC01CB0173
:102FB0009E838D838D819E819A83898389819A8165
:102FC0000197F1F79A838983198A2DC08989882FFF
:102FD00090E0FC01E158FF4F20818989882F90E023
:102FE000FC01E958FF4F9081822F692F0E94F60F54
:102FF0008F878F858823A1F48A89482F50E089899B
:10300000282F30E0CA01880F991F880F991F820F5F
:10301000931FFC01E757FF4F8081EB89FC89808378
:1030200089898F5F898B8989843080F28A898F5F53
:103030008A8B8A89843008F427CF64960FB6F89477
:10304000DEBF0FBECDBFCF91DF910895DF93CF9349
:1030500000D00F92CDB7DEB79B838A8319828A8115
:103060009B810097A1F0EA81FB81158219820CC037
:103070008981282F30E08A819B81FC01E20FF31FB8
:10308000108289818F5F89838981853088F30F90D1
:103090000F900F90CF91DF910895DF93CF93CDB72D
:1030A000DEB764970FB6F894DEBF0FBECDBF9C8B22
:1030B0008B8B1A8A198A188A81E08F871A8AFBC03B
:1030C000188A16C08889882F90E0FC01E558FF4FC8
:1030D00020818889882F90E0FC01ED58FF4F908176
:1030E000822F692F41E00E947F0F88898F5F888B34
:1030F0008889843038F38A89882F90E0FC01E5586C
:10310000FF4F20818A89882F90E0FC01ED58FF4F06
:103110009081822F692F40E00E947F0F80E090E035
:10312000A0E2B1E48B879C87AD87BE876B857C85E9
:103130008D859E8520E030E04AEF54E40E941F0216
:10314000DC01CB018F839887A987BA876F81788547
:1031500089859A8520E030E040E85FE30E947903AA
:1031600088232CF481E090E09E838D833FC06F81A3
:10317000788589859A8520E03FEF4FE757E40E94E4
:10318000190318164CF56B857C858D859E8520E08E
:1031900030E040E251E40E941F02DC01CB01BC019F
:1031A000CD010E944900DC01CB019E838D830FC0BD
:1031B00088EC90E09C838B838B819C810197F1F755
:1031C0009C838B838D819E8101979E838D838D81CE
:1031D0009E81009769F714C06F81788589859A85EB
:1031E0000E944900DC01CB019E838D838D819E81ED
:1031F0009A83898389819A810197F1F79A838983D8
:10320000198A52C08989882F90E0FC01E158FF4F4C
:1032100020818989882F90E0FC01E958FF4F908137
:10322000822F692F0E94F60F8F878F85882319F5CB
:10323000EB89FC898581682F70E08A89482F50E0EE
:103240008989282F30E0CA01880F991F880F991F9C
:10325000820F931FFC01E756FF4F20818B899C89C9
:10326000FC01E60FF71F2083EB89FC8985818F5FC6
:10327000EB89FC8985838A89482F50E08989282F2A
:1032800030E0CA01880F991F880F991F820F931F82
:10329000FC01E756FF4F8081833219F4EB89FC89EA
:1032A000158289898F5F898B8989843008F4AACF38
:1032B0008A898F5F8A8B8A89843008F401CF64966B
:1032C0000FB6F894DEBF0FBECDBFCF91DF9108954A
:1032D000DF93CF9300D0CDB7DEB79A83898380E0A8
:1032E00061E041E00E947F0FEDE2F0E08281809397
:1032F000BE0080E062E041E00E947F0F0F900F90DF
:10330000CF91DF910895DF93CF93CDB7DEB780ECF7
:1033100090E00E94190E8093BF0080E061E041E0E0
:103320000E94080F80E062E041E00E94080F88E6FA
:1033300099E161E40E947A0E8093BF008091BE0003
:1033400027EC30E0B9010E94520E8093BF0080E06C
:1033500061E040E00E947F0F80E062E040E00E9478
:103360007F0FE5CF991B79E004C0991F961708F0ED
:10337000961B881F7A95C9F78095089597FB092EAB
:1033800007260AD077FD04D00CD006D000201AF40E
:10339000709561957F4F0895F6F7909581959F4FB1
:1033A0000895AA1BBB1B51E107C0AA1FBB1FA6178C
:1033B000B70710F0A61BB70B881F991F5A95A9F7DE
:1033C00080959095BC01CD0108952F923F924F9228
:1033D0005F926F927F928F929F92AF92BF92CF92A5
:1033E000DF92EF92FF920F931F93CF93DF93CDB7AE
:1033F000DEB7CA1BDB0B0FB6F894DEBF0FBECDBF26
:1034000009942A88398848885F846E847D848C84F6
:103410009B84AA84B984C884DF80EE80FD800C81FF
:103420001B81AA81B981CE0FD11D0FB6F894DEBFE2
:103430000FBECDBFED010895DC0101C06D93415079
:103440005040E0F70895AEE0B0E0E9E2FAE10C9414
:10345000F3190D891E8986E08C831A8309838FEF07
:103460009FE79E838D839E01275E3F4FCE0101968D
:103470006F89788DA9010E94471A2F813885020F24
:10348000131FF80110822E96E4E00C940F1AABE0A3
:10349000B0E0EDE4FAE10C94E5193C012B015A018E
:1034A000FC0117821682838181FD03C06FEF7FEFDD
:1034B000C6C19AE0892E1E010894211C311CF3011B
:1034C0002381F20123FD859123FF81912F01882320
:1034D00009F4B2C1853239F423FD859123FF81912E
:1034E0002F01853229F490E0B3010E943A1CE7CF06
:1034F000982FFF24EE249924FFE1FF15D0F09B3292
:1035000069F09C3228F4903259F0933291F40EC055
:103510009D3249F0903369F441E024C052E0F52A2D
:1035200084E0F82A28C098E0F92A25C0E0E1FE2AC4
:1035300022C0F7FC29C0892F80538A3070F4F6FE30
:1035400005C0989C902C1124980E15C0E89CE02C86
:103550001124E80EF0E2FF2A0EC09E3229F4F6FC98
:103560006BC140E4F42A07C09C3619F450E8F52AF0
:1035700002C0983649F4F20123FD959123FF919101
:103580002F01992309F0B8CF892F8554833018F083
:103590008052833038F444E050E0A40EB51E5FE35F
:1035A00059830FC0933631F0933779F0933509F092
:1035B00056C020C0F5018081898342E050E0A40E0E
:1035C000B51E610101E010E012C0F501C080D1809C
:1035D000F6FC03C06FEF7FEF02C0692D70E042E0A0
:1035E00050E0A40EB51EC6010E942F1C8C015FE79F
:1035F000F52214C0F501C080D180F6FC03C06FEF46
:103600007FEF02C0692D70E042E050E0A40EB51ECD
:10361000C6010E94241C8C0150E8F52AF3FE07C065
:103620001AC080E290E0B3010E943A1CEA948E2D09
:1036300090E008171907A8F30EC0F601F7FC859172
:10364000F7FE81916F0190E0B3010E943A1CE110F6
:10365000EA94015010400115110579F7EAC094363B
:1036600011F0993669F5F7FE08C0F5012081318126
:103670004281538184E090E00AC0F501808191810C
:103680009C01442737FD4095542F82E090E0A80E1E
:10369000B91E9FE6F92257FF09C050954095309515
:1036A00021953F4F4F4F5F4FE0E8FE2ACA01B90115
:1036B000A1012AE030E00E94661CD82ED21840C03A
:1036C000953729F41F2D1F7E2AE030E01DC01F2DE5
:1036D000197F9F3661F0903720F4983509F0ACC01F
:1036E0000FC0903739F0983709F0A6C004C028E021
:1036F00030E00AC0106114FD146020E130E004C025
:1037000014FD166020E132E017FF08C0F50160816A
:1037100071818281938144E050E008C0F50180818D
:103720009181BC0180E090E042E050E0A40EB51E23
:10373000A1010E94661CD82ED2188FE7F82EF12224
:10374000F6FE0BC05EEFF522D91438F4F4FE07C084
:10375000F2FC05C08FEEF82202C01D2D01C0192D0C
:10376000F4FE0DC0FE01ED0DF11D8081803319F4D2
:1037700099EEF92208C01F5FF2FE05C003C08F2D2D
:10378000867809F01F5F0F2DF3FC14C0F0FE0FC008
:103790001E1510F09D2C0BC09D2C9E0C911A1E2DF9
:1037A00006C080E290E0B3010E943A1C1F5F1E1524
:1037B000C0F304C01E1510F4E11A01C0EE2404FF8A
:1037C0000FC080E390E0B3010E943A1C02FF1DC0CD
:1037D00001FD03C088E790E00EC088E590E00BC0D3
:1037E000802F867891F001FF02C08BE201C080E259
:1037F000F7FC8DE290E0B3010E943A1C06C080E322
:1038000090E0B3010E943A1C9A94D914C0F3DA9460
:10381000F101ED0DF11D808190E0B3010E943A1C91
:10382000DD20A9F706C080E290E0B3010E943A1CB7
:10383000EA94EE20C1F743CEF30166817781CB0194
:103840002B96E2E10C94011AFC0105906150704046
:103850000110D8F7809590958E0F9F1F0895FC0159
:103860006150704001900110D8F7809590958E0FAF
:103870009F1F08950F931F93CF93DF938C01EB014C
:103880008B8181FF1BC082FF0DC02E813F818C8107
:103890009D812817390764F4E881F9810193F98340
:1038A000E88306C0E885F985802F0995892B31F4D6
:1038B0008E819F8101969F838E8302C00FEF1FEF41
:1038C000C801DF91CF911F910F910895FA01AA27A6
:1038D000283051F1203181F1E8946F936E7F6E5F53
:1038E0007F4F8F4F9F4FAF4FB1E03ED0B4E03CD001
:1038F000670F781F891F9A1FA11D680F791F8A1FE4
:10390000911DA11D6A0F711D811D911DA11D20D04A
:1039100009F468943F912AE0269F11243019305D04
:103920003193DEF6CF010895462F4770405D4193F5
:10393000B3E00FD0C9F7F6CF462F4F70405D4A3342
:1039400018F0495D31FD4052419302D0A9F7EACF0A
:10395000B4E0A6959795879577956795BA95C9F739
:1039600000976105710508959B01AC010A2E06942C
:103970005795479537952795BA95C9F7620F731FE5
:0C398000841F951FA01D0895F894FFCF30
:10398C0025690000000000000000003900360033FB
:10399C0000300005040302070605030202020203BD
:1039AC0003030348454C4C4F000102030405060772
:1039BC0008090A0B0C0D0E0F103132333435363723
:0A39CC00383930236162636465003E
:00000001FF
